:100000000C94EF020C940C030C940C030C940C1243
:100010000C9464350C940C030C9435350C94A32883
:100020000C9424310C945C280C940C030C940C0359
:100030000C9422350C944B280C940C030C940C0358
:100040000C940C030C940C030C940C030C940C03F4
:100050000C940C030C94AB350C940C030C940C0313
:100060000C940C030C940C030C0D0E0D100D120DC2
:10007000140D160D180D1A0D1C0D430D460D490DCE
:100080004C0D4F0D520D550D580D5B0DFA1DFD1DFC
:10009000001E031E061E091E0C1E0F1E121E151E1C
:1000A0006B1F6E1F711F741F771F7A1F7D1F801FAC
:1000B000831F9B1F9E1FA11FA71FAA1FA41FAD1F49
:1000C000B01FB31FF11FF41FF71FFA1FFD1F002001
:1000D000062003200920262029202C202F20322032
:1000E000352038203B206A206D2070207320762038
:1000F00079207C207F208220852088208B208E20E4
:100100009521972199219B219D219F21A121A32107
:10011000A521A7219321EF2EEF2EEF2E0330F52EF0
:10012000FB2E012F072F0D2F05A84CCDB2D44EB9B1
:100130003836A9020C50B9918688083CA6AAAA2A8A
:10014000BE000000803F20446F6E65210065727222
:100150006F723A00416420696E66696E6974756DEC
:1001600000426C696E6B00556E6465726C696E65F9
:100170000043572D520043570031202020487A0079
:1001800031302020487A0031303020487A00353034
:100190003020487A00312020206B487A003130200E
:1001A000206B487A00313030206B487A00312020B3
:1001B000204D487A00313020204D487A0053706C31
:1001C00069740053706565642000524954200053DF
:1001D000656D690046756C6C00575350520043576B
:1001E000004F4646004F4E2000556C74696D617497
:1001F00069630049414D42494320420049414D4213
:1002000049432041005374726169676874005369FF
:100210003533353141206572726F72005152502072
:100220004C6162732C203230313900312E3030670E
:1002300000355720435720546376722000202F7CCE
:100240003F2E2C7E7F06DB07557365206F72696732
:10025000696E616C204943210052657365742E2ECE
:100260002E2000204D487A0053656C65637420622F
:10027000616E643A0053657474696E672075702E00
:100280002E2E00C00DED146C1B8827C436C8461CEA
:10029000524E61746D0202020202020B0606060B48
:1002A0000B0203020200030200040107060101041D
:1002B00000030002020201010201010B0303070512
:1002C000030202020303030303030101010002030B
:1002D00002030003020201030104010101040300FF
:1002E0000202000200000200010B0B0107010106DF
:1002F000015369676E616C2067656E2E00467265FA
:100300007175656E637900417564696F2043682E6D
:100310003200417564696F2043682E3100524620D7
:10032000506F77657200566F6C746167650050722C
:100330006573732053656C656374210047505320C7
:10034000646174610043616C20737973206F73631F
:100350000043616C20726566206F736300506861B2
:100360007365204869005068617365204C6F0049CF
:100370002D512062616C005065616B204250460037
:1003800053797374656D20667271005265662066DC
:10039000727100506861736520486920667271004F
:1003A0005068617365204C6F2066727100492D5151
:1003B0002062616C2066727100416C69676E206614
:1003C000727100537572653F20656E7465722031DD
:1003D0003700466163746F7279207273742E005314
:1003E0002D6D6574657220737465700053686F7746
:1003F00020532D6D6574657200437572736F7220A2
:100400007374796C6500426174742E207374657026
:1004100000426174742E2066756C6C0042617474C5
:100420002E2073686F770044626C2E20636C6963C2
:100430006B005365742074696D65005753505220EA
:100440006C6F6361746F72005753505220706F77F6
:10045000657200575350522063616C6C0053746195
:100460007274004672616D65004672657175656EE5
:100470006379004D6F646500426561636F6E00458E
:100480006E61626C65206564697400456E61626CC2
:100490006520547800456E61626C65205278004199
:1004A0006D706C2E206176672E0053706565642038
:1004B0006176672E004E6F69736520626C6E6B2EDD
:1004C0000053696465746F6E6520766F6C005369C4
:1004D0006465746F6E65206672710050726163743A
:1004E0006963650051534B004175746F205370610F
:1004F0006365004B657965722057656967687400AC
:100500004B657965722073776170004B6579657210
:10051000207370656564004B65796572206D6F644A
:10052000650042616E64004357206F6666736574B0
:10053000004357206D6F6465005249542072617406
:1005400065005249540054756E65207261746500EF
:1005500056464F20420056464F20410056464F20F7
:100560006D6F6465005265706561747300496E74E7
:10057000657276616C004D6573736167652000502C
:1005800072657365742000536176652073657474B9
:10059000696E6773210054657374206571756970A5
:1005A0006D656E7400416C69676E6D656E74004FA9
:1005B0007468657200426561636F6E004465636FC5
:1005C000646572004B657965720056464F004D6553
:1005D00073736167657300507265736574001124ED
:1005E0001FBECFEFD8E0DEBFCDBF11E0A0E0B1E08D
:1005F000EAE5FCE702C005900D92A23FB107D9F7EA
:1006000025E0A2EFB1E001C01D92A030B207E1F7F2
:100610000E94E3170C942B3E0C94000000C000C015
:1006200000C000C000C000C000C000C000000895AD
:100630003C983D984498459808953C9A08953C9A72
:10064000EDDF1DD008953D9AE9DF3C98E7DF3D9846
:10065000E5DF3C9AE3DF13D00895082E3C9ADEDFF5
:10066000802D0DD0882311F002D0F8CF08953D9A47
:100670003C9AD4DF3D98D2DF3C98D0DF08950894AF
:10068000881F01C0880F59F03D9A18F400003C986B
:1006900002C03C9A00C0C2DF3D98C0DFF3CF3D9A54
:1006A0003C98BCDF3D98359BFECF8827349981E08C
:1006B000B5DF99270895882701C081E071E03D9A50
:1006C0003C98ACDF3D98AADF359BFECF88943499E7
:1006D0000894771FA0F73D9A813011F03C9801C033
:1006E0003C9A9CDF3D98359BFECF98DF872F99275A
:1006F00008959091C303965081E0943008F080E013
:100700000895CF93C1E0C0931F020E94790388230C
:10071000D9F08FEF0E94813580E00E94B42B81E0F8
:100720000E9443300E943B30809168008E7F80930E
:10073000680080917A00886080937A00C09370008E
:1007400081E0CF910C94B9318091C3038C3061F476
:1007500080E00E941C3080E00E94433082E00E94D2
:10076000FE0FCF910C94850F80E00E941C3080E03A
:100770000E94433081E00E94FE0F10928000109290
:100780006F00C09362048DEF80931A0210921B02D7
:1007900010921C0210921D0210921E0280917A008B
:1007A000877F80937A008091C3038B3021F4C093BC
:1007B0008100CF91089587E08093810081E0CF91FF
:1007C0000C94B42B10921F0280E00E94B42B80E0A6
:1007D0000E9443300E9417108FEF0E948135EAE794
:1007E000F0E080818860808381E08093700080E009
:1007F0000C94B931CF92DF92EF92FF92CF938FE4B6
:100800000E94141680916204882331F080911A02AC
:100810008D3F11F083E001C080E20E94211680919B
:100820006204882309F4D3C02091600430916104EC
:100830008091F2019091F3018217930750F4609137
:10084000600470916104681B790B6B01E12CF12C41
:100850000DC0C0906004D0906104E12CF12C2FEF0A
:10086000E21AF20AC81AD90AE108F1088091600474
:10087000909161049093F3018093F20180E40E94CF
:10088000141680911A0221E0280F8D3F08F097C0BE
:100890003091C3033A3049F4C11480E8D806E1042A
:1008A000F10418F48FEFE81AF80A80911B02909176
:1008B0001C02A0911D02B0911E02BC01CD016C0D65
:1008C0007D1D8E1D9F1D60931B0270931C028093E3
:1008D0001D0290931E0220931A023B3061F430E017
:1008E00040E050E00E94973D69017A018FECE81AE0
:1008F0008EEFF80A1AC0243039F46B017C0128E627
:10090000E21A2EEFF20A11C030E040E050E00E94FF
:10091000973D69017A0186E6E80EF11C82E0CC0C75
:10092000DD1CEE1CFF1C8A95D1F74BE0C701B60118
:100930000E94C43687E694E00E943B1680911A021A
:10094000843009F044C086E491E00E94471680910B
:1009500068008E7F8093680081E08093700080E063
:100960000E94B42B80E00E9443308091C3038B30FF
:1009700059F4C0921404D0921504E0921604F09237
:1009800017040E94B41A0AC0C092E203D092E30393
:10099000E092E403F092E5030E94C01A80912802DD
:1009A0008823A9F00E94E2031092190410922802F1
:1009B00080E00E94B00A83E08093D50408C02093B1
:1009C0001A02CFE080E20E942116C150D9F78FEFC2
:1009D00080936204CF91FF90EF90DF90CF900895C5
:1009E0000F931F93809154039091550340911B02E4
:1009F00050911C0260911D0270911E02480F591FF8
:100A0000611D711D40931B0250931C0260931D02D7
:100A100070931E0280911A028F5F893119F08093C2
:100A20001A0248C010921A02E091F40181E08E0F80
:100A30008A019B010E2E04C03695279517950795C0
:100A40000A94D2F7013311052105310528F0E82F6A
:100A5000EDCFEE2361F1E150DB01CA010E2E04C09F
:100A6000B695A795979587950A94D2F78031910509
:100A7000A105B10570F3E093F40180931B029093FC
:100A80001C02A0931D02B0931E020E94B4178EE0B8
:100A90000E9414168091F4010E94301610921B02DD
:100AA00010921C0210921D0210921E0203C010929E
:100AB000F401E3CF1F910F9108951092DC0310927F
:100AC000130481E0809382020E949F130C941E16EF
:100AD000CF9310922D0210922C02109225021092A8
:100AE00024028FEF90E09093230280932202809162
:100AF00021048130A1F50E94FF37C82F809129047D
:100B000090912A04A0912B04B0912C046627782F91
:100B1000892F9A2F27E731E040E050E00E94973D6F
:100B20002093AA033093AB034093AC035093AD03DF
:100B3000CC2349F185EB95E00E94471680E20E94A4
:100B400021168DE491E00E94471680E40E9414165D
:100B50008C2F0E94E81F8DE28093630439C080913E
:100B6000DC03882319F080910E040BC088EC90E020
:100B70009093CA038093C9038CE590E00E94003EE5
:100B8000862F0E9412138091DC03811107C080918F
:100B9000FB0381110E94EA280E94BD0C10922A02D8
:100BA000109220028FEF80932102109229028091EF
:100BB000330490913404A0913504B09136048093AD
:100BC000A4039093A503A093A603B093A703C0E04A
:100BD0008C2FCF91089591E09093DC0390931304B0
:100BE000882319F09093BA0306C086E890E00E942B
:100BF000F83D8093BA03109221040E94680583E0B7
:100C00008093D5041092E703089580912902811101
:100C100010C08091330490913404A0913504B091B8
:100C200036048093A4039093A503A093A603B093E6
:100C3000A70380912104813019F40E940F3A02C069
:100C40000E94A306882311F18091DC03882389F098
:100C50008091BA03882339F081508093BA038111BF
:100C600002C00C945D0588E890E00E94003E60930D
:100C7000E7030E9468058091DC03811163C083E073
:100C80000E94FE0F81E08093280208954091A40302
:100C90005091A5036091A6037091A7038091AA03C8
:100CA0009091AB03A091AC03B091AD03840F951F5D
:100CB000A61FB71F8093A4039093A503A093A60338
:100CC000B093A70380912104811107C08091B703DD
:100CD0009091A80389130E94711320912C023091E6
:100CE0002D028091240290912502820F931F9093F0
:100CF0002D0280932C022091220230912302821730
:100D00009307D0F04091A4035091A5036091A603EE
:100D10007091A7034F5F5F4F6F4F7F4F4093A403C6
:100D20005093A5036093A6037093A703821B930BB4
:100D300090932D0280932C028091DC03811102C0DC
:100D40000C94460C089580912A0281110DC0809167
:100D50002002815080932002811109C080912902D4
:100D6000811105C082E001C0815080932A028091E8
:100D700020028F3F09F065C080912902882379F015
:100D8000209129022150209329023091F5013F3E04
:100D900009F03FC01092200210922B0248C090919F
:100DA00021029F5F909321022091C9033091CA03D1
:100DB000A901490F511DCA010E94F83D8093F50118
:100DC000811102C081E0089580911F040E94F11EEC
:100DD000909121028917B1F38091F5010E946C1A5C
:100DE000E82FF0E0E85DFE4F20812093F50187E0D9
:100DF00030E09FEF980FA901082E02C05595479546
:100E00000A94E2F740FF02C0892FF3CF80932902B2
:100E1000B7CF81E090E001C0880F2A95EAF78323DD
:100E200049F083E08093200281E080932B021092AE
:100E3000270207C081E0809320028093270210924E
:100E40002B0280912002811104C01092270210927F
:100E50002B0280912702811107C081E090912B0223
:100E6000911103C080E001C081E00E94B31280E0D4
:100E70000895CF9380911204823049F08091D1037C
:100E80009091D2038115904821F0C7E003C0CBE0D8
:100E900001C0C0E080E48C0F0E941416EC2FF0E03B
:100EA000EC5CFD4F80810E94211681E08C0FCF9178
:100EB000089580916702A8E2B1E0E0E09D91981763
:100EC00019F0EF5FEA32D1F78EEF80936702EA30D4
:100ED00010F480E303C0E43218F487E38E0F089522
:100EE000EA3229F0F0E0E75EFD4F849108958AE24E
:100EF0000895E4E3F2E080E2819392E0E434F907BC
:100F0000D9F708958091330290915B02981779F098
:100F10008F5F803119F08093330202C01092330248
:100F2000E0913302F0E0E859FD4F8081089580E0C0
:100F300008959091330280915B02981799F09091F7
:100F4000330280915B02981779F0E4E3F2E081814B
:100F5000819382E0E434F807D1F70E9482078093FE
:100F60004302EDCF80E0089581E00895CF93DF93B1
:100F7000C82FD62F809119048823D1F08091BB030C
:100F8000882351F18091BC03813051F4E0918302B8
:100F9000F0918402E959FB4FC0830E94DB271CC0FB
:100FA0008230D1F48C2F0E947F378111EFCF14C093
:100FB00080916502882381F080915B028F5F803190
:100FC00019F080935B0202C010925B02E0915B0219
:100FD000F0E0E859FD4FC083DD2381F08091660287
:100FE000882321F081E09091C40303C081E09091B7
:100FF000D003911101C080E080936502DF91CF9111
:101000000895CF92DF92EF92FF9281E08093660283
:1010100020910E0430E040E050E060EB74E080E0AE
:1010200090E00E94973D20934E0230934F024093F0
:10103000500250935102A3E0B0E00E94D53D60936E
:101040005302709354028093550290935602DC0130
:10105000CB01820F931FA41FB51FB695A795979537
:10106000879580934A0290934B02A0934C02B093D1
:101070004D0281E09091C403911101C080E0809302
:1010800065028EEF80936702109245021092520221
:10109000FF90EF90DF90CF90089510926602089530
:1010A0008F929F92AF92BF92CF92DF92EF92FF9278
:1010B00080917C0290917D02A0917E02B0917F028E
:1010C0000496A11DB11D80937C0290937D02A09394
:1010D0007E02B0937F02E0905403F090550380911C
:1010E000C30387FD06C080916602811102C00E9481
:1010F00001089091B70380916602992329F081112C
:1011000041C00E9401083EC09091FA01992389F0E4
:1011100080917C0290917D02A0917E02B0917F022D
:101120008093F6019093F701A093F801B093F90131
:1011300029C0882339F180907C0290907D02A09094
:101140007E02B0907F028091F6019091F701A0910C
:10115000F801B091F901881A990AAA0ABB0A2091EC
:101160004E0230914F024091500250915102AEE038
:10117000B0E00E94D53D681579058A059B0510F4FD
:10118000109266028091B7038093FA014091660243
:1011900041113AC0E0910001F0910101EE15FF0507
:1011A000F0F4209102013091030160911A042E1590
:1011B0003F0548F4C701821B930B70E00E94833DFA
:1011C000260F371F08C0C9018E199F0970E00E94C1
:1011D000833D261B370B309303012093020180913E
:1011E0000201909103018E179F0720F4F0930301F1
:1011F000E0930201809102019091030196958795F9
:101200008E159F0520F481E08093600202C0109249
:1012100060028091600290915202891799F0C0900B
:101220007C02D0907D02E0907E02F0907F02C0921E
:101230005702D0925802E0925902F0925A0241119C
:1012400024C025C0411121C0C0907C02D0907D02F5
:10125000E0907E02F0907F02409157025091580238
:101260006091590270915A02C41AD50AE60AF70A27
:101270004091E10350E060E070E04C155D056E05C3
:101280007F0528F490913202891380933202809175
:10129000320290914502891709F4EFC0C0907C0298
:1012A000D0907D02E0907E02F0907F02882311F1C1
:1012B000C0924602D0924702E0924802F092490260
:1012C00080915C0290915D02A0915E02B0915F02FC
:1012D000C81AD90AEA0AFB0AC0926102D0926202D5
:1012E000E0926302F09264028091FB01882309F48A
:1012F0008DC0C1C0C0925C02D0925D02E0925E02DD
:10130000F0925F028091460290914702A0914802BC
:10131000B0914902C81AD90AEA0AFB0AC0922E0201
:10132000D0922F02E0923002F0923102D701C60132
:101330004E97A109B1098B3A9105A105B10508F0B5
:10134000E9C0E091CD03AE2FB0E0119720914A02A1
:1013500030914B0240914C0250914D020E94E03D71
:101360006C0D7D1D8E1D9F1D2E2F30E040E050E046
:101370000E94973D20934A0230934B0240934C02C7
:1013800050934D02E0911A04AE2FB0E01197C216AF
:10139000D306E406F506E8F420914E0230914F02A0
:1013A00040915002509151020E94E03D6C0D7D1D14
:1013B0008E1D9F1D2E2F30E040E050E00E94973D93
:1013C00020934E0230934F024093500250935102AB
:1013D000A1C0209153023091540240915502509186
:1013E00056020E94E03D6C0D7D1D8E1D9F1D2E2F0F
:1013F00030E040E050E00E94973D2093530230934C
:101400005402409355025093560284C080904E027D
:1014100090904F02A0905002B0905102A5E0B0E031
:10142000A50194010E94D53D6C157D058E059F0593
:1014300040F40E94590760E00E94B60761E080E234
:1014400018C08091530290915402A0915502B0911E
:101450005602880D991DAA1DBB1DB695A795979597
:1014600087958C159D05AE05BF0528F40E94590788
:1014700061E00E94B6071092FB0180913202811157
:1014800038C040917C0250917D0260917E02709143
:101490007F0280915C0290915D02A0915E02B0910A
:1014A0005F02481B590B6A0B7B0B80915302909192
:1014B0005402A0915502B091560222E0880F991F64
:1014C000AA1FBB1F2A95D1F784179507A607B70750
:1014D00080F48091FB0181110CC00E94590760E0EB
:1014E0000E94B60761E080E20E94B60781E0809327
:1014F000FB018091600280935202809132028093BE
:101500004502FF90EF90DF90CF90BF90AF909F90FB
:101510008F90089540914E0250914F026091500279
:10152000709151028091530290915402A091550202
:10153000B0915602480F591F6A1F7B1F7695679519
:101540005795479580916702C416D506E606F706BB
:1015500010F4880F02C0880F8F5F809367028BCFD3
:10156000CF93C82F8091D40390918002891B9091D2
:101570008302890F0E941416CC2341F08091DD0371
:10158000813011F48DE003C08EE001C08CE0CF917A
:101590000C94FE158091C3038D3F21F480910C04BF
:1015A0008F5B08C09091100181E0923008F480E0D8
:1015B0009F5F890F0E9414168EE00C94FE15809197
:1015C000D1039091D20397FD12C08DE20E942116A3
:1015D0002091D1033091D20380E090E8A0E0B0E008
:1015E000BC01CD01621B730B810991090FC08BE215
:1015F0000E9421166091D1037091D203CB01A0E02B
:10160000B0E0BC01CD0170588109910946E00E940B
:10161000C43687E694E00C943B1680E40E941416CE
:101620008AEC91E00E9447160E94DF0A0E94111680
:101630000E9456160C94CA0A80E40E94141683EC89
:1016400091E00E94471660E080910E040E94A61669
:101650000E9411160C9456164BE00E94C4368091DD
:101660006704803319F480E2809367041092700459
:1016700087E694E00C943B16CF92DF92EF92FF92B4
:10168000CF93C62F69017A010E941416C11102C0BE
:1016900084E001C085E00E942116C701B601CF9108
:1016A000FF90EF90DF90CF900C942C0BA0918502CF
:1016B000B0918602B7FF11C0BF7028EA35E24AE058
:1016C00050E00E94D53D20E034E840E050E00E9428
:1016D000973D3093860220938502809111018830D6
:1016E00009F04AC08091C30381111AC080E40E94AE
:1016F000141660918502709186026B5F7F4F80E0C7
:1017000090E047E00E94C4368EE28093690480E254
:1017100080936C0486E580936D0410926E0428C05B
:10172000813051F580E40E941416A0918502B09199
:101730008602A657BD4F9D010E94BF3D28E334E4B9
:1017400041E050E00E94973DCA01B9016B5F7F4FB5
:101750008F4F9F4F46E00E94C4368EE2809368040C
:1017600080E280936B0487E580936C0410926D0493
:1017700087E694E00C943B1640911D0450911E04A2
:1017800026E0249FC001259F900D11242091000484
:10179000309101048217930718F4281B390B02C0FB
:1017A00020E030E0609185027091860280E026178B
:1017B000370730F4873021F0240F351F8F5FF7CFC4
:1017C0009091FC01981721F08093FC010C94D416A1
:1017D0000895809112048230C9F42091E903309178
:1017E000EA034091EB035091EC0360E080E00E943B
:1017F0003C0B2091C5033091C6034091C703509123
:10180000C80361E080E40E943C0B2AC081110AC039
:101810002091E9033091EA034091EB035091EC03EE
:1018200060E00AC02091C5033091C6034091C70310
:101830005091C80361E080E00E943C0B80E20E946E
:1018400021168091D1039091D2038115904841F0E7
:1018500080E40E9414160E94DF0A80E20E94211692
:1018600080910D04882339F00E94560B8FE00E946E
:10187000141686E004C08FE00E94141680E20E94D5
:1018800021160E94CA0A10928202089580E40E94E2
:1018900014168CE00E94FE1580912104813031F5F0
:1018A00080912902813011F547E050E068EE73E045
:1018B00087E694E00E94E83D87E694E00E943B16AC
:1018C00080E20E94211645E050E06FEE73E087E66B
:1018D00094E00E94E83D87E694E00E943B1680E297
:1018E0000E9421168091D9030C943016089580919E
:1018F0006704882319F0813021F0089586E791E08C
:1019000002C081E791E00C94471680916704882318
:1019100019F0813021F0089587E691E002C081E658
:1019200091E00C94471680916704882319F0813068
:1019300021F0089584ED91E002C08FEC91E00C94C9
:10194000471680916704882319F0813021F00895AB
:1019500081EE91E002C085EE91E00C9447168091F3
:101960006704882319F0813021F008958EED91E00D
:1019700002C089ED91E00C94471680E00E94141695
:10198000609108047091090480910A0490910B04FD
:101990004BE00E94C43687E694E00E943B1680E24A
:1019A0000E94211680912104809367040E94AF0C4D
:1019B00080912104811107C080E20E94211680914C
:1019C0000E040C94301680E20C942116809167046A
:1019D000813049F028F0823049F0833051F0089589
:1019E00085E092E008C08CEF91E005C083EF91E0C4
:1019F00002C089EE91E00C94471680E40E94141610
:101A0000E09167048E2F90E089309105C0F4FC01CD
:101A1000EC5CFF4F0C94B93D80E50FC08CE30DC02A
:101A200088E20BC08EE109C084E107C081E105C0F6
:101A30008FE003C08CE001C08AE00E9430168DE682
:101A40000C94211680916704813051F038F0823077
:101A500051F48DEB91E00E94471605C081E401C06E
:101A600082E40E9421160E9411160C945616E091F1
:101A700067048E2F90E08930910508F5FC01E35C46
:101A8000FF4F0C94B93D85EB91E017C08DEA91E0D2
:101A900014C085EA91E011C08DE991E00EC085E99E
:101AA00091E00BC08EE891E008C087E891E005C0A6
:101AB00080E891E002C089E791E00C944716089510
:101AC00080916704811105C084E591E00E9447166A
:101AD00003C060E00E94A6160E9411160C945616D0
:101AE0000F931F93CF93DF9380E40E94141680918D
:101AF000BC0381114CC080911101823061F480914E
:101B0000C303811103C00E94220D39C0863089F4BD
:101B10000E94770C34C08330C1F48091C3038530B8
:101B200019F40E94930C2BC0811129C00E94E60C6D
:101B300026C0833019F40E94370D21C08530D9F3B7
:101B40008830E9F40E94FD0C1AC0813039F480918C
:101B5000C3038D30A1F40E94600D11C0853039F4AB
:101B60008091C303813059F40E94AF0C08C08630C5
:101B700031F48091C303843011F40E94850C0E94DB
:101B80001116DF91CF911F910F910C94561683304F
:101B900031F4DF91CF911F910F910C94A10CC09162
:101BA0008002D0918102C959DB4F00E110E0899198
:101BB000882329F00E94211601501109C1F7DF91F5
:101BC000CF911F910F91089581E080938202089533
:101BD000CF92DF92EF92FF92C0900401D090050166
:101BE000E0900601F0900701209108013091090171
:101BF00040910A0150910B01C701B6010E945C3C63
:101C000020910C0130910D0140910E0150910F0176
:101C10000E94C33A20E030E040E05FE30E944D3A8A
:101C20000E94353B072E000C880B990B0E946D3BE0
:101C30002AED3FE049EC50E40E945C3CA70196018C
:101C40000E94C33A6B017C010E94C93C60934B0324
:101C500070934C0380934D0390934E03C701B601DC
:101C60000E94BE3A60934F037093500380935103D8
:101C7000909352039B01AC010E944D3A609347033D
:101C8000709348038093490390934A03FF90EF9029
:101C9000DF90CF9008952F923F924F925F926F9274
:101CA0007F928F929F92AF92BF92CF92DF92EF92EC
:101CB000FF920F931F93CF93DF9300D000D01F921A
:101CC000CDB7DEB740900401509005016090060149
:101CD00070900701C0904703D0904803E0904903FB
:101CE000F0904A031982812C912CA12CB12C212C2B
:101CF000312C00E010E0282F30E03B832A8339812B
:101D0000232F30E03D832C83B901330F880B990BCF
:101D10000E946D3BA30192010E94B93A87FF2BC03C
:101D2000A7019601B101C8010E945C3C9401A50184
:101D30000E944C3A4B015C018C819D81EA81FB81C0
:101D40008E0F9F1F880F991F89579D4FFC0160813F
:101D50007181072E000C880B990B0E946D3BA50129
:101D600094010E944D3AF981FF5FF98341015801C6
:101D70001B018C01C4CF9401A501B101C8010E94CF
:101D80005C3CA70196010E945C3C6B017C019101C7
:101D9000A801B101C8010E945C3C2B013C019401E7
:101DA000A501B401C5010E945C3C9B01AC01C301CB
:101DB000B2010E944D3AA70196010E944C3A0E943E
:101DC000D73C0E943C3B70935503609354030F90A3
:101DD0000F900F900F900F90DF91CF911F910F9167
:101DE000FF90EF90DF90CF90BF90AF909F908F903B
:101DF0007F906F905F904F903F902F9008959091BB
:101E00006A039F5F903119F090936A0302C01092A9
:101E10006A03E0916A03F0E0E65AFC4F808308957C
:101E2000FA01D901118210821C92813049F5633088
:101E3000B9F040F4613071F0623009F044C029E833
:101E400033E01AC0653091F070F06630E1F526E5B8
:101E500033E012C020E833E03183208396E032C0C3
:101E60002FE633E005C027E833E006C02DE833E075
:101E7000318320839FE026C0318320838C9323C04D
:101E8000823029F46230F9F422EA33E00DC0883060
:101E900029F46730C1F42FE933E011C0843099F49C
:101EA000623031F42BE833E03183208391E00AC0C3
:101EB000643048F06370633031F42BE633E03183F3
:101EC000208392E09C9320813181232B29F09091F3
:101ED0007F03892B80937F0308950F931F93F9014C
:101EE0009081DB01A90FB11D2C91281309C09F5FC0
:101EF0009083933031F4D8014C93108281E002C07A
:101F0000108280E01F910F91089580E40E941416C2
:101F100080917F0380FF05C089E893E00E943B1613
:101F200003C08DE20E94211680E20E94211680915A
:101F30007F0381FF0FC08091A203823319F482E5F1
:101F400091E00AC0833319F485E591E005C088E586
:101F500091E002C08BE591E00E943B1680E20E9476
:101F6000211686E60E94211680917F0383FF10C010
:101F70008091A003811103C080E30E94211680910B
:101F80009F030E9421168091A003882339F004C08A
:101F90008DE20E9421168DE20E94211680E20E94AD
:101FA000211684E70E94211680916E0390917F0391
:101FB0009823A9F00E94301680E20E94211683E740
:101FC0000E94211660916E0370E0809158039091F9
:101FD00059030E94833D862F0E94301604C08EE56F
:101FE00091E00E943B160E941116803520F480E299
:101FF0000E942116F8CF10927F03089580939D03CD
:102000000E941C3580916800816080936800109266
:102010006B0080919D03813031F480916B00806171
:1020200080936B0008958FEF9EE00C947D310E94A9
:1020300075310E94F53410929D03E8E6F0E080814E
:102040008E7F808310926B000895CF93DF9300D032
:1020500000D01F92CDB7DEB780918903813409F09B
:10206000A9C040918E0350E04053510920918D0347
:1020700030E0205331096AE0629FC001639F900DF8
:102080001124840F951F97FD019695958795609172
:102090005603653411F4865B03C099E4981B892FBD
:1020A000898380916F03E0918703EE3411F4865E9B
:1020B00003C099E7981B892F8A8380918F0390E052
:1020C000C0977AE0749F9001759F300D1124820FA4
:1020D000931F97FD019695958795653431F46AE0D5
:1020E0000E94773D905D9B8306C06AE00E94773D29
:1020F00089E3891B8B8390917003EE3411F49C83E8
:1021000003C089E6891B8C831D82CE0101960E9443
:10211000EA37811124C045E050E06FEE73E087E6B6
:1021200094E00E94E83D99818091670498130FC064
:102130009A818091680498130AC09B8180916904F8
:10214000981305C09C8180916A04981741F045E07E
:1021500050E06FEE73E0CE0101960E94063E409182
:102160008403440F4056842F880F880F480F8091B6
:1021700085038053480F60918203660F6056862F57
:10218000880F880F680F809183038053680F8091B8
:102190008003880F8056982F990F990F890F90917F
:1021A00081039053890F0E947F298091260281111B
:1021B0000E94EA2880919D03823019F40E94850FC5
:1021C00009C0833039F40E9417108AE08093C3035A
:1021D0000E9481030F900F900F900F900F90DF914E
:1021E000CF9108950F931F93CF93C82F809106022C
:1021F00081113DC0809105028C278093050206E085
:1022000012E024E032E041E063E671E08C2F0E94AE
:102210006D0F882359F0109204021092030210925D
:1022200002021092010210920002DAC006E012E0EF
:1022300023E032E042E067E671E08C2F0E946D0FF0
:102240008111E9CF22E032E048E06BE671E08C2FAB
:102250000E946D0F8111DFCF21E032E044E06FE694
:1022600071E08C2F0E946D0F8111D5CFB9C0C4329F
:1022700049F4109206021092040210920002109289
:102280000502AEC020910002CC3219F0CA3209F02A
:1022900059C08091FE019091FF01009769F0409133
:1022A00004023091FD01FC01431718F4E40FF11D05
:1022B00002C0E30FF11D108280910602843061F5A7
:1022C000243050F1822F8370833031F5273051F460
:1022D00080918B03813331F410925903109258038B
:1022E00010926E03E091FE01F091FF01808188233E
:1022F00099F08BE693E00E948E372091580330913D
:102300005903620F731F70935903609358038091B0
:102310006E038F5F80936E03609100026F5F609326
:102320000002109204022DEF31E04EEF51E0809157
:1023300006020E94100FCA3211F48EEF11C0809174
:1023400005024BC02E3F79F48C2F0E948637909166
:10235000050220E1829F90191124909305028FEFCE
:10236000809300023DC02F3FE1F48C2F0E948637FE
:1023700090910502981B90930502109200028091A3
:102380000602992339F0809590917F0389238093E9
:102390007F0326C0813021F5CF911F910F910C94BE
:1023A00025102091FE013091FF0180910502211539
:1023B000310599F0909104024091FD01941768F461
:1023C0008C2780930502F901E90FF11DC0838091EC
:1023D00004028F5F8093040203C0C827C0930502E4
:1023E000CF911F910F91089580919E0390916A0360
:1023F000891789F08F5F803119F080939E0302C0A6
:1024000010929E03E0919E03F0E0E65AFC4F80811B
:102410000E94F210E9CF08951F920F920FB60F920B
:1024200011242F933F934F935F936F937F938F93D9
:102430009F93AF93BF93EF93FF9380919D03813060
:1024400069F4809184009091850090936104809359
:10245000600483B180718093620402C00E940F31D6
:10246000FF91EF91BF91AF919F918F917F916F916C
:102470005F914F913F912F910F900FBE0F901F9042
:1024800018959091C3039F3F71F59091B4039923E0
:1024900051F1811115C04091330450913404609181
:1024A0003504709136048091090290910A02A0913E
:1024B0000B02B0910C0284179507A607B70798F492
:1024C00080E00E94993180E00E94C53180E00E9446
:1024D0001C3081E00E94BF311092B40380916F00E4
:1024E0008B7F80936F000895CF92DF92EF92FF92DF
:1024F0002091DE036091290470912A0480912B04BD
:1025000090912C04C0903304D0903404E0903504B2
:10251000F0903604222381F020910E0430E040E058
:1025200050E00E94973DA0E6B0E00E94D53D2AE031
:1025300030E040E050E004C024E630E040E050E00D
:102540000E94973DC20ED31EE41EF51EC0920902E2
:10255000D0920A02E0920B02F0920C02FF90EF90F0
:10256000DF90CF900895CF93C82F0E94993180912A
:10257000C3038F3FA1F080911101883081F0C09397
:10258000B403CC2311F080E001C081E00E94BF3190
:1025900080E00E94C53180E00E941C3039C0CC230D
:1025A00079F180E00E94BF318091B40381110AC0AB
:1025B0008091E003811103C081E00E941C3081E022
:1025C0008093B4038091E003811103C081E00E94F5
:1025D000C5318091CB03811104C0809113048823FD
:1025E00061F08FEF9FEFDC018093090290930A0264
:1025F000A0930B02B0930C020BC00E94741208C08F
:102600008091080281110E94741280E00E94C531FD
:102610008091B7038093A803C093B703C0930802C7
:10262000CF910895CF92DF92EF92FF920F931F9375
:10263000282F30E040E050E06091290470912A0496
:1026400080912B0490912C040E94973DACE0B0E067
:102650000E94D53D2AE030E040E050E00E94973DE6
:10266000CA01B9012093AA033093AB034093AC0392
:102670005093AD0320911004309111046901E12CB5
:10268000F12C243F314068F41092AF0304EF11E0C5
:1026900020E030E0A90198012C193D094E095F099D
:1026A00009C021E02093AF03A7019601245F3140C8
:1026B000410951090E94673D28EE33E040E050E0B7
:1026C0000E94973D2093B0033093B1034093B2032F
:1026D0005093B3031F910F91FF90EF90DF90CF9035
:1026E00008950F931F939091AF034091A4035091CD
:1026F000A5036091A6037091A7030091B003109108
:10270000B1032091B2033091B303882339F09923A8
:1027100039F0400F511F621F731F06C09923C9F380
:10272000401B510B620B730B4093A4035093A50302
:102730006093A6037093A7031F910F910895809152
:102740000E040E9412138091330490913404A091DE
:102750003504B09136048093A4039093A503A0930D
:10276000A603B093A70380910304811103C082E004
:102770008093A90308954F925F926F927F928F92F8
:102780009F92AF92BF92CF92DF92EF92FF920F9300
:102790001F93CF93509103048091AA039091AB03B0
:1027A000A091AC03B091AD030091A4031091A503D7
:1027B0002091A6033091A7035523F9F04091A90376
:1027C0004423D9F01092A9034091B6034770A9F4AD
:1027D000AC01BD01440F551F661F771FD901C80109
:1027E000840F951FA61FB71F8093A4039093A50382
:1027F000A093A603B093A703AFC0C0903304D090BA
:102800003404E0903504F090360426013701401A74
:10281000510A620A730A4C015D01880C991CAA1CBA
:10282000BB1C84149504A604B70428F48C0D9D1DCC
:10283000AE1DBF1D04C0800F911FA21FB31F809348
:10284000A4039093A503A093A603B093A7035111EB
:102850000EC08091A903813051F48091B603877036
:1028600019F01092A90303C082E08093A90380911C
:1028700007028823A1F081508093070281116CC068
:102880000E94B3128091B6038C7F8093B60380912F
:1028900007020E94711381E08093A9035DC08091BB
:1028A000B60382FF1AC02091AE039091CB03213072
:1028B00051F4933019F092E09093AE0393E090932B
:1028C00007028B7D2FC0933019F091E09093AE03F7
:1028D00091E0909307028B7B19C080FD11C081FFAE
:1028E00007C093E09093070292E09093AE0319C063
:1028F0009091CB039230C1F4282F2874283441F4EE
:1029000091E09093AE03909307028F7B80620DC09D
:10291000282F2073203341F49093AE0393E09093DB
:1029200007028F7D806401C08F798093B603809108
:10293000B603877E8093B603809107020E94B3128C
:10294000C0910702CC2319F08C2F0E94711381E0F3
:10295000C11180E08093B503CF911F910F91FF903B
:10296000EF90DF90CF90BF90AF909F908F907F902F
:102970006F905F904F900895CF92DF92EF92FF9209
:10298000CF938091DC038111BBC08091130481112E
:10299000B7C080911F028111B3C08091C3038058DA
:1029A0008F3708F4ADC00E942E33C82F0E943D33EC
:1029B0002091CB03211110C0C11106C091E08111FB
:1029C00001C090E0892F01C081E0CF91FF90EF908E
:1029D000DF90CF900C94B312C0903304D0903404A5
:1029E000E0903504F09036044091A4035091A50383
:1029F0006091A6037091A7034C155D056E057F05D8
:102A000010F030E008C09091A903992319F091E0EB
:102A10009093B50331E0C1110CC081111EC022306A
:102A200051F18091B603887F8093B6031092AE0374
:102A30003FC09091B603882319F09C7F946024C016
:102A400091FF19C09C7F94609093B603233009F4E2
:102A500051C092E09093AE034DC09091B60390FFA9
:102A60000AC09C7F94609093B6032330E1F081E02C
:102A70008093AE0318C09091B503992381F0CC23C5
:102A800031F09091B60391609093B60333C08823E0
:102A900079F08091B60382608093B60304C0C111BF
:102AA00029C0882329F08091B60380618093B60302
:102AB00031110E94BB1380910304811121C08091C8
:102AC000A9038230E9F48091B6038770C9F01092AF
:102AD000A9038091330490913404A0913504B091FE
:102AE00036048093A4039093A503A093A603B09308
:102AF000A70306C09091B60398609093B603D1CF18
:102B0000CF91FF90EF90DF90CF9008955C9A00C036
:102B10005C9808950F931F9381E000913304109106
:102B20003404209135043091360440910D025091C7
:102B30000E0260910F027091100240175107620758
:102B4000730708F080E01F910F910895CF93C82F6D
:102B50000E9487298091330490913404A091350418
:102B6000B09136048C0F911DA11DB11D80930D02F3
:102B700090930E02A0930F02B0931002CF9108958C
:102B80001F93CF93DF93D82F162F4091330450918A
:102B90003404609135047091360480910D02909157
:102BA0000E02A0910F02B091100284179507A6079C
:102BB000B70718F00E948729E8CFCBB1C07F8C2FD0
:102BC000D7FD8860D6FD8460D5FD8260D4FD81602C
:102BD000D3FDC860D2FDC460D1FDC260D0FDC1602C
:102BE0008BB9112311F0449A01C044980E948615B4
:102BF000CBB9DF91CF911F910C948615CF93C82F3D
:102C000060E00E94C015C43010F487E201C082E089
:102C1000CF910C94A61561E00E94C01582E00C943F
:102C2000A6158091B8030895CF93C82F80E88C0F24
:102C30000E94FE15C093B803CF91089581E00C94D3
:102C4000FE1561E00E94C01582E00E94A6158091E9
:102C5000B8038F5F8093B8030895805D0C942116AC
:102C6000CF936AE00E94773DC92F0E942D168C2FCA
:102C7000CF910C942D16CF93DF93EC01899188238B
:102C800019F00E942116FACFDF91CF910895CF93CA
:102C9000DF93FC018491EF012196882321F00E94AB
:102CA0002116FE01F7CFDF91CF910895CF93C82F62
:102CB0008091B803C81719F08C2F0E941416C031E8
:102CC00040F48091B803803160F480E20E942116C4
:102CD000F8CF8091B803803520F480E20E9421165D
:102CE000F8CFCF91089580E70E94FE1580E00E9402
:102CF0000B1682E00E940B1686E00E940B168EE0F7
:102D00000E940B168EE10E940B168EE00E940B169D
:102D100086E00E940B1682E00E940B1680E00E9463
:102D20000B1681E00E940B1681E00E940B1685E0D5
:102D30000E940B1689E00E940B168FE10E940B1671
:102D400088E00E940B1684E00C940B160F931F93DF
:102D5000CF93DF93D62F082F10E0843640F0CCE9D4
:102D6000C80FC43638F0C8E3C80F82E004C0C82FCB
:102D700080E001C081E00436110510F00E942D169C
:102D800080E090E0CA3018F0CA500196FBCF0A30BC
:102D9000110508F4D1110E942D168C2FDF91CF91CF
:102DA0001F910F910C942D16CF93DF93D82F80E7AE
:102DB0000E94FE158EE00E940B16C6E0DC1710F094
:102DC0008FE101C081E10E940B16C150B9F78FE17C
:102DD000DF91CF910C940B16CF93DF933C9A549ACA
:102DE000509A519A529A539A80E49CE90197F1F7CC
:102DF000599A589A0E94861580E891E60197F1F752
:102E00000E948615C0E4D1E0CE010197F1F70E943F
:102E10008615CE010197F1F758980E9486152197E3
:102E2000F1F788E20E94FE1588E00E94FE150E94DC
:102E30001E1686E00E94FE158CE00E94FE1580E0C2
:102E4000DF91CF910C94D416CF9380E40E94FE15AD
:102E5000C8E080E10E940B16C150D9F7C23010F0D3
:102E600084E101C080E10E940B16CF5FC830B1F74A
:102E7000C0E0C23010F085E101C080E10E940B1675
:102E8000CF5FC830B1F780E00E940B168AE00E9445
:102E90000B168FE10E940B168FE10E940B168FE13B
:102EA0000E940B168EE00E940B1684E00E940B1607
:102EB00080E00E940B168CE00E940B1682E10E94BB
:102EC0000B168EE10E940B1682E10E940B1682E126
:102ED0000E940B1680E00E940B1680E00E940B16E9
:102EE00080E00E940B168CE10E940B1682E10E948A
:102EF0000B168CE10E940B1682E10E940B168CE1EE
:102F00000E940B1680E00E940B1680E00E940B16B8
:102F100080E0CF910C940B16611103C08BE00C94F0
:102F2000141670E061507109962F990F690F262FC2
:102F300030E0F9013296482F50E0E417F50714F419
:102F400082E00FC0681710F080E20BC02F5F3F4F88
:102F50004217530711F480E004C0E417F50719F491
:102F600081E00C9421160895FF920F931F93CF9345
:102F7000DF93F82E80E40E941416C2E0D0E00F2DFB
:102F800010E0C017D10714F482E011C08C2F8250DA
:102F90008F1510F080E20BC0CE01019708171907BA
:102FA00011F480E004C00C171D0719F481E00E94A1
:102FB00021162396C233D10521F7DF91CF911F91BE
:102FC0000F91FF90089585E085BD0E94FC340E941A
:102FD000EC160E941E160E94911A0E94E80D0E9493
:102FE000790781E00E94BF31789480E480937C006F
:102FF0008FEE80937A0081E392E00E9447168BE285
:1030000092E00E94471680E40E9414168CE192E040
:103010000E94471684E180936404809164048823AD
:1030200059F080E00E94D337809160008111FCCF7D
:10303000809164048150EFCF0E949C1C0E941E1658
:103040000E94241786EC90E00E94F83D893018F029
:103050000E949E1B03C082E08093D504912CD0E097
:10306000612CC0E0C12CD12C760100E0B12CA12C48
:103070004AE0842E77247A948091C3038B3F51F4E5
:1030800080913704682D0E94773D80FF02C0599AD5
:1030900001C059988091D504882309F451C00E9439
:1030A0001E16911009C08EE092E00E94471680E043
:1030B0000E941C300E941E167092C3038091D5049A
:1030C000813021F08091D504823019F580E00E9492
:1030D000BF319091D50481E0923009F080E00E94E8
:1030E0009C1C0E942A290E949F1381E0809348041F
:1030F0008093510480911304882321F00E94680575
:10310000B82E15C080E00E9443300E94E40DB12C1F
:103110000EC080911304882339F08091DC03811163
:1031200003C00E94BD0C02C00E94E40D04E10E9495
:103130004D0881E00E94BF311092D50499249394E8
:1031400080912602811129C080911304882329F1DE
:103150008091C3038F3F09F54091330450913404AB
:1031600060913504709136048091A4039091A50379
:10317000A091A603B091A70384179507A607B707E8
:1031800060F48091DC03882321F08091E7038111B2
:1031900004C0B11002C00E9405068091C3038F3F96
:1031A00049F480911304882329F08091DC0388235B
:1031B00009F4C2C080915303803321F080915303FE
:1031C000811176C0809153030E944B0E80911101B2
:1031D000873059F480911F02882339F00E947903C7
:1031E000882319F00E94F00402C00E9450089091B8
:1031F00011018091C303983091F59EEF980F9230A2
:1032000070F58091540390915503C80ED91EE11CAE
:10321000F11CCF5FC03411F0C11111C0C701B6015C
:1032200036E096958795779567953A95D1F747E07B
:103230000E94C436C0E0C12CD12C760139C0C13007
:1032400021F480E40E94141633C0C83088F5EC2FB6
:10325000F0E0EB59FB4F80810E94211629C08F3F7F
:1032600039F58091DF03882319F1809154039091FF
:103270005503C80ED91EE11CF11CCF5FC03111F0FF
:10328000C11116C0C701B60124E0969587957795C0
:1032900067952A95D1F72091DA033091DB0340E05E
:1032A00050E00E94973D69017A01622ED0E0C0E0B3
:1032B0008091C3038F3F09F03FC0011111C0D63088
:1032C00078F40E948A158823B9F1D53029F06D2F42
:1032D000862D0E948C1702C00E94CA0ADF5F2CC094
:1032E0008091D003811104C08091C403882321F10F
:1032F0000E948A15882399F0002389F0003158F440
:1033000011E0100FE02FF0E0EC5CFD4F80810E9497
:103310002116012F11C00E94CA0A00E00DC00E94B0
:103320008A15882349F0011107C00E949907882354
:1033300019F00E943907082F0E94872980911804EC
:10334000811103C08091700080FF0E94F8320E94BA
:10335000E231809162048F3F11F00E94FA030E94D3
:10336000F4118091630481110CC00E94D231182F96
:10337000A81641F080916604811104C00E944C336C
:1033800001C01A2D0E94D13480914104882341F05C
:103390008091D504811104C0109241040E944330F1
:1033A000809185029091860297FD0E94560B809134
:1033B000DC03882359F00E942E33882319F00E94E1
:1033C0005D0504C00E943D338111F9CF8091130443
:1033D000882359F08091DC03811107C0809180001F
:1033E00086FF03C080E00E9499310E94BC1480E0F7
:1033F0000E9441128091D604882349F180FF0FC0BA
:103400008091C3038F3F59F480911304882339F0CE
:10341000B11005C08091260281110E94FF28809181
:10342000D60481FF12C0109226028091330490913D
:103430003404A0913504B09136048093A403909392
:10344000A503A093A603B093A7031092D60480917E
:10345000E80381110E94002180918202811106C03F
:1034600080915A04811102C0A12E06CE8091820261
:10347000882319F00E94E90B02C00E94CA0A109228
:103480005A048091C3038F3F11F0D6E0EDCF0023A3
:10349000E1F38091D003811104C08091C40388239B
:1034A000A1F30E943907082FF0CF883080F490E014
:1034B000FC01EE0FFF1F8E0F9F1FFC01E258FE4F15
:1034C00080819181A281BC018A2F90E0089561E002
:1034D00070E080E090E00895CF93882389F0C82FB2
:1034E0000E94B636843269F4EDE3F2E080E0949114
:1034F000C91721F08F5F31968B30C9F78C5D01C001
:1035000080E0CF9108958A3010F4805D0895843270
:1035100010F4895C0895E82FF0E0E75EFD4F849198
:10352000089584E090E00E94003EDC01CB01BF776B
:1035300081329D4CAB45B74071F080E790E00E942E
:10354000003E673672418B4E9C4D29F088E492E034
:103550000E944716FFCF089590E00296880F991FAA
:10356000880F991F0C94003E40911404509115044B
:10357000609116047091170488E590E00C941E3E4B
:103580004091E2035091E3036091E4037091E503FD
:1035900084E590E00C941E3E6091120483E090E07C
:1035A0000E94103E4091E9035091EA036091EB03C1
:1035B0007091EC038CE790E00E941E3E4091C503A1
:1035C0005091C6036091C7037091C80380E890E0F2
:1035D0000E941E3E6091100184E890E00E94103E1F
:1035E00060910C0485E890E00E94103E4091D10368
:1035F0005091D20360E070E088E490E00E941E3EAB
:1036000040910E0450E060E070E08CE590E00E9494
:103610001E3E4091FC035091FD036091FE037091AA
:10362000FF0380EC90E00C941E3E83E090E00E944B
:10363000F83D809312048CE790E00E94003E609376
:10364000E9037093EA038093EB039093EC0380E823
:1036500090E00E94003E6093C5037093C603809380
:10366000C7039093C80384E890E00E94F83D8093DC
:10367000100188E490E00E94003E7093D2036093B2
:10368000D10385E890E00E94F83D80930C048CE51E
:1036900090E00E94003E60930E0480EC90E00E9457
:1036A000003E6093FC037093FD038093FE039093B0
:1036B000FF030895CF92DF92EF92FF92CF93DF93B3
:1036C000E091BD03F0E0EE0FFF1FED57FD4F259198
:1036D0003491A8EEB3E00E94BF3D6B017C01C8E0CD
:1036E000D0E0B701A601CE010E941E3E2496C83448
:1036F000D105B9F7B701A6018CE790E00E941E3E04
:10370000B701A60180E890E00E941E3EB701A60125
:1037100084E790E00E941E3EB701A60184EA90E093
:103720000E941E3EB701A60180EC90E0DF91CF9190
:10373000FF90EF90DF90CF900C941E3E8BEF809324
:10374000C3030E941E1688E692E00E94471610925C
:1037500067040E94FD0C1092D5040895CF93DF9367
:10376000EC010E941E16CE010E944716C0E0D0E078
:1037700060E0CE010E94103E2196C11584E0D8077A
:10378000B9F747E652E16BEE7CED80E790E00E94EE
:103790001E3E4CEB52E060E070E080E590E00E945D
:1037A0001E3E40E65CE06CE971E084E590E00E943A
:1037B0001E3E40E05DE261E371E088E590E00E943A
:1037C0001E3E4CE050E060E070E08CE590E00E942E
:1037D0001E3E44EF51E060E070E08CE690E00E9415
:1037E0001E3E4CEB52E060E070E084EB90E00E9403
:1037F0001E3E43E650E060E070E088E790E00E9403
:103800001E3E45E250E060E070E088E690E00E94F5
:103810001E3E40E050E860E070E088E490E00E94E6
:103820001E3E66E084E890E00E94103E67E085E876
:1038300090E00E94103E61E08CE990E00E94103E12
:1038400061E08DE990E00E94103E61E08EE990E039
:103850000E94103E4CEB52E060E070E088EA90E09D
:103860000E941E3E48E552E060E070E08CEA90E085
:103870000E941E3E40E253E060E070E080EB90E08A
:103880000E941E3E40EE5EE260E070E088EB90E059
:103890000E941E3E48EE53E060E070E08CEB90E04A
:1038A0000E941E3E4CE251E060E070E080EA90E051
:1038B0000E941E3E4AE050E060E070E080E990E047
:1038C0000E941E3E47E050E060E070E084E990E036
:1038D0000E941E3E4CE350E060E070E088E990E01A
:1038E0000E941E3E44E650E060E070E08CE890E00C
:1038F0000E941E3E6FEF86EC90E00E94103E43E275
:103900005DEC6BE577E084E090E0DF91CF910C9483
:103910001E3E84E090E00E94003EDC01CB01BF77B8
:1039200083329D4CAB45B74031F085E792E00E9471
:10393000AE1B0C941E160895CF93DF93C82F0E94E0
:10394000891CC1110E94151B84E590E00E94003E75
:103950006093E2037093E3038093E4039093E503A1
:1039600088E590E00E94003E609314047093150473
:1039700080931604909317048FE490E00E94F83D22
:103980008093DE0380E590E00E94003E6093040493
:1039900070930504809306049093070481E090E0FF
:1039A0000E94F83D8093F50382E090E00E94F83D8C
:1039B0008093CB038EE490E00E94F83D8093B9039E
:1039C0008CE690E00E94003EEB017093110460933E
:1039D00010048CE490E00E94F83D809313048DE481
:1039E00090E00E94F83D8093210480E690E00E94E0
:1039F000003E6093FB0384E690E00E94003E6093EB
:103A0000D30388E690E00E94003E6093D90384E7E8
:103A100090E00E94003E6093080470930904809334
:103A20000A0490930B0486E890E00E94F83D80938E
:103A3000BA0387E890E00E94F83D8093E0038FE9A5
:103A400090E00E94F83D80930D0488EB90E00E9486
:103A5000003E70930104609300048CEB90E00E94A0
:103A6000003E70931E0460931D0480EA90E00E9463
:103A7000003E7093F9036093F80380E990E00E94A0
:103A8000003E6093E10384E990E00E94003E609371
:103A9000CD0388E990E00E94003E60931A048CE90F
:103AA00090E00E94F83D8093D0038DE990E00E9461
:103AB000F83D8093C4038EE990E00E94F83D809326
:103AC000BB0384EC90E00E94F83D8093DD0385EC1D
:103AD00090E00E94F83D8093DF038CE890E00E9424
:103AE000003E7093DB036093DA0387EC90E00E9462
:103AF000F83D8093030486EC90E00E94F83D8093AB
:103B0000BD03E29730F482E390E090931104809338
:103B100010048091100490911104873B934030F081
:103B200086EB93E0909311048093100489E08093D6
:103B3000810084EB90E00E94003E6E3581E07807C2
:103B400010F46EE571E09B0140E050E060911404D8
:103B50007091150480911604909117040E94973D6E
:103B6000309389002093880080918800909189008B
:103B70009695879590938B0080938A0088E790E0D4
:103B80000E94003E83E6861B8823A9F020918A00CC
:103B900030918B0040918A0050918B0094E05695B3
:103BA00047959A95E1F7241B350B30938B002093B2
:103BB0008A008150E9CF80910D0481111092380460
:103BC000DF91CF910895E0911101EB3028F4F0E0FE
:103BD000ED58FE4F8081089580E00895E091C30381
:103BE0008E2F90E08A30910520F5FC01EA5BFF4FB3
:103BF0000C94B93D87ED95E01AC08EEC95E017C0A6
:103C00008AEC95E014C084EC95E011C08CEB95E053
:103C10000EC085EB95E00BC08FEA95E008C085EA01
:103C200095E005C086E995E002C087E895E00C9430
:103C30004716089580911101853029F481E0909113
:103C4000C303983009F080E00895CF92DF92EF929D
:103C5000FF920F931F938091C9039091CA030E9412
:103C6000003E20911101223059F52091C3032430E8
:103C700039F5611520E872078105910588F400E0A7
:103C800010E820E030E068017901C61AD70AE80A96
:103C9000F90AC701B60147E00E94C4368DE207C0A9
:103CA00070588109910947E00E94C4368BE28093E5
:103CB00067041F910F91FF90EF90DF90CF900895D0
:103CC0004091E6031F910F91FF90EF90DF90CF900E
:103CD0000C94C436EF92FF920F931F93CF93DF9310
:103CE0008C01EB017A010E941A1E882311F1809148
:103CF0002E042AE0622F0E94773D805D8093670446
:103D0000905D909368048AE38093690480913904FC
:103D10000E94773D805D80936A04905D90936B0470
:103D200010926C0486E08093E60382E08093BC03EB
:103D30002DC08091C30390E0F701E80FF91F249193
:103D40002093BC03FE01E80FF91FC491C093E60362
:103D5000880F991FD801A80FB91F8D919C9190933E
:103D6000CA038093C903223019F40E94251E0EC095
:103D7000213041F44C2F50E0BC0187E694E00E94D2
:103D8000E83D04C00E94F83D80936704DF91CF9125
:103D90001F910F91FF90EF900C94700D8FE795E0BD
:103DA0000E9447168091C30360E08F5F0E94A616B1
:103DB00082E08093BC038BE08093E6038091C30391
:103DC00090E00296880F991F880F991F9093CA035D
:103DD0008093C9030E94003E4BE00E94C4360C94BD
:103DE000700D843010F082E3089584E608958430E5
:103DF00010F042E301C044E64093E603843038F417
:103E000024E6829FC001112488539F4F0BC090E08D
:103E1000049752E3589F9001599F300D1124C90116
:103E2000885A9D4F9093CA038093C90350E06091D4
:103E3000C9037091CA0387E694E00C94E83D809131
:103E4000C3038C3099F48DE695E00E94471682E01A
:103E50008093BC0383E08093E60388E890E090932E
:103E6000CA038093C9030E94251E27C08D30A1F488
:103E700085E695E00E9447161092BC0381E080938E
:103E8000E60386E890E09093CA038093C9030E94FA
:103E9000F83D8093670411C086E795E00E944716BD
:103EA0008091C30360E08F5F0E94A61681E080933B
:103EB000BC038091C3030E94F71E0C94700DE09127
:103EC000C3038E2F90E08930910508F5FC01E05B7B
:103ED000FF4F0C94B93D8CE595E017C086E595E061
:103EE00014C080E595E011C086E495E00EC082E440
:103EF00095E00BC089E395E008C081E395E005C03B
:103F000087E295E002C082E295E00E9447164FEDFD
:103F100052E068EE72E080EE91E00C946A1EE0914F
:103F2000C3038E2F90E08930910508F5FC01E75A14
:103F3000FF4F0C94B93D87E195E017C08BE095E009
:103F400014C080E095E011C084EE94E00EC083EFD1
:103F500094E00BC088EE94E008C08BED94E005C0BF
:103F60008EEC94E002C081EC94E00E9447164DEC88
:103F700052E066ED72E08EEC91E00C946A1E809146
:103F8000C303823099F038F4882369F08130C1F49A
:103F90008AEA94E013C0843079F058F0853081F4D7
:103FA0008FE794E00BC085EB94E008C08FE994E0C4
:103FB00005C085E994E002C08BE894E00E944716B2
:103FC00041EC52E067EC72E082EC91E00C946A1EE6
:103FD00090E08930910508F5FC01EE59FF4F0C94F3
:103FE000B93D88E794E017C083E794E014C089E600
:103FF00094E011C083E694E00EC08DE594E00BC020
:1040000083E594E008C088E494E005C08BE394E085
:1040100002C082E394E00C94471608958091C30394
:104020000E94E81F41EB52E069EB72E082EB91E005
:104030000C946A1EE091C3038E2F90E088309105A6
:10404000F0F4FC01E559FF4F0C94B93D87E294E090
:1040500014C08CE194E011C081E194E00EC086E0D0
:1040600094E00BC089EF93E008C08CEE93E005C0AC
:104070008FED93E002C082ED93E00E94471680919D
:10408000C303873099F480E40E94141683EC93E014
:104090000E94471682E08093BC0383E08093E6038E
:1040A00043E060E070E0CB010C94C43641EA52E09A
:1040B00069EA72E082EA91E00C946A1EE091C3031F
:1040C0008E2F90E08D30910568F5FC01ED58FF4F83
:1040D0000C94B93D89EB93E023C08DEA93E020C0B6
:1040E00080EA93E01DC083E993E01AC08BE893E077
:1040F00017C080E893E014C087E793E011C08FE613
:1041000093E00EC086E693E00BC08DE593E008C017
:1041100081E593E005C085E493E002C08CE393E081
:104120000E94471680911F02882349F08091C303A3
:10413000863018F40E94E20302C00E94810380913D
:10414000C303863040F445E952E06BE972E086E94A
:1041500091E00C946A1E80911F02811107C080E4D7
:104160000E9414168EE293E00C9447160895CF92A5
:10417000DF92EF92FF92CF93C1E0C0931804C090FA
:104180001404D0901504E0901604F0901704C701B1
:10419000B60120E03AE040E050E00E94973D3093C5
:1041A000CF032093CE03C701B6012AE030E040E000
:1041B00050E00E94973D209320042093B30010927A
:1041C000ED0310928500109284001092E803EAE754
:1041D000F0E08081877F8083C0936F001092810020
:1041E000C093B1001092B2008FEF9FEF90931C0428
:1041F00080931B04CF91FF90EF90DF90CF900895B4
:1042000080E40E9414162091D5033091D60340918A
:10421000D7035091D803AAE0B0E00E94D53D4AE010
:104220000E94C436E7E6F4E08EE2818386818583CE
:10423000878186831782CF010E943B1683E692E036
:104240000E9447160C94B72010926F00EAE7F0E046
:104250008081886080831092180408958FEF0E94F7
:1042600081358091C3038230B1F028F4882349F06E
:10427000813051F008958430A9F080F08530C1F08C
:10428000089586E293E002C08DE193E00E94471614
:1042900010923804089582E193E002C087E093E031
:1042A0000C9447168DEF92E00E9447160C94B720AD
:1042B00081EF92E00E94471682E08093BC0380EC7D
:1042C00090E09093CA038093C9038CE08093E60347
:1042D0000E94251E0C94700D0E941E1680911101E3
:1042E0008A3031F08F5F0E942D168EE20E942116D7
:1042F000909111018091C3039A3011F4893039F003
:1043000060E08F5F0E94A61680E20E942116E09175
:1043100011018E2F90E08B309105C8F4FC01E0581C
:10432000FF4F0C94B93D0C94EE1D0C94CE1E0C94D2
:104330001F1F0C945F1F0C948F1F0C94BF1F0C94B5
:104340000E200C941A200C945E200C942E210895BB
:10435000E0918302F0918402E959FB4F80818B3216
:1043600011F48DE201C08BE2808308958091BC033B
:104370008330E1F080911101823029F49091C303E0
:10438000963059F413C08330A9F49091C303992354
:1043900049F181E09530A9F425C0992319F19330B2
:1043A00039F0953029F0983061F402C081E0089529
:1043B00088E00895853039F481E09091C30391300D
:1043C00089F080E00895813031F48091C3038D300D
:1043D000C1F783E608958630A1F781E09091C30389
:1043E000943079F7089580911101883059F48091C3
:1043F000C303833019F48FEF0C948135843011F4AA
:104400000C942421089587E694E00E948E376093EF
:10441000FC037093FD038093FE039093FF0382E0FF
:104420000C944330CF92DF92EF92FF920F931F9341
:10443000CF93DF93E82E082F10E0E801C959DB4F36
:104440008881893341F50E941A1E811122C0E11032
:1044500002C0F12C24C0FF24FA94FE0CCF2CD12CE6
:10446000FF2051F0F601E959FB4F80810E947F3710
:10447000811102C0FA94F2CFF601E959FB4F808115
:104480000E947F37882329F38F2D0E9412228823D0
:1044900001F380E301C08F5F8883FF24F394809150
:1044A0008302909184020817190779F00E9411166F
:1044B00090E0005C1F4F8017910721F080E48E0D83
:1044C0000E94141688810E9421168F2DDF91CF91B2
:1044D0001F910F91FF90EF90DF90CF900895CF92B2
:1044E000DF92EF92FF920F931F93CF93DF93E82E0B
:1044F000082F10E0E801C959DB4F8881803341F56E
:104500000E941A1E811122C0E11002C0F12C24C0A9
:10451000FF24FA94FE0CCF2CD12CFF2051F0F60191
:10452000E959FB4F80810E947F37811102C0FA94C4
:10453000F2CFF601E959FB4F80810E947F37882333
:1045400029F38F2D0E946F22882301F389E301C094
:1045500081508883FF24F394809183029091840298
:104560000817190779F00E94111690E0005C1F4FA0
:104570008017910721F080E48E0D0E941416888127
:104580000E9421168F2DDF91CF911F910F91FF90E7
:10459000EF90DF90CF90089580916704811102C061
:1045A00084E007C09091C303843040F4933021F439
:1045B00087E080936704089588E0FBCF933011F47F
:1045C000883071F30895CF93DF9380911904882385
:1045D00009F4A3C080E00E94B00A8091BC0381303E
:1045E00009F477C028F08230E1F0833009F090C000
:1045F00080916704811103C00E94B62101C08150DF
:104600008093670480911101823041F48091C3034B
:10461000853011F0833011F40E94CC220E94700D7D
:1046200077C080911101823069F48091C303843096
:1046300049F48091830290918402892B19F40E949D
:10464000A82104C0809183020E946F220E941A1E3A
:104650008823C9F080916704893319F482E3809339
:10466000670480916704823339F48091680484334D
:1046700018F083E38093680480916A04893319F405
:1046800085E380936A040E94111640918302509141
:104690008402282F30E0CA01805C9F4F2817390719
:1046A00021F080E4840F0E941416E0918302F091BF
:1046B0008402E959FB4F80810E94211680911101EB
:1046C000883031F58091C303853011F50E940322B3
:1046D0001FC0E0918302F0918402E959FB4F808171
:1046E0000E946C1A811101C08FE2C0918302D091A7
:1046F000840281500E94831AC959DB4F8883E0915C
:104700008302F0918402E959FB4F80810E942116B7
:1047100081E0DF91CF910C94B00A0E94E31D90914B
:10472000C303981798F40E94F3218091C303811169
:1047300004C00E94E31D8093C3038091C303815092
:104740008093C303DF91CF910C946C21DF91CF91C3
:104750000895CF93DF9380911904882309F4A4C0AE
:1047600080E00E94B00A8091BC03813009F478C0D7
:1047700028F08230E9F0833009F091C0C0916704DD
:10478000CF5FC09367040E94B6218C1710F410927B
:10479000670480911101823041F48091C303853018
:1047A00011F0833011F40E94CC220E94700D77C06A
:1047B00080911101823069F48091C303843049F4FF
:1047C0008091830290918402892B19F40E94A82180
:1047D00004C0809183020E9412220E941A1E882324
:1047E000C9F080916704833319F480E380936704F0
:1047F00080916704823339F480916804843318F01F
:1048000080E38093680480916A04863319F480E31E
:1048100080936A040E941116409183025091840291
:10482000282F30E0CA01805C9F4F2817390721F0FC
:1048300080E4840F0E941416E0918302F0918402B8
:10484000E959FB4F80810E94211680911101883027
:1048500031F58091C303853011F50E9403221FC0FA
:10486000E0918302F0918402E959FB4F80810E941C
:104870006C1A8F5F8F3208F080E0C0918302D09174
:1048800084020E94831AC959DB4F8883E091830216
:10489000F0918402E959FB4F80810E94211681E04A
:1048A000DF91CF910C94B00A80E00E94B00A0E9480
:1048B000F321C091C303CF5FC093C3030E94E31DE4
:1048C000C81710F01092C303DF91CF910C946C21A4
:1048D000CF93DF938091BC03813009F07AC080913F
:1048E000830290918402FC01E959FB4F20812F370C
:1048F00059F521E0280F3091E603231748F4A22F41
:10490000B0E0A959BB4F4C9111974C932F5FF5CF55
:10491000009799F02081211110C001979093840293
:10492000809383028091800290918102009729F008
:1049300001979093810280938002E0918302F0912D
:104940008402E959FB4F1DC02E37F9F4209102046F
:104950002083A091E6034FEF4A0F242F30E0821707
:10496000930748F429593B4FE90121975881E90100
:1049700058834150F2CF80E28083B0E0AA59BB4F08
:104980001C9280818093020422C02630A1F41092F0
:10499000840210928302109281021092800210927F
:1049A00067041092020480E40E9414160E941116FB
:1049B0000E9456160CC0273061F480910204808357
:1049C0008091E60390E0909384028093830281E0DB
:1049D00001C080E0DF91CF910895CF92DF92EF92F6
:1049E000FF920F931F938091BC03813081F4E0917B
:1049F0008302F0918402E959FB4F808192E8980F7D
:104A0000923018F08650823010F40E946824109280
:104A100084021092830210928102109280021092FE
:104A200019040E94241780E00E94B00A0E94700DB1
:104A30000E941A1E8823E1F060916A04660F605696
:104A4000862F880F880F680F80916B048053680F42
:104A500080916704880F8056982F990F990F890FBE
:104A600090916804905340E0890F0E947F2961C0B3
:104A70002091BC03223009F049C08091110182309D
:104A8000F9F48091C3038430D9F488E694E00E945D
:104A90008E37209167042D3269F400E010E820E0A1
:104AA00030E068017901C61AD70AE80AF90AB701A5
:104AB000A6010CC0AB01BC0150586F4F7F4F06C020
:104AC00087E694E00E948E37AB01BC012091110172
:104AD0002630A9F42091C303273089F441315105D0
:104AE00061057105D1F589E592E00E94AE1B1F9129
:104AF0000F91FF90EF90DF90CF900C949E1B8091D0
:104B0000C9039091CA030E941E3E13C08091C9033D
:104B10009091CA03213049F44091E60350E0BC0172
:104B200087E694E00E94063E04C0609167040E94FC
:104B3000103E84E090E00E94003E97FD0EC043E2EC
:104B40005DEC6BE577E884E090E01F910F91FF90BA
:104B5000EF90DF90CF900C941E3E1F910F91FF902D
:104B6000EF90DF90CF9008950E946824811149C092
:104B70002091BC038091830290918402213041F402
:104B8000FC01E959FB4F2081211102C020E2208362
:104B90000097E1F4E0918302F0918402E959FB4F20
:104BA0008081809302042DC08091830290918402C1
:104BB0000097A9F0FC01E959FB4F80810E947F37E3
:104BC00081110DC08091830290918402019790938E
:104BD0008402809383028091BC03823029F3209168
:104BE0008302309184028091800290918102281783
:104BF000390710F40197FBCF9093810280938002D4
:104C0000C9CF0E94700D81E00C94B00ACF93C82FD9
:104C10000E946824811144C02091BC0380918302CA
:104C2000909184022130C1F4FC01E959FB4F2081AD
:104C3000211112C020E220830FC0E0918302F09185
:104C40008402E959FB4F80810E947F3781110DC09A
:104C500080918302909184020196909384028093C4
:104C600083028091BC03823041F380918302909152
:104C700084022091800230918102AC01421B530BCF
:104C80004031510518F02F5F3F4FF7CF309381022D
:104C900020938002FC01E959FB4F8081809302043C
:104CA0008091E60390E0AC014150510920918302CC
:104CB000309184022417350750F0CC2319F0CF919E
:104CC0000C94ED2402979093840280938302809148
:104CD000BC039FEF980F923080F4E0918302F09133
:104CE0008402E959FB4F9081911107C0823011F481
:104CF00080E301C080E280830AC08091FA038823A8
:104D000039F0E0918302F0918402E959FB4F11825E
:104D10000E94700D81E0CF910C94B00A80E40E9453
:104D2000141683E50E94211680E20E9421168091CC
:104D3000CC03893048F480E20E9421168091CC0394
:104D40008F5F0E942D1605C08091CC038F5F0E945B
:104D5000301680E20E9421168091CC030E94AC1A8A
:104D60000E942C0B80E20E9421168CE40C942116E8
:104D70001F93CF93DF9380E40E94141680911F0449
:104D800060E08F5F0E94A6168EE20E94211680E2EC
:104D90000E94211680911F040E94F71EC7E6D4E0EE
:104DA0001991111107C00E941116DF91CF911F9127
:104DB0000C9456160E9411168035A8F7812F0E9478
:104DC0002116EECF20910C04283078F430E0F90160
:104DD000EE0FFF1F2E0F3F1FF901E258FE4F2081FB
:104DE00031814281642FA90104C041E050E060E0BC
:104DF00070E02091D1033091D203882339F0420F23
:104E0000531F403187EA580768F408C0C901841B62
:104E1000950BAC01413F98E5590720F05093D20320
:104E20004093D1030E940D0B81E0809341040895CB
:104E300090910E04882321F0933638F49F5F03C0CD
:104E4000923018F0915090930E040E941C0B0C9419
:104E50009F1390916704882331F09F5F993050F041
:104E60001092670409C0911104C088E08093670420
:104E700003C09150909367040C94FD0C882361F05B
:104E80008091CC038F5F8093CC038091CC038031E1
:104E900071F41092CC030BC08091CC03882321F0D5
:104EA0008091CC03815001C08FE08093CC030C949F
:104EB0008E26882361F080911F048F5F80931F04EA
:104EC00080911F048C3071F410921F040BC08091EC
:104ED0001F04882321F080911F04815001C08BE0C2
:104EE00080931F040C94B82680911204813059F4E9
:104EF0008091CC034091C5035091C6036091C703D4
:104F00007091C8030AC08091CC034091E90350918D
:104F1000EA036091EB037091EC0390E00296880F36
:104F2000991F880F991F0C941E3E809112048130A6
:104F300069F48091CC030E94AC1A6093C50370930E
:104F4000C6038093C7039093C8030CC08091CC0321
:104F50000E94AC1A6093E9037093EA038093EB0319
:104F60009093EC0381E08093480480E00C944330FC
:104F70000E94F32180911904882319F00E94ED24E6
:104F800014C0809111018A3051F08093C3038AE0EC
:104F9000809311010E946C210E94E20306C081E00F
:104FA0008093D5048EE18093630480E00E94B31265
:104FB00080E00C94C53180911904882319F081E0B8
:104FC0000C940626809111018A3071F48091C303FC
:104FD000893021F40E94CC1A0C94B82780931101D7
:104FE0001092C3030C946C21873051F48091C30359
:104FF000863068F080911F0281114CC00C948103AF
:10500000883029F48091C303853009F043C0809132
:10501000BC03813039F490916704911103C08093EF
:10502000FA0304C01092FA03813011F40E9473163F
:105030008091BC03823051F48091E603833031F4D7
:1050400081E090E0909384028093830281E08093DA
:10505000190480E48093D40380911101883059F4BD
:105060008091C303853099F480E00E94BF3182E0D3
:105070000E9443300CC0863051F48091C3038730C6
:1050800031F40E94700D0E9411160E94561681E0A4
:105090000C94B00A08951F920F920FB60F9211242C
:1050A0008F938091ED038F5F8093ED038F910F902D
:1050B0000FBE0F901F9018951F920F920FB60F9270
:1050C00011242F933F934F935F936F937F938F930D
:1050D0009F93AF93BF93EF93FF938091180488231E
:1050E000F9F080911B0490911C04019690931C048C
:1050F00080931B04892B19F487E080938100209111
:105100001B0430911C048091CE039091CF0328178B
:10511000390741F48091700082608093700002C072
:105120000E94F832FF91EF91BF91AF919F918F91C3
:105130007F916F915F914F913F912F910F900FBE93
:105140000F901F9018951F920F920FB60F92112477
:105150002F933F938F939F93AF93BF9380911804A6
:10516000882341F180911B0490911C040196909337
:105170001C0480931B04892B11F010928100209154
:105180008400309185008091ED0390E0A0E0B0E0D4
:10519000DC0199278827820F931FA11DB11D8093E1
:1051A000D5039093D603A093D703B093D80381E09F
:1051B0008093E803809170008D7F80937000BF9191
:1051C000AF919F918F913F912F910F900FBE0F90B4
:1051D0001F9018959091D303209139043091FB03CF
:1051E000892F281710F0830FFCCF809328048C336D
:1051F00010F09093280481E080932602089580E4C3
:105200000E94141680912E040E9430168AE30E9498
:105210002116809139040E9430168AE30E942116DB
:1052200080912D040E94301680E20E94211680E2B7
:105230000E9421168CE30E94211680E20E94211612
:10524000809128040E94301680E20E94211680E29C
:105250000C942116CF92DF92EF92FF92CF93DF93BF
:1052600016BC10923304109234041092350410923C
:105270003604609114047091150480911604909185
:1052800017046B017C012AE0F694E794D794C79445
:105290002A95D1F7C0922904D0922A04E0922B04D7
:1052A000F0922C04EB01D370D0933B04C0933A04EA
:1052B000C0922F04D0923004E0923104F092320474
:1052C00020E038EC40E050E00E94973DC20ED31E33
:1052D000E41EF51EC0922204D0922304E09224041E
:1052E000F0922504D0932704C093260487E2DF912F
:1052F000CF91FF90EF90DF90CF900C94A615609324
:10530000390480932E0440932D040C942A298F9203
:105310009F92AF92BF92CF92DF92EF92FF92CF9384
:10532000DF9396B580911102811123C097FF38C099
:1053300081E08093110280913804882369F0809184
:105340001101883049F48091C303823028F48091A0
:10535000380481508093380480916304882319F0C5
:10536000815080936304809137048F5F809337046A
:1053700017C097FD15C0109211024091330450914F
:10538000340460913504709136045F5F6F4F7F4F36
:10539000409333045093340460933504709336047F
:1053A000C0903304D0903404E0903504F09036047B
:1053B000CC24C90ED11CE11CF11CC0923304D09244
:1053C0003404E0923504F0923604809122049091E6
:1053D0002304A0912404B09125040097A105B105F0
:1053E00009F4B6C08C159D05AE05BF0508F0B0C028
:1053F000109237046091290470912A0480912B0443
:1054000090912C04C0912604D091270420913A0455
:1054100030913B04C20FD31F80902F049090300432
:10542000A0903104B0903204860E971EA81EB91EBB
:105430009E01232F332726952695820E931EA11CAD
:10544000B11C80922F0490923004A0923104B0924B
:10545000320422E330E040E050E00E94973DDA0160
:10546000C901880D991DAA1DBB1D8093220490932C
:105470002304A0932404B0932504D370D09327046D
:10548000C093260481E088169104A1048FEFB8062A
:10549000B0F08091A4039091A503A091A603B091D0
:1054A000A7038C199D09AE09BF098093A4039093AB
:1054B000A503A093A603B093A7030E942A29809175
:1054C000E703882319F081508093E7038091380423
:1054D000882329F08091380481508093380480918A
:1054E0002D048F5F8C3319F080932D0416C0109219
:1054F0002D04809139048F5F8C3319F08093390427
:105500000CC01092390480912E048F5F883119F0FD
:1055100080932E0402C010922E048091D604982FFE
:1055200091609093D6042091390490912804291316
:105530000FC090912602992359F09091210499234C
:1055400021F090912D04992319F083608093D60463
:10555000DF91CF91FF90EF90DF90CF90BF90AF9011
:105560009F908F900895CF93DF93D82FC62F80EC14
:105570000E942D038D2F0E943F03811109C08C2FA3
:105580000E943F03811106C00E94370380E003C0E0
:1055900083E001C084E0DF91CF9108954F925F9244
:1055A0006F927F928F929F92AF92BF92CF92DF9233
:1055B000EF92FF920F931F93CF93C82F462E670150
:1055C000780149015A0187E0880C991CAA1CBB1C70
:1055D0008A95D1F7C501B401A70196010E94973DB4
:1055E000CA01B901512C612C712C27E0440C551CC7
:1055F000661C771C2A95D1F722E0521A61087108BF
:10560000460E571E681E791EA70196010E94673D2F
:10561000861A970AA80AB90A6D2D8C2F0E94B32A00
:105620006C2D81E08C0F0E94B32AD301C201882720
:105630009927A370BB27BD018827992782E08C0F8B
:105640000E94B32A652D83E08C0F0E94B32A642D3B
:1056500084E08C0F0E94B32ACC24DD248FE0E82262
:10566000FF244CE0F694E794D794C7944A95D1F779
:10567000D501C40188279927AF70BB276C2D6A2BF1
:1056800085E08C0F0E94B32A692D86E08C0F0E9462
:10569000B32A682D87E08C0FCF911F910F91FF9057
:1056A000EF90DF90CF90BF90AF909F908F907F90C2
:1056B0006F905F904F900C94B32ACF92DF92EF924D
:1056C000FF920F93CF93DF93C82FD22F44505109ED
:1056D00061097E4F6A017B0187E0CC0CDD1CEE1C6A
:1056E000FF1C8A95D1F760E08C2F0E94B32A61E0FD
:1056F00081E08C0F0E94B32AD701C6018827992721
:10570000A370BB276D2F602B6A2B82E08C0F0E9449
:10571000B32A6D2D83E08C0F0E94B32A6C2D84E098
:105720008C0F0E94B32A60E085E08C0F0E94B32AA0
:1057300060E086E08C0F0E94B32A60E087E08C0F67
:10574000DF91CF910F91FF90EF90DF90CF900C946D
:10575000B32ACF93C82F0E94180360E88C2F0E94B1
:10576000B32ACF910C941D03CF93C82F0E94180326
:10577000CC2371F060E28CE30E94B32A60E48BEBEF
:105780000E94B32A63E482E10E94B32A60E008C069
:1057900060E08BEB0E94B32A82E10E94A92B64E0B7
:1057A00083E00E94B32ACF910C941D03EF92FF92E5
:1057B0000F931F93CF93C82F0E9418038091470423
:1057C0008C17A8F5409140042C2F30E090E0442342
:1057D000C9F08901081B190BC801092E000CAA0B7E
:1057E000BB0B40914D0450914E0460914F04709159
:1057F00050048A019B01081B190B2A0B3B0BD90192
:10580000C80130C0A901481B590BCA01092E000C60
:10581000AA0BBB0B40914304509144046091450492
:1058200070914604840F951FA61FB71F34C0C81778
:10583000D8F5409140042C2F30E090E0821B930B70
:10584000092E000CAA0BBB0B4423A9F040914D0478
:1058500050914E0460914F0470915004840F951F35
:10586000A61FB71F80934D0490934E04A0934F043E
:10587000B093500428C04091430450914404609177
:105880004504709146048A019B01081B190B2A0BE1
:105890003B0BD901C8018093430490934404A09327
:1058A0004504B09346040FC08C130DC06FE682E12F
:1058B0000E94B32AC0934704CF911F910F91FF908C
:1058C000EF900C941D03E0904D04F0904E04009175
:1058D0004F041091500420914304309144044091AE
:1058E0004504509146046091420482E20E94CE2A0F
:1058F000DDCFCF92DF92EF92FF929B01AC016091DE
:105900003C0470913D0480913E0490913F040E94BC
:10591000673D6093520470935304809354049093B2
:105920005504C090E203D090E303E090E403F090CC
:10593000E503A70196010E94973D20934204462F5C
:10594000572FBC018FEF9FEFAFE0B0E080934D0485
:1059500090934E04A0934F04B093500424E180E050
:1059600090E0DC01440F551F661F771F880F991FB9
:10597000AA1FBB1F4C155D056E057F0528F04C194D
:105980005D096E097F098160215061F780934304AE
:1059900090934404A0934504B0934604FF90EF9085
:1059A000DF90CF9008954F925F926F927F928F9287
:1059B0009F92AF92BF92CF92DF92EF92FF920F939E
:1059C0001F93CF93DF93CDB7DEB728970FB6F89428
:1059D000DEBF0FBECDBF29013A01F50120913C0485
:1059E00030913D0440913E0450913F04D6010E9405
:1059F000D53D4B015C01CF01A0E0B0E089839A83E3
:105A0000AB83BC83C801B701A50194010E94973DF7
:105A10002D833E834F8358879B01AC0169817A8136
:105A20008B819C810E94673DA50194010E94973D56
:105A300049015A012D813E814F81588569817A81C2
:105A40008B819C810E94673D95018401060F171F81
:105A5000281F391F00934D0410934E0420934F04C8
:105A60003093500485E140E050E0BA0176956795A7
:105A70005795479540FE04C0400F511F621F731F8A
:105A80007694679457944794815081F740934304E8
:105A900050934404609345047093460441155105A6
:105AA0006041710538F481E001151105204131058F
:105AB00008F080E028960FB6F894DEBF0FBECDBF89
:105AC000DF91CF911F910F91FF90EF90DF90CF90DA
:105AD000BF90AF909F908F907F906F905F904F900E
