:100000000C94E8020C9405030C9405030C94021262
:100010000C9436350C9405030C9407350C947C280D
:100020000C94F6300C9435280C9405030C940503BD
:100030000C94F4340C9424280C9405030C940503BC
:100040000C9405030C9405030C9405030C94050310
:100050000C9405030C947D350C9405030C94050356
:100060000C9405030C940503020D040D060D080DF8
:100070000A0D0C0D0E0D100D120D390D3C0D3F0D1E
:10008000420D450D480D4B0D4E0D510DD31DD61D86
:10009000D91DDC1DDF1DE21DE51DE81DEB1DEE1D5C
:1000A000441F471F4A1F4D1F501F531F561F591FE4
:1000B0005C1F741F771F7A1F801F831F7D1F861F81
:1000C000891F8C1FCA1FCD1FD01FD31FD61FD91F3A
:1000D000DF1FDC1FE21FFF1F0220052008200B206E
:1000E0000E20112014204320462049204C204F2070
:1000F0005220552058205B205E206120642067201C
:100100006E21702172217421762178217A217C213F
:100110007E2180216C21C12EC12EC12ED52FC72E4C
:10012000CD2ED32ED92EDF2E05A84CCDB2D44EB96C
:100130003836A9020C50B9918688083CA6AAAA2A8A
:10014000BE000000803F20446F6E65210065727222
:100150006F723A00416420696E66696E6974756DEC
:1001600000426C696E6B00556E6465726C696E65F9
:100170000043572D520043570031202020487A0079
:1001800031302020487A0031303020487A00353034
:100190003020487A00312020206B487A003130200E
:1001A000206B487A00313030206B487A00312020B3
:1001B000204D487A00313020204D487A0053706C31
:1001C00069740053706565642000524954200053DF
:1001D000656D690046756C6C00575350520043576B
:1001E000004F4646004F4E2000556C74696D617497
:1001F00069630049414D42494320420049414D4213
:100200004943204100537472616967687400312E5C
:1002100030306400515250204C6162732C203230D7
:100220003137003557204357205463767220002021
:100230002F7C3F2E2C7E7F06DB07557365206F7267
:100240006967696E616C204943210052657365746A
:100250002E2E2E2000204D487A0053656C65637465
:100260002062616E643A0053657474696E6720752C
:10027000702E2E2E00C00DED146C1B8827C436C8BE
:10028000461C524E61746D0202020202020B04040B
:10029000040B0B0203020200030200040107060123
:1002A000010400030002020201010201010B030329
:1002B0000705030202020303030303030101010014
:1002C000020302030003020201030104010101040D
:1002D00003000202000200000200010B0B010701F3
:1002E0000106015369676E616C2067656E2E0046DA
:1002F00072657175656E637900417564696F20433D
:10030000682E3200417564696F2043682E310052B7
:100310004620506F77657200566F6C746167650098
:1003200050726573732053656C6563742100475088
:100330005320646174610043616C20737973206F92
:1003400073630043616C20726566206F73630050B5
:1003500068617365204869005068617365204C6F5F
:1003600000492D512062616C005065616B20425044
:10037000460053797374656D20667271005265662C
:10038000206672710050686173652048692066724A
:1003900071005068617365204C6F2066727100496E
:1003A0002D512062616C2066727100416C69676E2C
:1003B0002066727100537572653F20656E746572B8
:1003C00020313700466163746F7279207273742E26
:1003D00000532D6D657465722073746570005368E9
:1003E0006F7720532D6D6574657200437572736F5E
:1003F00072207374796C6500426174742E2073747A
:10040000657000426174742E2066756C6C004261E8
:1004100074742E2073686F770044626C2E20636CB6
:1004200069636B005365742074696D6500575350A0
:1004300052206C6F6361746F72005753505220707A
:100440006F77657200575350522063616C6C005394
:1004500074617274004672616D65004672657175F3
:10046000656E6379004D6F646500426561636F6E10
:1004700000456E61626C65206564697400456E615B
:10048000626C6520547800456E61626C652052781C
:1004900000416D706C2E206176672E00537065658B
:1004A00064206176672E004E6F69736520626C6E02
:1004B0006B2E0053696465746F6E6520766F6C00F7
:1004C00053696465746F6E65206672710050726165
:1004D00063746963650051534B004175746F205319
:1004E00070616365004B657965722057656967685F
:1004F00074004B657965722073776170004B657984
:100500006572207370656564004B65796572206D56
:100510006F64650042616E64004357206F666673C6
:100520006574004357206D6F646500524954207212
:10053000617465005249540054756E65207261748F
:10054000650056464F20420056464F204100564611
:100550004F206D6F6465005265706561747300496A
:100560006E74657276616C004D65737361676520AA
:100570000050726573657420005361766520736561
:100580007474696E677321005465737420657175A6
:1005900069706D656E7400416C69676E6D656E742F
:1005A000004F7468657200426561636F6E00446558
:1005B000636F646572004B657965720056464F0043
:1005C0004D65737361676573005072657365740080
:1005D00011241FBECFEFD8E0DEBFCDBF11E0A0E0F9
:1005E000B1E0EEEFFBE702C005900D92A23FB1072C
:1005F000D9F724E0A2EFB1E001C01D92AB3EB207F3
:10060000E1F70E94D9170C94FD3D0C94000000C046
:1006100000C000C000C000C000C000C000C000009A
:1006200008953C983D984498459808953C9A0895BB
:100630003C9AEDDF1DD008953D9AE9DF3C98E7DF55
:100640003D98E5DF3C9AE3DF13D00895082E3C9AED
:10065000DEDF802D0DD0882311F002D0F8CF089571
:100660003D9A3C9AD4DF3D98D2DF3C98D0DF089584
:100670000894881F01C0880F59F03D9A18F40000B3
:100680003C9802C03C9A00C0C2DF3D98C0DFF3CF67
:100690003D9A3C98BCDF3D98359BFECF8827349926
:1006A00081E0B5DF99270895882701C081E071E0D6
:1006B0003D9A3C98ACDF3D98AADF359BFECF8894ED
:1006C00034990894771FA0F73D9A813011F03C9837
:1006D00001C03C9A9CDF3D98359BFECF98DF872F69
:1006E000992708959091C303965081E0943008F0C3
:1006F00080E00895CF93C1E0C0931F020E9472036F
:100700008823D9F08FEF0E94533580E00E94862B1A
:1007100081E00E9415300E940D30809168008E7F2C
:100720008093680080917A00886080937A00C093FB
:10073000700081E0CF910C948B318091C3038C3099
:1007400061F480E00E94EE2F80E00E94153082E08C
:100750000E94F40FCF910C947B0F80E00E94EE2F4B
:1007600080E00E94153081E00E94F40F109280001A
:1007700010926F00C09361048DEF80931A02109263
:100780001B0210921C0210921D0210921E028091F8
:100790007A00877F80937A008091C3038B3021F4A5
:1007A000C0938100CF91089587E08093810081E01C
:1007B000CF910C94862B10921F0280E00E94862B12
:1007C00080E00E9415300E940D108FEF0E9453357B
:1007D000EAE7F0E080818860808381E080937000A8
:1007E00080E00C948B31CF92DF92EF92FF92CF9307
:1007F0008FE40E940A1680916104882331F0809171
:100800001A028D3F11F083E001C080E20E941716AA
:1008100080916104882309F4D3C020915F04309152
:1008200060048091F2019091F3018217930750F4D4
:1008300060915F0470916004681B790B6B01E12C7F
:10084000F12C0DC0C0905F04D0906004E12CF12C1D
:100850002FEFE21AF20AC81AD90AE108F1088091CA
:100860005F04909160049093F3018093F20180E41F
:100870000E940A1680911A0221E0280F8D3F08F08D
:1008800097C03091C3033A3049F4C11480E8D806C8
:10089000E104F10418F48FEFE81AF80A80911B02C2
:1008A00090911C02A0911D02B0911E02BC01CD01CD
:1008B0006C0D7D1D8E1D9F1D60931B0270931C028D
:1008C00080931D0290931E0220931A023B3061F424
:1008D00030E040E050E00E94693D69017A018FEC10
:1008E000E81A8EEFF80A1AC0243039F46B017C0143
:1008F00028E6E21A2EEFF20A11C030E040E050E0A4
:100900000E94693D69017A0186E6E80EF11C82E0E9
:10091000CC0CDD1CEE1CFF1C8A95D1F74BE0C70107
:10092000B6010E94963686E694E00E9431168091C8
:100930001A02843009F044C086E491E00E943D161A
:10094000809168008E7F8093680081E080937000C2
:1009500080E00E94862B80E00E9415308091C303C6
:100960008B3059F4C0921404D0921504E09216040E
:10097000F09217040E948D1A0AC0C092E203D0922E
:10098000E303E092E403F092E5030E94991A809158
:1009900028028823A9F00E94DB0310921904109208
:1009A000280280E00E94A60A83E08093D40408C055
:1009B00020931A02CFE080E20E941716C150D9F7A7
:1009C0008FEF80936104CF91FF90EF90DF90CF90F5
:1009D00008950F931F938091540390915503409174
:1009E0001B0250911C0260911D0270911E02480F63
:1009F000591F611D711D40931B0250931C0260938F
:100A00001D0270931E0280911A028F5F893119F0C6
:100A100080931A0248C010921A02E091F40181E01A
:100A20008E0F8A019B010E2E04C0369527951795CF
:100A300007950A94D2F7013311052105310528F0F5
:100A4000E82FEDCFEE2361F1E150DB01CA010E2E5C
:100A500004C0B695A795979587950A94D2F78031EB
:100A60009105A105B10570F3E093F40180931B0299
:100A700090931C02A0931D02B0931E020E94AA171D
:100A80008EE00E940A168091F4010E9426161092B0
:100A90001B0210921C0210921D0210921E0203C033
:100AA0001092F401E3CF1F910F9108951092DC038F
:100AB0001092130481E0809382020E9495130C949B
:100AC0001416CF9310922D0210922C021092250230
:100AD000109224028FEF90E09093230280932202E1
:100AE000809121048130A1F50E94D137C82F8091D7
:100AF000290490912A04A0912B04B0912C0466271C
:100B0000782F892F9A2F27E731E040E050E00E94AC
:100B1000693D2093AA033093AB034093AC035093F9
:100B2000AD03CC2331F187EA95E00E943D1680E2C7
:100B30000E9417168DE491E00E943D1680E40E9409
:100B40000A168C2F0E94C11F8DE28093620436C06A
:100B50008091DC03811106C088EC90E09093CA0379
:100B60008093C9038CE590E00E94D23D862F0E94BD
:100B700008138091DC03811107C08091FB03811170
:100B80000E94C3280E94B30C10922A0210922002E5
:100B90008FEF80932102109229028091330490916B
:100BA0003404A0913504B09136048093A40390934B
:100BB000A503A093A603B093A703C0E08C2FCF9109
:100BC000089591E09093DC0390931304882319F027
:100BD0009093BA0306C086E890E00E94CA3D8093D5
:100BE000BA03109221040E94610583E08093D4042B
:100BF0001092E703089580912902811110C080911D
:100C0000330490913404A0913504B091360480935C
:100C1000A4039093A503A093A603B093A703809188
:100C20002104813019F40E94E13902C00E94990622
:100C3000882311F18091DC03882389F08091BA0325
:100C4000882339F081508093BA03811102C00C943B
:100C5000560588E890E00E94D23D6093E7030E9429
:100C600061058091DC03811163C083E00E94F40F71
:100C700081E08093280208954091A4035091A50338
:100C80006091A6037091A7038091AA039091AB0392
:100C9000A091AC03B091AD03840F951FA61FB71FA1
:100CA0008093A4039093A503A093A603B093A703F6
:100CB00080912104811107C08091B7039091A8030E
:100CC00089130E94671320912C0230912D0280918C
:100CD000240290912502820F931F90932D028093FE
:100CE0002C02209122023091230282179307D0F028
:100CF0004091A4035091A5036091A6037091A703AE
:100D00004F5F5F4F6F4F7F4F4093A4035093A503F6
:100D10006093A6037093A703821B930B90932D02FD
:100D200080932C028091DC03811102C00C943C0C56
:100D3000089580912A0281110DC080912002815076
:100D400080932002811109C080912902811105C080
:100D500082E001C0815080932A02809120028F3F5F
:100D600009F065C080912902882379F02091290239
:100D70002150209329023091F5013F3E09F03FC0F8
:100D80001092200210922B0248C0909121029F5F86
:100D9000909321022091C9033091CA03A901490F00
:100DA000511DCA010E94CA3D8093F501811102C004
:100DB00081E0089580911F040E94CA1E9091210233
:100DC0008917B1F38091F5010E94451AE82FF0E0F0
:100DD000E85DFE4F20812093F50187E030E09FEF32
:100DE000980FA901082E02C0559547950A94E2F77D
:100DF00040FF02C0892FF3CF80932902B7CF81E053
:100E000090E001C0880F2A95EAF7832349F083E038
:100E10008093200281E080932B021092270207C06A
:100E200081E0809320028093270210922B02809110
:100E30002002811104C01092270210922B0280918F
:100E40002702811107C081E090912B02911103C00C
:100E500080E001C081E00E94A91280E00895CF9354
:100E600080911204823049F08091D1039091D20395
:100E70008115904821F0C7E003C0CBE001C0C0E07D
:100E800080E48C0F0E940A16EC2FF0E0EC5CFD4F22
:100E900080810E94171681E08C0FCF910895809178
:100EA0006702A8E2B1E0E0E09D91981719F0EF5FCA
:100EB000EA32D1F78EEF80936702EA3010F480E3D4
:100EC00003C0E43218F487E38E0F0895EA3229F064
:100ED000F0E0E55FFD4F849108958AE20895E4E330
:100EE000F2E080E2819392E0E434F907D9F70895C3
:100EF0008091330290915B02981779F08F5F803177
:100F000019F08093330202C010923302E091330251
:100F1000F0E0E859FD4F8081089580E008959091B8
:100F2000330280915B02981799F09091330280917F
:100F30005B02981779F0E4E3F2E08181819382E02B
:100F4000E434F807D1F70E94780780934302EDCF8D
:100F500080E0089581E00895CF93DF93C82FD62FC6
:100F6000809119048823D1F08091BB03882351F12B
:100F70008091BC03813051F4E0918302F0918402AE
:100F8000EA59FB4FC0830E94B4271CC08230D1F4C1
:100F90008C2F0E9451378111EFCF14C080916502D0
:100FA000882381F080915B028F5F803119F08093FC
:100FB0005B0202C010925B02E0915B02F0E0E85934
:100FC000FD4FC083DD2381F080916602882321F0EC
:100FD00081E09091C40303C081E09091D00391110E
:100FE00001C080E080936502DF91CF910895CF9298
:100FF000DF92EF92FF9281E08093660220910E04CF
:1010000030E040E050E060EB74E080E090E00E946F
:10101000693D20934E0230934F024093500250930B
:101020005102A3E0B0E00E94A73D60935302709389
:1010300054028093550290935602DC01CB01820F3B
:10104000931FA41FB51FB695A79597958795809375
:101050004A0290934B02A0934C02B0934D0281E060
:101060009091C403911101C080E0809365028EEFDE
:10107000809367021092450210925202FF90EF9007
:10108000DF90CF9008951092660208958F929F92FC
:10109000AF92BF92CF92DF92EF92FF9280917C024B
:1010A00090917D02A0917E02B0917F020496A11DD5
:1010B000B11D80937C0290937D02A0937E02B09339
:1010C0007F02E0905403F09055038091C30387FDA5
:1010D00006C080916602811102C00E94F7079091BC
:1010E000B70380916602992329F0811141C00E94C3
:1010F000F7073EC09091FA01992389F080917C0214
:1011000090917D02A0917E02B0917F028093F601C2
:101110009093F701A093F801B093F90129C08823B7
:1011200039F180907C0290907D02A0907E02B09078
:101130007F028091F6019091F701A091F801B091A2
:10114000F901881A990AAA0ABB0A20914E02309125
:101150004F024091500250915102AEE0B0E00E9427
:10116000A73D681579058A059B0510F41092660263
:101170008091B7038093FA014091660241113AC011
:10118000E0910001F0910101EE15FF05F0F42091CE
:1011900002013091030160911A042E153F0548F4B5
:1011A000C701821B930B70E00E94553D260F371F2D
:1011B00008C0C9018E199F0970E00E94553D261B89
:1011C000370B30930301209302018091020190912B
:1011D00003018E179F0720F4F0930301E0930201AF
:1011E0008091020190910301969587958E159F0538
:1011F00020F481E08093600202C01092600280912E
:10120000600290915202891799F0C0907C02D090B0
:101210007D02E0907E02F0907F02C0925702D09251
:101220005802E0925902F0925A02411124C025C09E
:10123000411121C0C0907C02D0907D02E0907E02DE
:10124000F0907F02409157025091580260915902EC
:1012500070915A02C41AD50AE60AF70A4091E103CE
:1012600050E060E070E04C155D056E057F0528F4E8
:1012700090913202891380933202809132029091D0
:101280004502891709F4EFC0C0907C02D0907D021E
:10129000E0907E02F0907F02882311F1C092460216
:1012A000D0924702E0924802F092490280915C029B
:1012B00090915D02A0915E02B0915F02C81AD90AB6
:1012C000EA0AFB0AC0926102D0926202E0926302D3
:1012D000F09264028091FB01882309F48DC0C1C0A3
:1012E000C0925C02D0925D02E0925E02F0925F02D8
:1012F0008091460290914702A0914802B091490224
:10130000C81AD90AEA0AFB0AC0922E02D0922F020A
:10131000E0923002F0923102D701C6014E97A10946
:10132000B1098B3A9105A105B10508F0E9C0E0913A
:10133000CD03AE2FB0E0119720914A0230914B02BD
:1013400040914C0250914D020E94B23D6C0D7D1DAA
:101350008E1D9F1D2E2F30E040E050E00E94693D21
:1013600020934A0230934B0240934C0250934D021B
:10137000E0911A04AE2FB0E01197C216D306E4062E
:10138000F506E8F420914E0230914F024091500250
:10139000509151020E94B23D6C0D7D1D8E1D9F1D0E
:1013A0002E2F30E040E050E00E94693D20934E0235
:1013B00030934F024093500250935102A1C02091AC
:1013C00053023091540240915502509156020E94AE
:1013D000B23D6C0D7D1D8E1D9F1D2E2F30E040E017
:1013E00050E00E94693D2093530230935402409391
:1013F00055025093560284C080904E0290904F0246
:10140000A0905002B0905102A5E0B0E0A501940177
:101410000E94A73D6C157D058E059F0540F40E9436
:101420004F0760E00E94AC0761E080E218C0809145
:10143000530290915402A0915502B0915602880D2A
:10144000991DAA1DBB1DB695A795979587958C15D7
:101450009D05AE05BF0528F40E944F0761E00E947C
:10146000AC071092FB0180913202811138C040918B
:101470007C0250917D0260917E0270917F0280918A
:101480005C0290915D02A0915E02B0915F02481BE8
:10149000590B6A0B7B0B8091530290915402A091DF
:1014A0005502B091560222E0880F991FAA1FBB1F58
:1014B0002A95D1F784179507A607B70780F480917E
:1014C000FB0181110CC00E944F0760E00E94AC0735
:1014D00061E080E20E94AC0781E08093FB01809193
:1014E0006002809352028091320280934502FF9005
:1014F000EF90DF90CF90BF90AF909F908F90089526
:1015000040914E0250914F026091500270915102F1
:101510008091530290915402A0915502B0915602CD
:10152000480F591F6A1F7B1F7695679557954795FA
:1015300080916702C416D506E606F70610F4880FF8
:1015400002C0880F8F5F809367028BCFCF93C82F25
:101550008091D40390918002891B90918302890F1E
:101560000E940A16CC2341F08091DD03813011F4F2
:101570008DE003C08EE001C08CE0CF910C94F41597
:101580008091C3038D3F21F480910C048F5B08C0D0
:101590009091100181E0923008F480E09F5F890F04
:1015A0000E940A168EE00C94F4158091D10390915C
:1015B000D20397FD12C08DE20E9417162091D1032D
:1015C0003091D20380E090E8A0E0B0E0BC01CD0112
:1015D000621B730B810991090FC08BE20E941716E1
:1015E0006091D1037091D203CB01A0E0B0E0BC01C7
:1015F000CD0170588109910946E00E94963686E631
:1016000094E00C94311680E40E940A168AEC91E072
:101610000E943D160E94D50A0E9407160E944C1691
:101620000C94C00A80E40E940A1683EC91E00E94A8
:101630003D1660E080910E040E949C160E940716E1
:101640000C944C164BE00E949636809166048033D1
:1016500019F480E28093660410926F0486E694E0A9
:101660000C943116CF92DF92EF92FF92CF93C62F58
:1016700069017A010E940A16C11102C084E001C00A
:1016800085E00E941716C701B601CF91FF90EF9039
:10169000DF90CF900C94220BA0918502B09186022E
:1016A000B7FF11C0BF7028EA35E24AE050E00E945F
:1016B000A73D20E034E840E050E00E94693D3093CF
:1016C00086022093850280911101883009F04AC07A
:1016D0008091C30381111AC080E40E940A166091B0
:1016E0008502709186026B5F7F4F80E090E047E05B
:1016F0000E9496368EE28093680480E280936B04A9
:1017000086E580936C0410926D0428C0813051F5F9
:1017100080E40E940A16A0918502B0918602A65725
:10172000BD4F9D010E94913D28E334E441E050E02B
:101730000E94693DCA01B9016B5F7F4F8F4F9F4F78
:1017400046E00E9496368EE28093670480E28093A2
:101750006A0487E580936B0410926C0486E694E03B
:101760000C94311640911D0450911E0426E0249FD4
:10177000C001259F900D1124209100043091010497
:101780008217930718F4281B390B02C020E030E0C1
:10179000609185027091860280E02617370730F449
:1017A000873021F0240F351F8F5FF7CF9091FC0118
:1017B000981721F08093FC010C94CA16089580912B
:1017C00012048230C9F42091E9033091EA03409178
:1017D000EB035091EC0360E080E00E94320B20911B
:1017E000C5033091C6034091C7035091C80361E01F
:1017F00080E40E94320B2AC081110AC02091E903C3
:101800003091EA034091EB035091EC0360E00AC091
:101810002091C5033091C6034091C7035091C8037E
:1018200061E080E00E94320B80E20E9417168091F6
:10183000D1039091D2038115904841F080E40E9439
:101840000A160E94D50A80E20E94171680910D04A4
:10185000882339F00E944C0B8FE00E940A1686E024
:1018600004C08FE00E940A1680E20E9417160E94B0
:10187000C00A10928202089580E40E940A168CE049
:101880000E94F41580912104813031F58091290264
:10189000813011F547E050E068EE73E086E694E0B1
:1018A0000E94BA3D86E694E00E94311680E20E94D2
:1018B000171645E050E06FEE73E086E694E00E9474
:1018C000BA3D86E694E00E94311680E20E94171627
:1018D0008091D9030C94261608958091660488237C
:1018E00019F0813021F0089586E791E002C081E788
:1018F00091E00C943D1680916604882319F08130A4
:1019000021F0089587E691E002C081E691E00C9411
:101910003D1680916604882319F0813021F00895E6
:1019200084ED91E002C08FEC91E00C943D16809123
:101930006604882319F0813021F0089581EE91E04A
:1019400002C085EE91E00C943D16809166048823D8
:1019500019F0813021F008958EED91E002C089EDFB
:1019600091E00C943D1680E00E940A1660910804F4
:101970007091090480910A0490910B044BE00E943D
:10198000963686E694E00E94311680E20E94171691
:1019900080912104809366040E94A50C809121040B
:1019A000811107C080E20E94171680910E040C94EA
:1019B000261680E20C94171680916604813049F057
:1019C00028F0823049F0833051F0089585E092E0AC
:1019D00008C08CEF91E005C083EF91E002C089EE72
:1019E00091E00C943D1680E40E940A16E091660492
:1019F0008E2F90E089309105C0F4FC01EC5CFF4F24
:101A00000C948B3D80E50FC08CE30DC088E20BC0C9
:101A10008EE109C084E107C081E105C08FE003C009
:101A20008CE001C08AE00E9426168DE60C94171601
:101A300080916604813051F038F0823051F48DEBA2
:101A400091E00E943D1605C081E401C082E40E943D
:101A500017160E9407160C944C16E09166048E2F00
:101A600090E08930910508F5FC01E35CFF4F0C9490
:101A70008B3D85EB91E017C08DEA91E014C085EABB
:101A800091E011C08DE991E00EC085E991E00BC0B5
:101A90008EE891E008C087E891E005C080E891E019
:101AA00002C089E791E00C943D1608958091660488
:101AB000811105C084E591E00E943D1603C060E0FD
:101AC0000E949C160E9407160C944C160F931F93AD
:101AD000CF93DF9380E40E940A168091BC038111AA
:101AE0004CC080911101823061F48091C303811157
:101AF00003C00E94180D39C0863089F40E946D0C15
:101B000034C08330C1F48091C303853019F40E943E
:101B1000890C2BC0811129C00E94DC0C26C08330A7
:101B200019F40E942D0D21C08530D9F38830E9F4D5
:101B30000E94F30C1AC0813039F48091C3038D30B8
:101B4000A1F40E94560D11C0853039F48091C30371
:101B5000813059F40E94A50C08C0863031F4809180
:101B6000C303843011F40E947B0C0E940716DF919E
:101B7000CF911F910F910C944C16833031F4DF916B
:101B8000CF911F910F910C94970CC0918002D0912E
:101B90008102CA59DB4F00E110E08991882329F0C6
:101BA0000E94171601501109C1F7DF91CF911F91C3
:101BB0000F91089581E0809382020895CF92DF9281
:101BC000EF92FF92C0900401D0900501E0900601D1
:101BD000F0900701209108013091090140910A011C
:101BE00050910B01C701B6010E942E3C20910C01BF
:101BF00030910D0140910E0150910F010E94953AD4
:101C000020E030E040E05FE30E941F3A0E94073B83
:101C1000072E000C880B990B0E943F3B2AED3FE0FA
:101C200049EC50E40E942E3CA70196010E94953A8F
:101C30006B017C010E949B3C60934B0370934C03AF
:101C400080934D0390934E03C701B6010E94903AD2
:101C500060934F037093500380935103909352030A
:101C60009B01AC010E941F3A6093470370934803A5
:101C70008093490390934A03FF90EF90DF90CF90B9
:101C800008952F923F924F925F926F927F928F9220
:101C90009F92AF92BF92CF92DF92EF92FF920F93FB
:101CA0001F93CF93DF9300D000D01F92CDB7DEB744
:101CB000409004015090050160900601709007016A
:101CC000C0904703D0904803E0904903F0904A0346
:101CD0001982812C912CA12CB12C212C312C00E0CB
:101CE00010E0282F30E03B832A833981232F30E016
:101CF0003D832C83B901330F880B990B0E943F3B26
:101D0000A30192010E948B3A87FF2BC0A701960185
:101D1000B101C8010E942E3C9401A5010E941E3A07
:101D20004B015C018C819D81EA81FB818E0F9F1F9D
:101D3000880F991F89579D4FFC0160817181072E83
:101D4000000C880B990B0E943F3BA50194010E9457
:101D50001F3AF981FF5FF983410158011B018C0192
:101D6000C4CF9401A501B101C8010E942E3CA70176
:101D700096010E942E3C6B017C019101A801B101EA
:101D8000C8010E942E3C2B013C019401A501B40125
:101D9000C5010E942E3C9B01AC01C301B2010E940F
:101DA0001F3AA70196010E941E3A0E94A93C0E9478
:101DB0000E3B70935503609354030F900F900F9058
:101DC0000F900F90DF91CF911F910F91FF90EF90A7
:101DD000DF90CF90BF90AF909F908F907F906F904B
:101DE0005F904F903F902F90089590916A039F5F6E
:101DF000903119F090936A0302C010926A03E09147
:101E00006A03F0E0E65AFC4F80830895FA01D90195
:101E1000118210821C92813049F56330B9F040F490
:101E2000613071F0623009F044C029E833E01AC033
:101E3000653091F070F06630E1F526E533E012C0D0
:101E400020E833E03183208396E032C02FE633E090
:101E500005C027E833E006C02DE833E03183208356
:101E60009FE026C0318320838C9323C0823029F4E5
:101E70006230F9F422EA33E00DC0883029F467308B
:101E8000C1F42FE933E011C0843099F4623031F4A9
:101E90002BE833E03183208391E00AC0643048F0BE
:101EA0006370633031F42BE633E03183208392E0BA
:101EB0009C9320813181232B29F090917F03892BE2
:101EC00080937F0308950F931F93F9019081DB01A5
:101ED000A90FB11D2C91281309C09F5F90839330E7
:101EE00031F4D8014C93108281E002C0108280E06E
:101EF0001F910F91089580E40E940A1680917F033C
:101F000080FF05C089E893E00E94311603C08DE28E
:101F10000E94171680E20E94171680917F0381FFAE
:101F20000FC08091A203823319F482E591E00AC0C8
:101F3000833319F485E591E005C088E591E002C09E
:101F40008BE591E00E94311680E20E94171686E62A
:101F50000E94171680917F0383FF10C08091A00319
:101F6000811103C080E30E94171680919F030E9495
:101F700017168091A003882339F004C08DE20E94D7
:101F800017168DE20E94171680E20E94171684E74A
:101F90000E94171680916E0390917F039823A9F0F9
:101FA0000E94261680E20E94171683E70E941716E9
:101FB00060916E0370E080915803909159030E94E4
:101FC000553D862F0E94261604C08EE591E00E94A2
:101FD00031160E940716803520F480E20E94171601
:101FE000F8CF10927F03089580939D030E94EE34F2
:101FF0008091680081608093680010926B008091EE
:102000009D03813031F480916B00806180936B007F
:10201000089585EF9EE00C944F310E9447310E9455
:10202000C73410929D03E8E6F0E080818E7F8083C4
:1020300010926B000895CF93DF9300D000D01F92D1
:10204000CDB7DEB780918903813409F0A9C04091F2
:102050008E0350E04053510920918D0330E020530E
:1020600031096AE0629FC001639F900D1124840FC3
:10207000951F97FD01969595879560915603653458
:1020800011F4865B03C099E4981B892F89838091A2
:102090006F03E0918703EE3411F4865E03C099E785
:1020A000981B892F8A8380918F0390E0C0977AE0F4
:1020B000749F9001759F300D1124820F931F97FD1F
:1020C000019695958795653431F46AE00E94493D03
:1020D000905D9B8306C06AE00E94493D89E3891BAD
:1020E0008B8390917003EE3411F49C8303C089E6D6
:1020F000891B8C831D82CE0101960E94BC37811101
:1021000024C045E050E06FEE73E086E694E00E9464
:10211000BA3D99818091660498130FC09A8180918D
:10212000670498130AC09B8180916804981305C0C6
:102130009C8180916904981741F045E050E06FEE72
:1021400073E0CE0101960E94D83D40918403440F74
:102150004056842F880F880F480F80918503805345
:10216000480F60918203660F6056862F880F880F94
:10217000680F809183038053680F80918003880FDC
:102180008056982F990F990F890F90918103905342
:10219000890F0E9458298091260281110E94C3282C
:1021A00080919D03823019F40E947B0F09C0833017
:1021B00039F40E940D108AE08093C3030E947A03D1
:1021C0000F900F900F900F900F90DF91CF91089587
:1021D0000F931F93CF93C82F8091060281113DC0AA
:1021E000809105028C278093050206E012E024E02E
:1021F00032E041E063E671E08C2F0E94630F882398
:1022000059F01092040210920302109202021092EE
:10221000010210920002DAC006E012E023E032E090
:1022200042E067E671E08C2F0E94630F8111E9CFD5
:1022300022E032E048E06BE671E08C2F0E94630FF1
:102240008111DFCF21E032E044E06FE671E08C2FB6
:102250000E94630F8111D5CFB9C0C43249F41092E6
:102260000602109204021092000210920502AEC003
:1022700020910002CC3219F0CA3209F059C0809185
:10228000FE019091FF01009769F0409104023091A6
:10229000FD01FC01431718F4E40FF11D02C0E30F28
:1022A000F11D108280910602843061F5243050F1D6
:1022B000822F8370833031F5273051F480918B0366
:1022C000813331F4109259031092580310926E0327
:1022D000E091FE01F091FF018081882399F08BE667
:1022E00093E00E9460372091580330915903620FA8
:1022F000731F709359036093580380916E038F5F2F
:1023000080936E03609100026F5F609300021092F1
:1023100004022DEF31E04EEF51E0809106020E9461
:10232000060FCA3211F48EEF11C0809105024BC026
:102330002E3F79F48C2F0E9458379091050220E1AE
:10234000829F90191124909305028FEF80930002D1
:102350003DC02F3FE1F48C2F0E9458379091050229
:10236000981B909305021092000280910602992317
:1023700039F0809590917F03892380937F0326C055
:10238000813021F5CF911F910F910C941B1020915A
:10239000FE013091FF01809105022115310599F070
:1023A000909104024091FD01941768F48C2780936A
:1023B0000502F901E90FF11DC083809104028F5FCE
:1023C0008093040203C0C827C0930502CF911F91D8
:1023D0000F91089580919E0390916A03891789F067
:1023E0008F5F803119F080939E0302C010929E038C
:1023F000E0919E03F0E0E65AFC4F80810E94E810D5
:10240000E9CF08951F920F920FB60F9211242F93C8
:102410003F934F935F936F937F938F939F93AF936C
:10242000BF93EF93FF9380919D03813069F4809176
:102430008400909185009093600480935F0483B141
:1024400080718093610402C00E94E130FF91EF919E
:10245000BF91AF919F918F917F916F915F914F91BC
:102460003F912F910F900FBE0F901F901895909154
:10247000C3039F3F71F59091B403992351F18111EA
:1024800015C040913304509134046091350470912B
:1024900036048091090290910A02A0910B02B0913A
:1024A0000C0284179507A607B70798F480E00E94EE
:1024B0006B3180E00E94973180E00E94EE2F81E036
:1024C0000E9491311092B40380916F008B7F8093B2
:1024D0006F000895CF92DF92EF92FF922091DE037A
:1024E0006091290470912A0480912B0490912C040E
:1024F000C0903304D0903404E0903504F09036045A
:10250000222381F020910E0430E040E050E00E9450
:10251000693DA0E6B0E00E94A73D2AE030E040E03F
:1025200050E004C024E630E040E050E00E94693D05
:10253000C20ED31EE41EF51EC0920902D0920A02FA
:10254000E0920B02F0920C02FF90EF90DF90CF90A0
:102550000895CF93C82F0E946B318091C3038F3FA2
:10256000A1F080911101883081F0C093B403CC2395
:1025700011F080E001C081E00E94913180E00E9472
:10258000973180E00E94EE2F39C0CC2379F180E0B2
:102590000E9491318091E003811103C081E00E948B
:1025A00097318091B40381110AC08091E0038111B9
:1025B00003C081E00E94EE2F81E08093B4038091FC
:1025C000CB03811104C080911304882361F08FEF45
:1025D0009FEFDC018093090290930A02A0930B0203
:1025E000B0930C020BC00E946A1208C080910802CE
:1025F00081110E946A1280E00E9497318091B70396
:102600008093A803C093B703C0930802CF910895A5
:10261000CF92DF92EF92FF920F931F93282F30E01B
:1026200040E050E06091290470912A0480912B04CD
:1026300090912C040E94693DACE0B0E00E94A73D5F
:102640002AE030E040E050E00E94693DCA01B90153
:102650002093AA033093AB034093AC035093AD0394
:1026600020911004309111046901E12CF12C243FD8
:10267000314068F41092AF0304EF11E020E030E045
:10268000A90198012C193D094E095F0909C021E0F3
:102690002093AF03A7019601245F314041095109FE
:1026A0000E94393D28EE33E040E050E00E94693D51
:1026B0002093B0033093B1034093B2035093B3031C
:1026C0001F910F91FF90EF90DF90CF9008950F939F
:1026D0001F939091AF034091A4035091A503609183
:1026E000A6037091A7030091B0031091B10320914C
:1026F000B2033091B303882339F0992339F0400FA6
:10270000511F621F731F06C09923C9F3401B510B51
:10271000620B730B4093A4035093A5036093A6032D
:102720007093A7031F910F91089580910E040E944A
:1027300008138091330490913404A0913504B09132
:1027400036048093A4039093A503A093A603B093AB
:10275000A70380910304811103C082E08093A90341
:1027600008954F925F926F927F928F929F92AF9255
:10277000BF92CF92DF92EF92FF920F931F93CF936E
:10278000509103048091AA039091AB03A091AC03F4
:10279000B091AD030091A4031091A5032091A6036D
:1027A0003091A7035523F9F04091A9034423D9F0B0
:1027B0001092A9034091B6034770A9F4AC01BD0182
:1027C000440F551F661F771FD901C801840F951F3D
:1027D000A61FB71F8093A4039093A503A093A603FD
:1027E000B093A703AFC0C0903304D0903404E090FE
:1027F0003504F090360426013701401A510A620A66
:10280000730A4C015D01880C991CAA1CBB1C841422
:102810009504A604B70428F48C0D9D1DAE1DBF1DA4
:1028200004C0800F911FA21FB31F8093A403909335
:10283000A503A093A603B093A70351110EC08091E6
:10284000A903813051F48091B603877019F010927A
:10285000A90303C082E08093A90380910702882323
:10286000A1F081508093070281116CC00E94A912CF
:102870008091B6038C7F8093B603809107020E94FB
:10288000671381E08093A9035DC08091B60382FF46
:102890001AC02091AE039091CB03213051F49330B4
:1028A00019F092E09093AE0393E0909307028B7D32
:1028B0002FC0933019F091E09093AE0391E0909384
:1028C00007028B7B19C080FD11C081FF07C093E018
:1028D0009093070292E09093AE0319C09091CB03BE
:1028E0009230C1F4282F2874283441F491E0909359
:1028F000AE03909307028F7B80620DC0282F207358
:10290000203341F49093AE0393E0909307028F7DC0
:10291000806401C08F798093B6038091B603877E6F
:102920008093B603809107020E94A912C09107020A
:10293000CC2319F08C2F0E94671381E0C11180E035
:102940008093B503CF911F910F91FF90EF90DF908F
:10295000CF90BF90AF909F908F907F906F905F903F
:102960004F900895CF92DF92EF92FF92CF93809194
:10297000DC038111BBC0809113048111B7C0809129
:102980001F028111B3C08091C30380588F3708F4B0
:10299000ADC00E940033C82F0E940F332091CB039B
:1029A000211110C0C11106C091E0811101C090E059
:1029B000892F01C081E0CF91FF90EF90DF90CF9001
:1029C0000C94A912C0903304D0903404E0903504E4
:1029D000F09036044091A4035091A5036091A603A2
:1029E0007091A7034C155D056E057F0510F030E072
:1029F00008C09091A903992319F091E09093B50331
:102A000031E0C1110CC081111EC0223051F1809102
:102A1000B603887F8093B6031092AE033FC09091B7
:102A2000B603882319F09C7F946024C091FF19C0DD
:102A30009C7F94609093B603233009F451C092E0D8
:102A40009093AE034DC09091B60390FF0AC09C7F57
:102A500094609093B6032330E1F081E08093AE035D
:102A600018C09091B503992381F0CC2331F0909157
:102A7000B60391609093B60333C0882379F08091B8
:102A8000B60382608093B60304C0C11129C08823B5
:102A900029F08091B60380618093B60331110E94C2
:102AA000B11380910304811121C08091A903823068
:102AB000E9F48091B6038770C9F01092A903809160
:102AC000330490913404A0913504B091360480937E
:102AD000A4039093A503A093A603B093A70306C0F5
:102AE0009091B60398609093B603D1CFCF91FF90A9
:102AF000EF90DF90CF9008955C9A00C05C980895A5
:102B00000F931F9381E000913304109134042091BE
:102B100035043091360440910D0250910E026091BF
:102B20000F0270911002401751076207730708F0F7
:102B300080E01F910F910895CF93C82F0E946029C4
:102B40008091330490913404A0913504B0913604FF
:102B50008C0F911DA11DB11D80930D0290930E024B
:102B6000A0930F02B0931002CF9108951F93CF93BB
:102B7000DF93D82F162F4091330450913404609185
:102B800035047091360480910D0290910E02A0914F
:102B90000F02B091100284179507A607B70718F027
:102BA0000E946029E8CFCBB1C07F8C2FD7FD886011
:102BB000D6FD8460D5FD8260D4FD8160D3FDC86000
:102BC000D2FDC460D1FDC260D0FDC1608BB91123BC
:102BD00011F0449A01C044980E947C15CBB9DF9152
:102BE000CF911F910C947C15CF93C82F60E00E9469
:102BF000B615C43010F487E201C082E0CF910C9486
:102C00009C1561E00E94B61582E00C949C158091A1
:102C1000B8030895CF93C82F80E88C0F0E94F41555
:102C2000C093B803CF91089581E00C94F41561E04E
:102C30000E94B61582E00E949C158091B8038F5FB8
:102C40008093B8030895805D0C941716CF936AE0C3
:102C50000E94493DC92F0E9423168C2FCF910C94BE
:102C60002316CF93DF93EC018991882319F00E94FA
:102C70001716FACFDF91CF910895CF93DF93FC0120
:102C80008491EF012196882321F00E941716FE01FE
:102C9000F7CFDF91CF910895CF93C82F8091B803DC
:102CA000C81719F08C2F0E940A16C03140F4809189
:102CB000B803803160F480E20E941716F8CF80914B
:102CC000B803803520F480E20E941716F8CFCF9128
:102CD000089580E70E94F41580E00E94011682E0CA
:102CE0000E94011686E00E9401168EE00E940116E5
:102CF0008EE10E9401168EE00E94011686E00E947D
:102D0000011682E00E94011680E00E94011681E017
:102D10000E94011681E00E94011685E00E940116C2
:102D200089E00E9401168FE10E94011688E00E944E
:102D3000011684E00C9401160F931F93CF93DF9339
:102D4000D62F082F10E0843640F0CCE9C80FC436E7
:102D500038F0C8E3C80F82E004C0C82F80E001C08B
:102D600081E00436110510F00E94231680E090E007
:102D7000CA3018F0CA500196FBCF0A30110508F48A
:102D8000D1110E9423168C2FDF91CF911F910F91AB
:102D90000C942316CF93DF93D82F80E70E94F4156D
:102DA0008EE00E940116C6E0DC1710F08FE101C032
:102DB00081E10E940116C150B9F78FE1DF91CF91F7
:102DC0000C940116CF93DF933C9A549A509A519ADF
:102DD000529A539A80E49CE90197F1F7599A589ACC
:102DE0000E947C1580E891E60197F1F70E947C151E
:102DF000C0E4D1E0CE010197F1F70E947C15CE012D
:102E00000197F1F758980E947C152197F1F788E215
:102E10000E94F41588E00E94F4150E94141686E0C2
:102E20000E94F4158CE00E94F41580E0DF91CF91B0
:102E30000C94CA16CF9380E40E94F415C8E080E198
:102E40000E940116C150D9F7C23010F084E101C0D0
:102E500080E10E940116CF5FC830B1F7C0E0C230F8
:102E600010F085E101C080E10E940116CF5FC830FB
:102E7000B1F780E00E9401168AE00E9401168FE1FE
:102E80000E9401168FE10E9401168FE10E94011637
:102E90008EE00E94011684E00E94011680E00E94EC
:102EA00001168CE00E94011682E10E9401168EE15B
:102EB0000E94011682E10E94011682E10E94011621
:102EC00080E00E94011680E00E94011680E00E94CE
:102ED00001168CE10E94011682E10E9401168CE12C
:102EE0000E94011682E10E9401168CE10E940116E7
:102EF00080E00E94011680E00E94011680E0CF91E0
:102F00000C940116611103C08BE00C940A1670E05A
:102F100061507109962F990F690F262F30E0F90142
:102F20003296482F50E0E417F50714F482E00FC002
:102F3000681710F080E20BC02F5F3F4F4217530716
:102F400011F480E004C0E417F50719F481E00C9453
:102F500017160895FF920F931F93CF93DF93F82EC8
:102F600080E40E940A16C2E0D0E00F2D10E0C017E6
:102F7000D10714F482E011C08C2F82508F1510F00D
:102F800080E20BC0CE0101970817190711F480E009
:102F900004C00C171D0719F481E00E941716239630
:102FA000C233D10521F7DF91CF911F910F91FF908F
:102FB000089585E085BD0E94CE340E94E2160E94ED
:102FC00014160E946A1A0E94DE0D0E946F0780E0AC
:102FD0000E94EE2F789480E480937C008FEE8093A3
:102FE0007A0083E292E00E943D168EE092E00E9419
:102FF0003D1680E40E940A1684E192E00E943D168C
:1030000084E18093630480916304882359F080E015
:103010000E94A537809160008111FCCF80916304EC
:103020008150EFCF0E9414160E941A1780E00E9470
:10303000751C86EC90E00E94CA3D893018F00E9411
:10304000771B03C082E08093D404D0E0812CC0E0E1
:10305000C12CD12C760100E0B12CA12C99249A949A
:103060008091D404882309F444C00E9414169092DD
:10307000C3038091D404813021F08091D404823044
:1030800019F580E00E9491319091D40481E0923052
:1030900009F080E00E94751C0E9403290E9495138C
:1030A00081E0809347048093500480911304882327
:1030B00021F00E946105B82E15C080E00E941530F5
:1030C0000E94DA0DB12C0EC080911304882339F0D0
:1030D0008091DC03811103C00E94B30C02C00E94E6
:1030E000DA0D04E10E94430881E00E9491311092C0
:1030F000D40480912602811129C080911304882371
:1031000029F18091C3038F3F09F540913304509119
:10311000340460913504709136048091A403909139
:10312000A503A091A603B091A70384179507A6074E
:10313000B70760F48091DC03882321F08091E703D6
:10314000811104C0B11002C00E94FB058091C3032D
:103150008F3F49F480911304882329F08091DC0388
:10316000882309F4C2C080915303803321F08091F9
:103170005303811176C0809153030E94410E8091C8
:103180001101873059F480911F02882339F00E9481
:103190007203882319F00E94E90402C00E944608C5
:1031A000909111018091C303983091F59EEF980F93
:1031B000923070F58091540390915503C80ED91E3A
:1031C000E11CF11CCF5FC03411F0C11111C0C70167
:1031D000B60136E096958795779567953A95D1F73C
:1031E00047E00E949636C0E0C12CD12C760139C050
:1031F000C13021F480E40E940A1633C0C83088F53B
:10320000EC2FF0E0EC59FB4F80810E94171629C08B
:103210008F3F39F58091DF03882319F180915403A2
:1032200090915503C80ED91EE11CF11CCF5FC0312F
:1032300011F0C11116C0C701B60124E0969587951B
:10324000779567952A95D1F72091DA033091DB03C2
:1032500040E050E00E94693D69017A01822ED0E091
:10326000C0E08091C3038F3F09F03FC0011111C03E
:10327000D63078F40E9480158823B9F1D53029F032
:103280006D2F882D0E94821702C00E94C00ADF5F46
:103290002CC08091D003811104C08091C403882385
:1032A00021F10E948015882399F0002389F00031D4
:1032B00058F411E0100FE02FF0E0EC5CFD4F80813E
:1032C0000E941716012F11C00E94C00A00E00DC015
:1032D0000E948015882349F0011107C00E948F07C2
:1032E000882319F00E942F07082F0E9460298091DF
:1032F0001804811103C08091700080FF0E94CA32BF
:103300000E94B431809161048F3F11F00E94F30359
:103310000E94EA118091620481110CC00E94A431C4
:10332000182FA81641F080916504811104C00E94F5
:103330001E3301C01A2D0E94A334809140048823BB
:1033400041F08091D404811104C0109240040E9485
:103350001530809185029091860297FD0E944C0B5A
:103360008091DC03882359F00E940033882319F0F0
:103370000E94560504C00E940F338111F9CF80913D
:103380001304882359F08091DC03811107C08091D8
:10339000800086FF03C080E00E946B310E94B2145F
:1033A00080E00E9437128091D504882349F180FF84
:1033B0000FC08091C3038F3F59F480911304882379
:1033C00039F0B11005C08091260281110E94D828E1
:1033D0008091D50481FF12C010922602809133049F
:1033E00090913404A0913504B09136048093A403E5
:1033F0009093A503A093A603B093A7031092D504BE
:103400008091E80381110E94D9208091820281116C
:1034100006C080915904811102C0A12E21CE809155
:103420008202882319F00E94DF0B02C00E94C00AAA
:10343000109259048091C3038F3F11F0D6E0EDCF75
:103440000023E1F38091D003811104C08091C40373
:103450008823A1F30E942F07082FF0CF883080F433
:1034600090E0FC01EE0FFF1F8E0F9F1FFC01E25842
:10347000FE4F80819181A281BC018A2F90E0089546
:1034800061E070E080E090E00895CF93882389F0B8
:10349000C82F0E948836843269F4EFE2F2E080E0BF
:1034A0009491C91721F08F5F31968B30C9F78C5DED
:1034B00001C080E0CF9108958A3010F4805D0895B6
:1034C000843210F4895C0895E82FF0E0E55FFD4F49
:1034D0008491089584E090E00E94D23DDC01CB010C
:1034E000BF7781329D4CAB45B74071F080E790E0EB
:1034F0000E94D23D673672418B4E9C4D29F08AE383
:1035000092E00E943D16FFCF089590E00296880F4A
:10351000991F880F991F0C94D23D4091140450912B
:103520001504609116047091170488E590E00C94DE
:10353000F03D4091E2035091E3036091E403709108
:10354000E50384E590E00C94F03D6091120483E083
:1035500090E00E94E23D4091E9035091EA036091BE
:10356000EB037091EC038CE790E00E94F03D4091FA
:10357000C5035091C6036091C7037091C80380E8EA
:1035800090E00E94F03D6091100184E890E00E947C
:10359000E23D60910C0485E890E00E94E23D40919C
:1035A000D1035091D20360E070E088E490E00E9483
:1035B000F03D40910E0450E060E070E08CE590E05A
:1035C0000E94F03D4091FC035091FD036091FE0389
:1035D0007091FF0380EC90E00C94F03D83E090E06C
:1035E0000E94CA3D809312048CE790E00E94D23D75
:1035F0006093E9037093EA038093EB039093EC03E9
:1036000080E890E00E94D23D6093C5037093C603AA
:103610008093C7039093C80384E890E00E94D23D52
:103620006093100188E490E00E94D23D7093D20331
:103630006093D10385E890E00E94D23D60930C0432
:103640008CE590E00E94D23D60930E0480EC90E007
:103650000E94D23D6093FC037093FD038093FE03B0
:103660009093FF030895CF92DF92EF92FF92CF9352
:10367000DF93E091BD03F0E0EE0FFF1FEB58FD4F2D
:1036800025913491A8EEB3E00E94913D6B017C013D
:10369000C8E0D0E0B701A601CE010E94F03D24961B
:1036A000C834D105B9F7B701A6018CE790E00E94B4
:1036B000F03DB701A60180E890E00E94F03DB7011F
:1036C000A60184E790E00E94F03DB701A60184EADC
:1036D00090E00E94F03DB701A60180EC90E0DF9100
:1036E000CF91FF90EF90DF90CF900C94F03D8BEF57
:1036F0008093C3030E9414168AE592E00E943D164F
:10370000109266040E94F30C1092D4040895CF9393
:10371000DF93EC010E941416CE010E943D16C0E01A
:10372000D0E060E0CE010E94E23D2196C11584E028
:10373000D807B9F747E652E16BEE7CED80E790E001
:103740000E94F03D4CEB52E060E070E080E590E0DC
:103750000E94F03D40E65CE06CE971E084E590E0B9
:103760000E94F03D40E05DE261E371E088E590E0B9
:103770000E94F03D4CE050E060E070E08CE590E0AD
:103780000E94F03D44EF51E060E070E08CE690E094
:103790000E94F03D4CEB52E060E070E084EB90E082
:1037A0000E94F03D43E650E060E070E088E790E082
:1037B0000E94F03D45E250E060E070E088E690E075
:1037C0000E94F03D40E050E860E070E088E490E066
:1037D0000E94F03D66E084E890E00E94E23D67E0F0
:1037E00085E890E00E94E23D61E08CE990E00E9473
:1037F000E23D61E08DE990E00E94E23D61E08EE90A
:1038000090E00E94E23D4CEB52E060E070E088EA1C
:1038100090E00E94F03D48E552E060E070E08CEA04
:1038200090E00E94F03D40E253E060E070E080EB09
:1038300090E00E94F03D40EE5EE260E070E088EBD8
:1038400090E00E94F03D48EE53E060E070E08CEBC9
:1038500090E00E94F03D4CE251E060E070E080EAD0
:1038600090E00E94F03D4AE050E060E070E080E9C6
:1038700090E00E94F03D47E050E060E070E084E9B5
:1038800090E00E94F03D4CE350E060E070E088E999
:1038900090E00E94F03D44E650E060E070E08CE88B
:1038A00090E00E94F03D6FEF86EC90E00E94E23DD8
:1038B00043E25DEC6BE577E084E090E0DF91CF914F
:1038C0000C94F03D84E090E00E94D23DDC01CB01FD
:1038D000BF7783329D4CAB45B74031F087E692E02D
:1038E0000E94871B0C9414160895CF93DF93C82F62
:1038F0000E94621CC1110E94EE1A84E590E00E94B1
:10390000D23D6093E2037093E3038093E4039093CA
:10391000E50388E590E00E94D23D60931404709323
:10392000150480931604909317048FE490E00E948E
:10393000CA3D8093DE0380E590E00E94D23D609313
:10394000040470930504809306049093070481E0B7
:1039500090E00E94CA3D8093F50382E090E00E94CF
:10396000CA3D8093CB038EE490E00E94CA3D8093D1
:10397000B9038CE690E00E94D23DEB0170931104F4
:10398000609310048CE490E00E94CA3D809313047D
:103990008DE490E00E94CA3D8093210480E690E08F
:1039A0000E94D23D6093FB0384E690E00E94D23DEA
:1039B0006093D30388E690E00E94D23D6093D903E0
:1039C00084E790E00E94D23D60930804709309045C
:1039D00080930A0490930B0486E890E00E94CA3D0D
:1039E0008093BA0387E890E00E94CA3D8093E00389
:1039F0008FE990E00E94CA3D80930D0488EB90E02F
:103A00000E94D23D70930104609300048CEB90E01F
:103A10000E94D23D70931E0460931D0480EA90E0E2
:103A20000E94D23D7093F9036093F80380E990E01F
:103A30000E94D23D6093E10384E990E00E94D23D70
:103A40006093CD0388E990E00E94D23D60931A0410
:103A50008CE990E00E94CA3D8093D0038DE990E00C
:103A60000E94CA3D8093C4038EE990E00E94CA3D43
:103A70008093BB0384EC90E00E94CA3D8093DD03F9
:103A800085EC90E00E94CA3D8093DF038CE890E0D3
:103A90000E94D23D7093DB036093DA0387EC90E0E1
:103AA0000E94CA3D8093030486EC90E00E94CA3DC8
:103AB0008093BD03E29730F482E390E09093110489
:103AC000809310048091100490911104873B9340DF
:103AD00030F086EB93E0909311048093100489E01A
:103AE0008093810084EB90E00E94D23D6E3581E0AE
:103AF000780710F46EE571E09B0140E050E06091C2
:103B000014047091150480911604909117040E947A
:103B1000693D3093890020938800809188009091BE
:103B200089009695879590938B0080938A0088E70B
:103B300090E00E94D23D83E6861B8823A9F0209165
:103B40008A0030918B0040918A0050918B0094E064
:103B5000569547959A95E1F7241B350B30938B00CA
:103B600020938A008150E9CF80910D048111109239
:103B70003704DF91CF910895E0911101EB3028F4E3
:103B8000F0E0ED58FE4F8081089580E00895E091C7
:103B9000C3038E2F90E08A30910520F5FC01EA5B8B
:103BA000FF4F0C948B3D89EC95E01AC080EC95E0BA
:103BB00017C08CEB95E014C086EB95E011C08EEA3F
:103BC00095E00EC087EA95E00BC081EA95E008C059
:103BD00087E995E005C088E895E002C089E795E0AF
:103BE0000C943D16089580911101853029F481E0EF
:103BF0009091C303983009F080E00895CF92DF924E
:103C0000EF92FF920F931F938091C9039091CA0383
:103C10000E94D23D20911101223059F52091C30319
:103C2000243039F5611520E872078105910588F483
:103C300000E010E820E030E068017901C61AD70AF8
:103C4000E80AF90AC701B60147E00E9496368DE2FC
:103C500007C070588109910947E00E9496368BE2AF
:103C6000809366041F910F91FF90EF90DF90CF90AB
:103C700008954091E6031F910F91FF90EF90DF9020
:103C8000CF900C949636EF92FF920F931F93CF93A1
:103C9000DF938C01EB017A010E94F31D882311F15F
:103CA00080912E042AE0622F0E94493D805D80931E
:103CB0006604905D909367048AE380936804809122
:103CC00038040E94493D805D80936904905D909323
:103CD0006A0410926B0486E08093E60382E080938E
:103CE000BC032DC08091C30390E0F701E80FF91FDA
:103CF00024912093BC03FE01E80FF91FC491C093E7
:103D0000E603880F991FD801A80FB91F8D919C91C8
:103D10009093CA038093C903223019F40E94FE1DB8
:103D20000EC0213041F44C2F50E0BC0186E694E0F7
:103D30000E94BA3D04C00E94CA3D80936604DF9190
:103D4000CF911F910F91FF90EF900C94660D81E73A
:103D500095E00E943D168091C30360E08F5F0E9452
:103D60009C1682E08093BC038BE08093E6038091F5
:103D7000C30390E00296880F991F880F991F9093B4
:103D8000CA038093C9030E94D23D4BE00E9496363D
:103D90000C94660D843010F082E3089584E6089553
:103DA000843010F042E301C044E64093E6038430DF
:103DB00038F424E6829FC001112488539F4F0BC022
:103DC00090E0049752E3589F9001599F300D1124C1
:103DD000C901885A9D4F9093CA038093C90350E04C
:103DE0006091C9037091CA0386E694E00C94BA3DD1
:103DF0008091C3038C3099F48FE595E00E943D16C5
:103E000082E08093BC0383E08093E60388E890E03F
:103E10009093CA038093C9030E94FE1D27C08D3072
:103E2000A1F487E595E00E943D161092BC0381E065
:103E30008093E60386E890E09093CA038093C903D9
:103E40000E94CA3D8093660411C088E695E00E94F6
:103E50003D168091C30360E08F5F0E949C1681E055
:103E60008093BC038091C3030E94D01E0C94660D06
:103E7000E091C3038E2F90E08930910508F5FC0195
:103E8000E05BFF4F0C948B3D8EE495E017C088E417
:103E900095E014C082E495E011C088E395E00EC07F
:103EA00084E395E00BC08BE295E008C083E295E0E7
:103EB00005C089E195E002C084E195E00E943D16CD
:103EC00041ED52E06AED72E080EE91E00C94431E09
:103ED000E091C3038E2F90E08930910508F5FC0135
:103EE000E75AFF4F0C948B3D89E095E017C08DEFAA
:103EF00094E014C082EF94E011C086ED94E00EC00F
:103F000085EE94E00BC08AED94E008C08DEC94E05F
:103F100005C080EC94E002C083EB94E00E943D1663
:103F20004FEB52E068EC72E08EEC91E00C94431E93
:103F30008091C303823099F038F4882369F081308E
:103F4000C1F48CE994E013C0843079F058F08530E6
:103F500081F481E794E00BC087EA94E008C081E92E
:103F600094E005C087E894E002C08DE794E00E94E9
:103F70003D1643EB52E069EB72E082EC91E00C9469
:103F8000431E90E08930910508F5FC01EE59FF4F82
:103F90000C948B3D8AE694E017C085E694E014C04B
:103FA0008BE594E011C085E594E00EC08FE494E0C9
:103FB0000BC085E494E008C08AE394E005C08DE27C
:103FC00094E002C084E294E00C943D160895809140
:103FD000C3030E94C11F43EA52E06BEA72E082EB26
:103FE00091E00C94431EE091C3038E2F90E0883043
:103FF0009105F0F4FC01E559FF4F0C948B3D89E1EC
:1040000094E014C08EE094E011C083E094E00EC010
:1040100088EF93E00BC08BEE93E008C08EED93E049
:1040200005C081ED93E002C084EC93E00E943D1650
:104030008091C303873099F480E40E940A1685EBCF
:1040400093E00E943D1682E08093BC0383E080935E
:10405000E60343E060E070E0CB010C94963643E960
:1040600052E06BE972E082EA91E00C94431EE09129
:10407000C3038E2F90E08D30910568F5FC01ED585B
:10408000FF4F0C948B3D8BEA93E023C08FE993E0C4
:1040900020C082E993E01DC085E893E01AC08DE757
:1040A00093E017C082E793E014C089E693E011C063
:1040B00081E693E00EC088E593E00BC08FE493E0C7
:1040C00008C083E493E005C087E393E002C08EE27A
:1040D00093E00E943D1680911F02882349F0809151
:1040E000C303863018F40E94DB0302C00E947A03E7
:1040F0008091C303863040F447E852E06DE872E0F7
:1041000086E991E00C94431E80911F02811107C043
:1041100080E40E940A1680E293E00C943D16089514
:10412000CF92DF92EF92FF92CF93C1E0C093180439
:10413000C0901404D0901504E0901604F090170479
:10414000C701B60120E03AE040E050E00E94693D3E
:104150003093CF032093CE03C701B6012AE030E0AD
:1041600040E050E00E94693D209320042093B3007A
:104170001092ED0310928500109284001092E803D3
:10418000EAE7F0E08081877F8083C0936F00109220
:104190008100C093B1001092B2008FEF9FEF909317
:1041A0001C0480931B04CF91FF90EF90DF90CF9081
:1041B000089580E40E940A162091D5033091D60319
:1041C0004091D7035091D803AAE0B0E00E94A73DE8
:1041D0004AE00E949636E6E6F4E08EE2818386812C
:1041E0008583878186831782CF010E94311685E5FA
:1041F00092E00E943D160C94902010926F00EAE726
:10420000F0E08081886080831092180408958FEF19
:104210000E9453358091C3038230B1F028F4882383
:1042200049F0813051F008958430A9F080F0853054
:10423000C1F0089588E193E002C08FE093E00E940E
:104240003D1610923704089584E093E002C089EF90
:1042500092E00C943D168FEE92E00E943D160C9475
:10426000902083EE92E00E943D1682E08093BC0392
:1042700080EC90E09093CA038093C9038CE0809314
:10428000E6030E94FE1D0C94660D0E941416809198
:1042900011018A3031F08F5F0E9423168EE20E9456
:1042A0001716909111018091C3039A3011F489304F
:1042B00039F060E08F5F0E949C1680E20E94171622
:1042C000E09111018E2F90E08B309105C8F4FC0134
:1042D000E058FF4F0C948B3D0C94C71D0C94A71E07
:1042E0000C94F81E0C94381F0C94681F0C94981FA3
:1042F0000C94E71F0C94F31F0C9437200C940721A7
:104300000895E0918302F0918402EA59FB4F808185
:104310008B3211F48DE201C08BE28083089580918D
:10432000BC038330E1F080911101823029F4909137
:10433000C303963059F413C08330A9F49091C3039A
:10434000992349F181E09530A9F425C0992319F109
:10435000933039F0953029F0983061F402C081E053
:10436000089588E00895853039F481E09091C30381
:10437000913089F080E00895813031F48091C30359
:104380008D30C1F783E608958630A1F781E09091E2
:10439000C303943079F7089580911101883059F45E
:1043A0008091C303833019F48FEF0C94533584301C
:1043B00011F40C94FD20089586E694E00E94603785
:1043C0006093FC037093FD038093FE039093FF03BF
:1043D00082E00C941530CF92DF92EF92FF920F9310
:1043E0001F93CF93DF93E82E082F10E0E801CA59FE
:1043F000DB4F8881893341F50E94F31D811122C072
:10440000E11002C0F12C24C0FF24FA94FE0CCF2C42
:10441000D12CFF2051F0F601EA59FB4F80810E9418
:104420005137811102C0FA94F2CFF601EA59FB4FDD
:1044300080810E945137882329F38F2D0E94EB2120
:10444000882301F380E301C08F5F8883FF24F39406
:1044500080918302909184020817190779F00E94D5
:10446000071690E0005C1F4F8017910721F080E451
:104470008E0D0E940A1688810E9417168F2DDF91DB
:10448000CF911F910F91FF90EF90DF90CF90089503
:10449000CF92DF92EF92FF920F931F93CF93DF9310
:1044A000E82E082F10E0E801CA59DB4F88818033DD
:1044B00041F50E94F31D811122C0E11002C0F12CD0
:1044C00024C0FF24FA94FE0CCF2CD12CFF2051F0F5
:1044D000F601EA59FB4F80810E945137811102C0D9
:1044E000FA94F2CFF601EA59FB4F80810E945137CE
:1044F000882329F38F2D0E944822882301F389E322
:1045000001C081508883FF24F394809183029091AD
:1045100084020817190779F00E94071690E0005CE2
:104520001F4F8017910721F080E48E0D0E940A161C
:1045300088810E9417168F2DDF91CF911F910F91C7
:10454000FF90EF90DF90CF900895809166048111E5
:1045500002C084E007C09091C303843040F49330DC
:1045600021F487E080936604089588E0FBCF9330C0
:1045700011F4883071F30895CF93DF93809119047B
:10458000882309F4A3C080E00E94A60A8091BC039E
:10459000813009F477C028F08230E1F0833009F0EF
:1045A00090C080916604811103C00E948F2101C0D8
:1045B00081508093660480911101823041F4809192
:1045C000C303853011F0833011F40E94A5220E94AC
:1045D000660D77C080911101823069F48091C30328
:1045E000843049F48091830290918402892B19F4DC
:1045F0000E94812104C0809183020E9448220E946F
:10460000F31D8823C9F080916604893319F482E38D
:104610008093660480916604823339F48091670444
:10462000843318F083E380936704809169048933AD
:1046300019F485E3809369040E9407164091830270
:1046400050918402282F30E0CA01805C9F4F2817C8
:10465000390721F080E4840F0E940A16E09183025A
:10466000F0918402EA59FB4F80810E9417168091D5
:104670001101883031F58091C303853011F50E9416
:10468000DC211FC0E0918302F0918402EA59FB4FC4
:1046900080810E94451A811101C08FE2C09183027E
:1046A000D091840281500E945C1ACA59DB4F8883E2
:1046B000E0918302F0918402EA59FB4F80810E94CD
:1046C000171681E0DF91CF910C94A60A0E94BC1DC1
:1046D0009091C303981798F40E94CC218091C30352
:1046E000811104C00E94BC1D8093C3038091C30349
:1046F00081508093C303DF91CF910C944521DF91CA
:10470000CF910895CF93DF9380911904882309F402
:10471000A4C080E00E94A60A8091BC03813009F405
:1047200078C028F08230E9F0833009F091C0C09160
:104730006604CF5FC09366040E948F218C1710F42B
:104740001092660480911101823041F48091C3037C
:10475000853011F0833011F40E94A5220E94660D6D
:1047600077C080911101823069F48091C303843055
:1047700049F48091830290918402892B19F40E945C
:10478000812104C0809183020E94EB210E94F31DCD
:104790008823C9F080916604833319F480E3809301
:1047A000660480916604823339F48091670484330F
:1047B00018F080E38093670480916904863319F4CC
:1047C00080E3809369040E94071640918302509110
:1047D0008402282F30E0CA01805C9F4F28173907D8
:1047E00021F080E4840F0E940A16E0918302F09188
:1047F0008402EA59FB4F80810E94171680911101B3
:10480000883031F58091C303853011F50E94DC2199
:104810001FC0E0918302F0918402EA59FB4F80812E
:104820000E94451A8F5F8F3208F080E0C0918302AA
:10483000D09184020E945C1ACA59DB4F8883E091B0
:104840008302F0918402EA59FB4F80810E9417167F
:1048500081E0DF91CF910C94A60A80E00E94A60A25
:104860000E94CC21C091C303CF5FC093C3030E94B9
:10487000BC1DC81710F01092C303DF91CF910C94A8
:104880004521CF93DF938091BC03813009F07AC03A
:104890008091830290918402FC01EA59FB4F2081B0
:1048A0002F3759F521E0280F3091E603231748F4FC
:1048B000A22FB0E0AA59BB4F4C9111974C932F5F98
:1048C000F5CF009799F02081211110C001979093A6
:1048D00084028093830280918002909181020097EC
:1048E00029F001979093810280938002E0918302E6
:1048F000F0918402EA59FB4F1DC02E37F9F4209144
:1049000002042083A091E6034FEF4A0F242F30E0EA
:104910008217930748F42A593B4FE90121975881A0
:10492000E90158834150F2CF80E28083B0E0AB5977
:10493000BB4F1C9280818093020422C02630A1F4D8
:1049400010928402109283021092810210928002CF
:10495000109266041092020480E40E940A160E94DB
:1049600007160E944C160CC0273061F48091020497
:1049700080838091E60390E0909384028093830289
:1049800081E001C080E0DF91CF910895CF92DF9266
:10499000EF92FF920F931F938091BC03813081F4BB
:1049A000E0918302F0918402EA59FB4F808192E802
:1049B000980F923018F08650823010F40E944124F3
:1049C000109284021092830210928102109280024F
:1049D000109219040E941A1780E00E94A60A0E94F1
:1049E000660D0E94F31D8823E1F060916904660F53
:1049F0006056862F880F880F680F80916A04805355
:104A0000680F80916604880F8056982F990F990F30
:104A1000890F90916704905340E0890F0E945829B4
:104A200061C02091BC03223009F049C0809111017E
:104A30008230F9F48091C3038430D9F487E694E09E
:104A40000E946037209166042D3269F400E010E87E
:104A500020E030E068017901C61AD70AE80AF90AAD
:104A6000B701A6010CC0AB01BC0150586F4F7F4F7E
:104A700006C086E694E00E946037AB01BC0120913D
:104A800011012630A9F42091C303273089F4413164
:104A9000510561057105D1F58BE492E00E94871BF9
:104AA0001F910F91FF90EF90DF90CF900C94771BA8
:104AB0008091C9039091CA030E94F03D13C0809178
:104AC000C9039091CA03213049F44091E60350E0B4
:104AD000BC0186E694E00E94D83D04C06091660463
:104AE0000E94E23D84E090E00E94D23D97FD0EC01E
:104AF00043E25DEC6BE577E884E090E01F910F9175
:104B0000FF90EF90DF90CF900C94F03D1F910F91AC
:104B1000FF90EF90DF90CF9008950E944124811183
:104B200049C02091BC03809183029091840221307E
:104B300041F4FC01EA59FB4F2081211102C020E21F
:104B400020830097E1F4E0918302F0918402EA5916
:104B5000FB4F8081809302042DC08091830290914D
:104B600084020097A9F0FC01EA59FB4F80810E9462
:104B7000513781110DC08091830290918402019779
:104B800090938402809383028091BC03823029F346
:104B90002091830230918402809180029091810261
:104BA0002817390710F40197FBCF90938102809367
:104BB0008002C9CF0E94660D81E00C94A60ACF93B3
:104BC000C82F0E944124811144C02091BC038091D0
:104BD0008302909184022130C1F4FC01EA59FB4F19
:104BE0002081211112C020E220830FC0E0918302B6
:104BF000F0918402EA59FB4F80810E945137811164
:104C00000DC080918302909184020196909384025A
:104C1000809383028091BC03823041F380918302B0
:104C2000909184022091800230918102AC01421B5C
:104C3000530B4031510518F02F5F3F4FF7CF3093A2
:104C4000810220938002FC01EA59FB4F808180930E
:104C500002048091E60390E0AC014150510920919B
:104C60008302309184022417350750F0CC2319F0C9
:104C7000CF910C94C6240297909384028093830270
:104C80008091BC039FEF980F923080F4E0918302F3
:104C9000F0918402EA59FB4F9081911107C0823054
:104CA00011F480E301C080E280830AC08091FA039E
:104CB000882339F0E0918302F0918402EA59FB4F96
:104CC00011820E94660D81E0CF910C94A60A80E4C7
:104CD0000E940A1683E50E94171680E20E941716AA
:104CE0008091CC03893048F480E20E9417168091AD
:104CF000CC038F5F0E94231605C08091CC038F5F89
:104D00000E94261680E20E9417168091CC030E9412
:104D1000851A0E94220B80E20E9417168CE40C94E4
:104D200017161F93CF93DF9380E40E940A16809199
:104D30001F0460E08F5F0E949C168EE20E9417168F
:104D400080E20E94171680911F040E94D01EC6E6C2
:104D5000D4E01991111107C00E940716DF91CF917D
:104D60001F910C944C160E9407168035A8F7812FCE
:104D70000E941716EECF20910C04283078F430E012
:104D8000F901EE0FFF1F2E0F3F1FF901E258FE4FF2
:104D9000208131814281642FA90104C041E050E0AB
:104DA00060E070E02091D1033091D203882339F084
:104DB000420F531F403187EA580768F408C0C90101
:104DC000841B950BAC01413F98E5590720F05093A7
:104DD000D2034093D1030E94030B81E080934004EF
:104DE000089590910E04882321F0933638F49F5F44
:104DF00003C0923018F0915090930E040E94120B51
:104E00000C94951390916604882331F09F5F99303C
:104E100050F01092660409C0911104C088E080939C
:104E2000660403C09150909366040C94F30C88239D
:104E300061F08091CC038F5F8093CC038091CC0391
:104E4000803171F41092CC030BC08091CC03882385
:104E500021F08091CC03815001C08FE08093CC037E
:104E60000C946726882361F080911F048F5F8093E4
:104E70001F0480911F048C3071F410921F040BC02A
:104E800080911F04882321F080911F04815001C06C
:104E90008BE080931F040C94912680911204813042
:104EA00059F48091CC034091C5035091C6036091A1
:104EB000C7037091C8030AC08091CC034091E903F5
:104EC0005091EA036091EB037091EC0390E002963D
:104ED000880F991F880F991F0C94F03D8091120440
:104EE000813069F48091CC030E94851A6093C503D8
:104EF0007093C6038093C7039093C8030CC080913E
:104F0000CC030E94851A6093E9037093EA038093AF
:104F1000EB039093EC0381E08093470480E00C94D2
:104F200015300E94CC2180911904882319F00E9429
:104F3000C62414C0809111018A3051F08093C303BC
:104F40008AE0809311010E9445210E94DB0306C084
:104F500081E08093D4048EE18093620480E00E941B
:104F6000A91280E00C94973180911904882319F0DC
:104F700081E00C94DF25809111018A3071F48091D9
:104F8000C303893021F40E94A51A0C9491278093C1
:104F900011011092C3030C944521873051F4809184
:104FA000C303863068F080911F0281114CC00C94BD
:104FB0007A03883029F48091C303853009F043C017
:104FC0008091BC03813039F490916604911103C043
:104FD0008093FA0304C01092FA03813011F40E9406
:104FE00069168091BC03823051F48091E6038330CE
:104FF00031F481E090E0909384028093830281E019
:105000008093190480E48093D40380911101883047
:1050100059F48091C303853099F480E00E94913166
:1050200082E00E9415300CC0863051F48091C30399
:10503000873031F40E94660D0E9407160E944C16BC
:1050400081E00C94A60A08951F920F920FB60F925A
:1050500011248F938091ED038F5F8093ED038F91E7
:105060000F900FBE0F901F9018951F920F920FB6C2
:105070000F9211242F933F934F935F936F937F93DE
:105080008F939F93AF93BF93EF93FF9380911804F7
:105090008823F9F080911B0490911C040196909351
:1050A0001C0480931B04892B19F487E080938100F2
:1050B00020911B0430911C048091CE039091CF036A
:1050C0002817390741F48091700082608093700046
:1050D00002C00E94CA32FF91EF91BF91AF919F91A0
:1050E0008F917F916F915F914F913F912F910F9091
:1050F0000FBE0F901F9018951F920F920FB60F9230
:1051000011242F933F938F939F93AF93BF938091DD
:105110001804882341F180911B0490911C0401968E
:1051200090931C0480931B04892B11F01092810032
:1051300020918400309185008091ED0390E0A0E003
:10514000B0E0DC0199278827820F931FA11DB11DB4
:105150008093D5039093D603A093D703B093D8033D
:1051600081E08093E803809170008D7F80937000D0
:10517000BF91AF919F918F913F912F910F900FBE53
:105180000F901F9018959091D3032091380430917F
:10519000FB03892F281710F0830FFCCF809328047E
:1051A0008C3310F09093280481E0809326020895B8
:1051B00080E40E940A1680912E040E9426168AE33B
:1051C0000E941716809138040E9426168AE30E94D6
:1051D000171680912D040E94261680E20E94171651
:1051E00080E20E9417168CE30E94171680E20E944C
:1051F0001716809128040E94261680E20E94171636
:1052000080E20C941716CF92DF92EF92FF92CF9329
:10521000DF9316BC109233041092340410923504BC
:105220001092360460911404709115048091160454
:10523000909117046B017C012AE0F694E794D794CF
:10524000C7942A95D1F7C0922904D0922A04E092FB
:105250002B04F0922C04EB01D370D0933A04C0934A
:105260003904C0922F04D0923004E0923104F092BD
:10527000320420E038EC40E050E00E94693DC20E6C
:10528000D31EE41EF51EC0922204D0922304E092A5
:105290002404F0922504D0932704C093260487E2C7
:1052A000DF91CF91FF90EF90DF90CF900C949C1501
:1052B0006093380480932E0440932D040C940329AA
:1052C0008F929F92AF92BF92CF92DF92EF92FF9216
:1052D000CF93DF9396B58091110281111EC097FF85
:1052E00033C081E08093110280913704882369F0F4
:1052F00080911101883049F48091C303823028F4F1
:105300008091370481508093370480916204882310
:10531000D9F081508093620417C097FD15C0109298
:10532000110240913304509134046091350470911E
:1053300036045F5F6F4F7F4F4093330450933404C4
:105340006093350470933604C0903304D0903404D5
:10535000E0903504F0903604CC24C90ED11CE11C39
:10536000F11CC0923304D0923404E0923504F092E0
:1053700036048091220490912304A0912404B091DA
:1053800025040097A105B10509F4B4C08C159D054D
:10539000AE05BF0508F0AEC06091290470912A04E3
:1053A00080912B0490912C04C0912604D091270465
:1053B0002091390430913A04C20FD31F80902F04FA
:1053C00090903004A0903104B0903204860E971E65
:1053D000A81EB91E9E01232F332726952695820EDF
:1053E000931EA11CB11C80922F0490923004A092B5
:1053F0003104B092320422E330E040E050E00E94F9
:10540000693DDA01C901880D991DAA1DBB1D809354
:10541000220490932304A0932404B0932504D37012
:10542000D0932704C093260481E088169104A10438
:105430008FEFB806B0F08091A4039091A503A091DE
:10544000A603B091A7038C199D09AE09BF098093EB
:10545000A4039093A503A093A603B093A7030E946F
:1054600003298091E703882319F081508093E70393
:1054700080913704882329F08091370481508093EC
:10548000370480912D048F5F8C3319F080932D04A5
:1054900016C010922D04809138048F5F8C3319F060
:1054A000809338040CC01092380480912E048F5FD2
:1054B000883119F080932E0402C010922E0480913E
:1054C000D504982F91609093D50420913804909141
:1054D000280429130FC090912602992359F0909126
:1054E0002104992321F090912D04992319F08360D0
:1054F0008093D504DF91CF91FF90EF90DF90CF9014
:10550000BF90AF909F908F900895CF93DF93D82F47
:10551000C62F80EC0E9426038D2F0E943803811134
:1055200009C08C2F0E943803811106C00E943003ED
:1055300080E003C083E001C084E0DF91CF91089553
:105540004F925F926F927F928F929F92AF92BF9293
:10555000CF92DF92EF92FF920F931F93CF93C82FBA
:10556000462E6701780149015A0187E0880C991C91
:10557000AA1CBB1C8A95D1F7C501B401A7019601ED
:105580000E94693DCA01B901512C612C712C27E0A0
:10559000440C551C661C771C2A95D1F722E0521A40
:1055A00061087108460E571E681E791EA7019601F4
:1055B0000E94393D861A970AA80AB90A6D2D8C2FC8
:1055C0000E94852A6C2D81E08C0F0E94852AD301D0
:1055D000C20188279927A370BB27BD018827992777
:1055E00082E08C0F0E94852A652D83E08C0F0E943B
:1055F000852A642D84E08C0F0E94852ACC24DD242A
:105600008FE0E822FF244CE0F694E794D794C79407
:105610004A95D1F7D501C40188279927AF70BB27D8
:105620006C2D6A2B85E08C0F0E94852A692D86E0FF
:105630008C0F0E94852A682D87E08C0FCF911F91D7
:105640000F91FF90EF90DF90CF90BF90AF909F9021
:105650008F907F906F905F904F900C94852ACF929F
:10566000DF92EF92FF920F93CF93DF93C82FD22F49
:105670004450510961097E4F6A017B0187E0CC0CDF
:10568000DD1CEE1CFF1C8A95D1F760E08C2F0E9478
:10569000852A61E081E08C0F0E94852AD701C6012E
:1056A00088279927A370BB276D2F602B6A2B82E078
:1056B0008C0F0E94852A6D2D83E08C0F0E94852A15
:1056C0006C2D84E08C0F0E94852A60E085E08C0FB1
:1056D0000E94852A60E086E08C0F0E94852A60E0A7
:1056E00087E08C0FDF91CF910F91FF90EF90DF90CB
:1056F000CF900C94852ACF93C82F0E94110360E8A5
:105700008C2F0E94852ACF910C941603CF93C82F1B
:105710000E941103CC2371F060E28CE30E94852A81
:1057200060E48BEB0E94852A63E482E10E94852A73
:1057300060E008C060E08BEB0E94852A82E10E9455
:105740007B2B64E083E00E94852ACF910C941603A2
:10575000EF92FF920F931F93CF93C82F0E941103D4
:10576000809146048C17A8F540913F042C2F30E01F
:1057700090E04423C9F08901081B190BC801092EC8
:10578000000CAA0BBB0B40914C0450914D0460914E
:105790004E0470914F048A019B01081B190B2A0BC0
:1057A0003B0BD901C80130C0A901481B590BCA01E4
:1057B000092E000CAA0BBB0B4091420450914304EC
:1057C0006091440470914504840F951FA61FB71F74
:1057D00034C0C817D8F540913F042C2F30E090E03A
:1057E000821B930B092E000CAA0BBB0B4423A9F0C0
:1057F00040914C0450914D0460914E0470914F04BF
:10580000840F951FA61FB71F80934C0490934D04DF
:10581000A0934E04B0934F0428C04091420450918D
:10582000430460914404709145048A019B01081B64
:10583000190B2A0B3B0BD901C801809342049093AA
:105840004304A0934404B09345040FC08C130DC0CF
:105850006FE682E10E94852AC0934604CF911F9192
:105860000F91FF90EF900C941603E0904C04F09091
:105870004D0400914E0410914F0420914204309148
:10588000430440914404509145046091410482E2F4
:105890000E94A02ADDCFCF92DF92EF92FF929B0170
:1058A000AC0160913B0470913C0480913D04909167
:1058B0003E040E94393D60935104709352048093DA
:1058C000530490935404C090E203D090E303E0901B
:1058D000E403F090E503A70196010E94693D20933F
:1058E0004104462F572FBC018FEF9FEFAFE0B0E090
:1058F00080934C0490934D04A0934E04B0934F04B6
:1059000024E180E090E0DC01440F551F661F771F03
:10591000880F991FAA1FBB1F4C155D056E057F05DB
:1059200028F04C195D096E097F098160215061F7EB
:105930008093420490934304A0934404B09345049D
:10594000FF90EF90DF90CF9008954F925F926F920B
:105950007F928F929F92AF92BF92CF92DF92EF92FF
:10596000FF920F931F93CF93DF93CDB7DEB72897A6
:105970000FB6F894DEBF0FBECDBF29013A01F50185
:1059800020913B0430913C0440913D0450913E04F1
:10599000D6010E94A73D4B015C01CF01A0E0B0E021
:1059A00089839A83AB83BC83C801B701A5019401A5
:1059B0000E94693D2D833E834F8358879B01AC0134
:1059C00069817A818B819C810E94393DA501940176
:1059D0000E94693D49015A012D813E814F815885C0
:1059E00069817A818B819C810E94393D9501840176
:1059F000060F171F281F391F00934C0410934D04E6
:105A000020934E0430934F0485E140E050E0BA010A
:105A1000769567955795479540FE04C0400F511FF6
:105A2000621F731F7694679457944794815081F74F
:105A3000409342045093430460934404709345049C
:105A4000411551056041710538F481E001151105DA
:105A50002041310508F080E028960FB6F894DEBFAB
:105A60000FBECDBFDF91CF911F910F91FF90EF90AF
:105A7000DF90CF90BF90AF909F908F907F906F906E
:105A80005F904F9008954F925F926F927F92AF9286
:105A9000BF92CF92DF92EF92FF920F931F93CF931B
:105AA000DF93CDB7DEB72D970FB6F894DEBF0FBEEC
:105AB000CDBF2B013C010E94110360E079EE84EA26
:105AC00095E3A30192010E94693D29833A834B83A8
:105AD0005C83DA01C90181709927AA27BB278987CE
