:100000000C94E8020C9405030C9405030C94021262
:100010000C9423350C9405030C94F4340C94782838
:100020000C94E3300C9431280C9405030C940503D4
:100030000C94E1340C9420280C9405030C940503D3
:100040000C9405030C9405030C9405030C94050310
:100050000C9405030C946A350C9405030C94050369
:100060000C9405030C940503020D040D060D080DF8
:100070000A0D0C0D0E0D100D120D390D3C0D3F0D1E
:10008000420D450D480D4B0D4E0D510DCF1DD21D8E
:10009000D51DD81DDB1DDE1DE11DE41DE71DEA1D7C
:1000A000401F431F461F491F4C1F4F1F521F551F04
:1000B000581F701F731F761F7C1F7F1F791F821FA1
:1000C000851F881FC61FC91FCC1FCF1FD21FD51F5A
:1000D000DB1FD81FDE1FFB1FFE1F0120042007208F
:1000E0000A200D2010203F204220452048204B2090
:1000F0004E205120542057205A205D20602063203C
:100100006A216C216E21702172217421762178215F
:100110007A217C216821BD2EBD2EBD2EC22FC32E7B
:10012000C92ECF2ED52EDB2E05A84CCDB2D44EB97C
:100130003836A9020C50B9918688083CA6AAAA2A8A
:10014000BE000000803F20446F6E65210065727222
:100150006F723A00416420696E66696E6974756DEC
:1001600000426C696E6B00556E6465726C696E65F9
:100170000043572D520043570031202020487A0079
:1001800031302020487A0031303020487A00353034
:100190003020487A00312020206B487A003130200E
:1001A000206B487A00313030206B487A00312020B3
:1001B000204D487A00313020204D487A0053706C31
:1001C00069740053706565642000524954200053DF
:1001D000656D690046756C6C00575350520043576B
:1001E000004F4646004F4E2000556C74696D617497
:1001F00069630049414D42494320420049414D4213
:100200004943204100537472616967687400312E5C
:1002100030306300515250204C6162732C203230D8
:100220003137003557204357205463767220002021
:100230002F7C3F2E2C7E7F06DB07557365206F7267
:100240006967696E616C204943210052657365746A
:100250002E2E2E2000204D487A0053656C65637465
:100260002062616E643A0053657474696E6720752C
:10027000702E2E2E00C00DED146C1B8827C436C8BE
:10028000461C524E61746D0202020202020B04040B
:10029000040B0B0203020200030200040107060123
:1002A000010400030002020201010201010B030329
:1002B0000705030202020303030303030101010014
:1002C000020302030003020201030104010101040D
:1002D00003000202000200000200010B0B010701F3
:1002E0000106015369676E616C2067656E2E0046DA
:1002F00072657175656E637900417564696F20433D
:10030000682E3200417564696F2043682E310052B7
:100310004620506F77657200566F6C746167650098
:1003200050726573732053656C6563742100475088
:100330005320646174610043616C20737973206F92
:1003400073630043616C20726566206F73630050B5
:1003500068617365204869005068617365204C6F5F
:1003600000492D512062616C005065616B20425044
:10037000460053797374656D20667271005265662C
:10038000206672710050686173652048692066724A
:1003900071005068617365204C6F2066727100496E
:1003A0002D512062616C2066727100416C69676E2C
:1003B0002066727100537572653F20656E746572B8
:1003C00020313700466163746F7279207273742E26
:1003D00000532D6D657465722073746570005368E9
:1003E0006F7720532D6D6574657200437572736F5E
:1003F00072207374796C6500426174742E2073747A
:10040000657000426174742E2066756C6C004261E8
:1004100074742E2073686F770044626C2E20636CB6
:1004200069636B005365742074696D6500575350A0
:1004300052206C6F6361746F72005753505220707A
:100440006F77657200575350522063616C6C005394
:1004500074617274004672616D65004672657175F3
:10046000656E6379004D6F646500426561636F6E10
:1004700000456E61626C65206564697400456E615B
:10048000626C6520547800456E61626C652052781C
:1004900000416D706C2E206176672E00537065658B
:1004A00064206176672E004E6F69736520626C6E02
:1004B0006B2E0053696465746F6E6520766F6C00F7
:1004C00053696465746F6E65206672710050726165
:1004D00063746963650051534B004175746F205319
:1004E00070616365004B657965722057656967685F
:1004F00074004B657965722073776170004B657984
:100500006572207370656564004B65796572206D56
:100510006F64650042616E64004357206F666673C6
:100520006574004357206D6F646500524954207212
:10053000617465005249540054756E65207261748F
:10054000650056464F20420056464F204100564611
:100550004F206D6F6465005265706561747300496A
:100560006E74657276616C004D65737361676520AA
:100570000050726573657420005361766520736561
:100580007474696E677321005465737420657175A6
:1005900069706D656E7400416C69676E6D656E742F
:1005A000004F7468657200426561636F6E00446558
:1005B000636F646572004B657965720056464F0043
:1005C0004D65737361676573005072657365740080
:1005D00011241FBECFEFD8E0DEBFCDBF11E0A0E0F9
:1005E000B1E0E8EDFBE702C005900D92A23FB10734
:1005F000D9F724E0A2EFB1E001C01D92AA3EB207F4
:10060000E1F70E94D9170C94EA3D0C94000000C059
:1006100000C000C000C000C000C000C000C000009A
:1006200008953C983D984498459808953C9A0895BB
:100630003C9AEDDF1DD008953D9AE9DF3C98E7DF55
:100640003D98E5DF3C9AE3DF13D00895082E3C9AED
:10065000DEDF802D0DD0882311F002D0F8CF089571
:100660003D9A3C9AD4DF3D98D2DF3C98D0DF089584
:100670000894881F01C0880F59F03D9A18F40000B3
:100680003C9802C03C9A00C0C2DF3D98C0DFF3CF67
:100690003D9A3C98BCDF3D98359BFECF8827349926
:1006A00081E0B5DF99270895882701C081E071E0D6
:1006B0003D9A3C98ACDF3D98AADF359BFECF8894ED
:1006C00034990894771FA0F73D9A813011F03C9837
:1006D00001C03C9A9CDF3D98359BFECF98DF872F69
:1006E000992708959091C203965081E0943008F0C4
:1006F00080E00895CF93C1E0C0931E020E94720370
:100700008823D9F08FEF0E94403580E00E94822B31
:1007100081E00E9402300E94FA2F809168008E7F53
:100720008093680080917A00886080937A00C093FB
:10073000700081E0CF910C9478318091C2038C30AD
:1007400061F480E00E94DB2F80E00E94023082E0B2
:100750000E94F40FCF910C947B0F80E00E94DB2F5E
:1007600080E00E94023081E00E94F40F109280002D
:1007700010926F00C09360048DEF80931902109265
:100780001A0210921B0210921C0210921D028091FC
:100790007A00877F80937A008091C2038B3021F4A6
:1007A000C0938100CF91089587E08093810081E01C
:1007B000CF910C94822B10921E0280E00E94822B1B
:1007C00080E00E9402300E940D108FEF0E944035A1
:1007D000EAE7F0E080818860808381E080937000A8
:1007E00080E00C947831CF92DF92EF92FF92CF931A
:1007F0008FE40E940A1680916004882331F0809172
:1008000019028D3F11F083E001C080E20E941716AB
:1008100080916004882309F4D3C020915E04309154
:100820005F048091F2019091F3018217930750F4D5
:1008300060915E0470915F04681B790B6B01E12C81
:10084000F12C0DC0C0905E04D0905F04E12CF12C1F
:100850002FEFE21AF20AC81AD90AE108F1088091CA
:100860005E0490915F049093F3018093F20180E421
:100870000E940A168091190221E0280F8D3F08F08E
:1008800097C03091C2033A3049F4C11480E8D806C9
:10089000E104F10418F48FEFE81AF80A80911A02C3
:1008A00090911B02A0911C02B0911D02BC01CD01D0
:1008B0006C0D7D1D8E1D9F1D60931A0270931B028F
:1008C00080931C0290931D02209319023B3061F427
:1008D00030E040E050E00E94563D69017A018FEC23
:1008E000E81A8EEFF80A1AC0243039F46B017C0143
:1008F00028E6E21A2EEFF20A11C030E040E050E0A4
:100900000E94563D69017A0186E6E80EF11C82E0FC
:10091000CC0CDD1CEE1CFF1C8A95D1F74BE0C70107
:10092000B6010E94833685E694E00E9431168091DC
:100930001902843009F044C086E491E00E943D161B
:10094000809168008E7F8093680081E080937000C2
:1009500080E00E94822B80E00E9402308091C203DE
:100960008B3059F4C0921304D0921404E092150411
:10097000F09216040E94891A0AC0C092E103D09234
:10098000E203E092E303F092E4030E94951A80915F
:1009900027028823A9F00E94DB031092180410920A
:1009A000270280E00E94A60A83E08093D30408C057
:1009B00020931902CFE080E20E941716C150D9F7A8
:1009C0008FEF80936004CF91FF90EF90DF90CF90F6
:1009D00008950F931F938091530390915403409176
:1009E0001A0250911B0260911C0270911D02480F67
:1009F000591F611D711D40931A0250931B02609391
:100A00001C0270931D02809119028F5F893119F0C9
:100A10008093190248C010921902E091F40181E01C
:100A20008E0F8A019B010E2E04C0369527951795CF
:100A300007950A94D2F7013311052105310528F0F5
:100A4000E82FEDCFEE2361F1E150DB01CA010E2E5C
:100A500004C0B695A795979587950A94D2F78031EB
:100A60009105A105B10570F3E093F40180931A029A
:100A700090931B02A0931C02B0931D020E94AA1720
:100A80008EE00E940A168091F4010E9426161092B0
:100A90001A0210921B0210921C0210921D0203C037
:100AA0001092F401E3CF1F910F9108951092DB0390
:100AB0001092120481E0809381020E9495130C949D
:100AC0001416CF9310922C0210922B021092240233
:100AD000109223028FEF90E09093220280932102E4
:100AE000809120048130A1F50E94BE37C82F8091EB
:100AF000280490912904A0912A04B0912B04662720
:100B0000782F892F9A2F27E731E040E050E00E94AC
:100B1000563D2093A9033093AA034093AB0350930F
:100B2000AC03CC2331F187EA95E00E943D1680E2C8
:100B30000E9417168DE491E00E943D1680E40E9409
:100B40000A168C2F0E94BD1F8DE28093610436C06F
:100B50008091DB03811106C088EC90E09093C9037B
:100B60008093C8038CE590E00E94BF3D862F0E94D1
:100B700008138091DB03811107C08091FA03811172
:100B80000E94BF280E94B30C1092290210921F02EB
:100B90008FEF80932002109228028091320490916E
:100BA0003304A0913404B09135048093A30390934F
:100BB000A403A093A503B093A603C0E08C2FCF910C
:100BC000089591E09093DB0390931204882319F029
:100BD0009093B90306C086E890E00E94B73D8093E9
:100BE000B903109220040E94610583E08093D3042E
:100BF0001092E603089580912802811110C080911F
:100C0000320490913304A0913404B0913504809360
:100C1000A3039093A403A093A503B093A60380918C
:100C20002004813019F40E94CE3902C00E94990636
:100C3000882311F18091DB03882389F08091B90327
:100C4000882339F081508093B903811102C00C943C
:100C5000560588E890E00E94BF3D6093E6030E943D
:100C600061058091DB03811163C083E00E94F40F72
:100C700081E08093270208954091A3035091A4033B
:100C80006091A5037091A6038091A9039091AA0396
:100C9000A091AB03B091AC03840F951FA61FB71FA3
:100CA0008093A3039093A403A093A503B093A603FA
:100CB00080912004811107C08091B6039091A70311
:100CC00089130E94671320912B0230912C0280918E
:100CD000230290912402820F931F90932C02809301
:100CE0002B02209121023091220282179307D0F02B
:100CF0004091A3035091A4036091A5037091A603B2
:100D00004F5F5F4F6F4F7F4F4093A3035093A403F8
:100D10006093A5037093A603821B930B90932C0200
:100D200080932B028091DB03811102C00C943C0C58
:100D300008958091290281110DC080911F02815078
:100D400080931F02811109C080912802811105C082
:100D500082E001C081508093290280911F028F3F61
:100D600009F065C080912802882379F0209128023B
:100D70002150209328023091F5013F3E09F03FC0F9
:100D800010921F0210922A0248C0909120029F5F89
:100D9000909320022091C8033091C903A901490F03
:100DA000511DCA010E94B73D8093F501811102C017
:100DB00081E0089580911E040E94C61E9091200239
:100DC0008917B1F38091F5010E94411AE82FF0E0F4
:100DD000E85DFE4F20812093F50187E030E09FEF32
:100DE000980FA901082E02C0559547950A94E2F77D
:100DF00040FF02C0892FF3CF80932802B7CF81E054
:100E000090E001C0880F2A95EAF7832349F083E038
:100E100080931F0281E080932A021092260207C06D
:100E200081E080931F028093260210922A02809113
:100E30001F02811104C01092260210922A02809192
:100E40002602811107C081E090912A02911103C00E
:100E500080E001C081E00E94A91280E00895CF9354
:100E600080911104823049F08091D0039091D10398
:100E70008115904821F0C7E003C0CBE001C0C0E07D
:100E800080E48C0F0E940A16EC2FF0E0ED5CFD4F21
:100E900080810E94171681E08C0FCF910895809178
:100EA0006602A8E2B1E0E0E09D91981719F0EF5FCB
:100EB000EA32D1F78EEF80936602EA3010F480E3D5
:100EC00003C0E43218F487E38E0F0895EA3229F064
:100ED000F0E0E55FFD4F849108958AE20895E3E331
:100EE000F2E080E2819392E0E334F907D9F70895C4
:100EF0008091320290915A02981779F08F5F803179
:100F000019F08093320202C010923202E091320254
:100F1000F0E0E959FD4F8081089580E008959091B7
:100F2000320280915A02981799F090913202809182
:100F30005A02981779F0E3E3F2E08181819382E02D
:100F4000E334F807D1F70E94780780934202EDCF8F
:100F500080E0089581E00895CF93DF93C82FD62FC6
:100F6000809118048823D1F08091BA03882351F12D
:100F70008091BB03813051F4E0918202F0918302B1
:100F8000EB59FB4FC0830E94B0271CC08230D1F4C4
:100F90008C2F0E943E378111EFCF14C080916402E4
:100FA000882381F080915A028F5F803119F08093FD
:100FB0005A0202C010925A02E0915A02F0E0E95936
:100FC000FD4FC083DD2381F080916502882321F0ED
:100FD00081E09091C30303C081E09091CF03911110
:100FE00001C080E080936402DF91CF910895CF9299
:100FF000DF92EF92FF9281E08093650220910D04D1
:1010000030E040E050E060EB74E080E090E00E946F
:10101000563D20934D0230934E0240934F02509321
:101020005002A3E0B0E00E94943D6093520270939E
:1010300053028093540290935502DC01CB01820F3E
:10104000931FA41FB51FB695A79597958795809375
:10105000490290934A02A0934B02B0934C0281E064
:101060009091C303911101C080E0809364028EEFE0
:10107000809366021092440210925102FF90EF900A
:10108000DF90CF9008951092650208958F929F92FD
:10109000AF92BF92CF92DF92EF92FF9280917B024C
:1010A00090917C02A0917D02B0917E020496A11DD8
:1010B000B11D80937B0290937C02A0937D02B0933C
:1010C0007E02E0905303F09054038091C20387FDA9
:1010D00006C080916502811102C00E94F7079091BD
:1010E000B60380916502992329F0811141C00E94C5
:1010F000F7073EC09091FA01992389F080917B0215
:1011000090917C02A0917D02B0917E028093F601C5
:101110009093F701A093F801B093F90129C08823B7
:1011200039F180907B0290907C02A0907D02B0907B
:101130007E028091F6019091F701A091F801B091A3
:10114000F901881A990AAA0ABB0A20914D02309126
:101150004E0240914F0250915002AEE0B0E00E942A
:10116000943D681579058A059B0510F41092650277
:101170008091B6038093FA014091650241113AC013
:10118000E0910001F0910101EE15FF05F0F42091CE
:10119000020130910301609119042E153F0548F4B6
:1011A000C701821B930B70E00E94423D260F371F40
:1011B00008C0C9018E199F0970E00E94423D261B9C
:1011C000370B30930301209302018091020190912B
:1011D00003018E179F0720F4F0930301E0930201AF
:1011E0008091020190910301969587958E159F0538
:1011F00020F481E080935F0202C010925F02809130
:101200005F0290915102891799F0C0907B02D090B3
:101210007C02E0907D02F0907E02C0925602D09255
:101220005702E0925802F0925902411124C025C0A1
:10123000411121C0C0907B02D0907C02E0907D02E1
:10124000F0907E02409156025091570260915802F0
:1012500070915902C41AD50AE60AF70A4091E003D0
:1012600050E060E070E04C155D056E057F0528F4E8
:1012700090913102891380933102809131029091D3
:101280004402891709F4EFC0C0907B02D0907C0221
:10129000E0907D02F0907E02882311F1C092450219
:1012A000D0924602E0924702F092480280915B029F
:1012B00090915C02A0915D02B0915E02C81AD90AB9
:1012C000EA0AFB0AC0926002D0926102E0926202D6
:1012D000F09263028091FB01882309F48DC0C1C0A4
:1012E000C0925B02D0925C02E0925D02F0925E02DC
:1012F0008091450290914602A0914702B091480228
:10130000C81AD90AEA0AFB0AC0922D02D0922E020C
:10131000E0922F02F0923002D701C6014E97A10948
:10132000B1098B3A9105A105B10508F0E9C0E0913A
:10133000CC03AE2FB0E011972091490230914A02C0
:1013400040914B0250914C020E949F3D6C0D7D1DBF
:101350008E1D9F1D2E2F30E040E050E00E94563D34
:101360002093490230934A0240934B0250934C021F
:10137000E0911904AE2FB0E01197C216D306E4062F
:10138000F506E8F420914D0230914E0240914F0253
:10139000509150020E949F3D6C0D7D1D8E1D9F1D22
:1013A0002E2F30E040E050E00E94563D20934D0249
:1013B00030934E0240934F0250935002A1C02091AF
:1013C00052023091530240915402509155020E94B2
:1013D0009F3D6C0D7D1D8E1D9F1D2E2F30E040E02A
:1013E00050E00E94563D20935202309353024093A6
:1013F00054025093550284C080904D0290904E024A
:10140000A0904F02B0905002A5E0B0E0A501940179
:101410000E94943D6C157D058E059F0540F40E9449
:101420004F0760E00E94AC0761E080E218C0809145
:10143000520290915302A0915402B0915502880D2E
:10144000991DAA1DBB1DB695A795979587958C15D7
:101450009D05AE05BF0528F40E944F0761E00E947C
:10146000AC071092FB0180913102811138C040918C
:101470007B0250917C0260917D0270917E0280918E
:101480005B0290915C02A0915D02B0915E02481BEC
:10149000590B6A0B7B0B8091520290915302A091E1
:1014A0005402B091550222E0880F991FAA1FBB1F5A
:1014B0002A95D1F784179507A607B70780F480917E
:1014C000FB0181110CC00E944F0760E00E94AC0735
:1014D00061E080E20E94AC0781E08093FB01809193
:1014E0005F02809351028091310280934402FF9009
:1014F000EF90DF90CF90BF90AF909F908F90089526
:1015000040914D0250914E0260914F0270915002F5
:101510008091520290915302A0915402B0915502D1
:10152000480F591F6A1F7B1F7695679557954795FA
:1015300080916602C416D506E606F70610F4880FF9
:1015400002C0880F8F5F809366028BCFCF93C82F26
:101550008091D30390917F02891B90918202890F21
:101560000E940A16CC2341F08091DC03813011F4F3
:101570008DE003C08EE001C08CE0CF910C94F41597
:101580008091C2038D3F21F480910B048F5B08C0D2
:101590009091100181E0923008F480E09F5F890F04
:1015A0000E940A168EE00C94F4158091D00390915D
:1015B000D10397FD12C08DE20E9417162091D0032F
:1015C0003091D10380E090E8A0E0B0E0BC01CD0113
:1015D000621B730B810991090FC08BE20E941716E1
:1015E0006091D0037091D103CB01A0E0B0E0BC01C9
:1015F000CD0170588109910946E00E94833685E645
:1016000094E00C94311680E40E940A168AEC91E072
:101610000E943D160E94D50A0E9407160E944C1691
:101620000C94C00A80E40E940A1683EC91E00E94A8
:101630003D1660E080910D040E949C160E940716E2
:101640000C944C164BE00E948336809165048033E5
:1016500019F480E28093650410926E0485E694E0AC
:101660000C943116CF92DF92EF92FF92CF93C62F58
:1016700069017A010E940A16C11102C084E001C00A
:1016800085E00E941716C701B601CF91FF90EF9039
:10169000DF90CF900C94220BA0918402B091850230
:1016A000B7FF11C0BF7028EA35E24AE050E00E945F
:1016B000943D20E034E840E050E00E94563D3093F5
:1016C00085022093840280911101883009F04AC07C
:1016D0008091C20381111AC080E40E940A166091B1
:1016E0008402709185026B5F7F4F80E090E047E05D
:1016F0000E9483368EE28093670480E280936A04BE
:1017000086E580936B0410926C0428C0813051F5FB
:1017100080E40E940A16A0918402B0918502A65727
:10172000BD4F9D010E947E3D28E334E441E050E03E
:101730000E94563DCA01B9016B5F7F4F8F4F9F4F8B
:1017400046E00E9483368EE28093660480E28093B6
:10175000690487E580936A0410926B0485E694E03F
:101760000C94311640911C0450911D0426E0249FD6
:10177000C001259F900D11242091FF03309100049A
:101780008217930718F4281B390B02C020E030E0C1
:10179000609184027091850280E02617370730F44B
:1017A000873021F0240F351F8F5FF7CF9091FC0118
:1017B000981721F08093FC010C94CA16089580912B
:1017C00011048230C9F42091E8033091E90340917B
:1017D000EA035091EB0360E080E00E94320B20911D
:1017E000C4033091C5034091C6035091C70361E023
:1017F00080E40E94320B2AC081110AC02091E803C4
:101800003091E9034091EA035091EB0360E00AC094
:101810002091C4033091C5034091C6035091C70382
:1018200061E080E00E94320B80E20E9417168091F6
:10183000D0039091D1038115904841F080E40E943B
:101840000A160E94D50A80E20E94171680910C04A5
:10185000882339F00E944C0B8FE00E940A1686E024
:1018600004C08FE00E940A1680E20E9417160E94B0
:10187000C00A10928102089580E40E940A168CE04A
:101880000E94F41580912004813031F58091280266
:10189000813011F547E050E068EE73E085E694E0B2
:1018A0000E94A73D85E694E00E94311680E20E94E6
:1018B000171645E050E06FEE73E085E694E00E9475
:1018C000A73D85E694E00E94311680E20E9417163B
:1018D0008091D8030C94261608958091650488237E
:1018E00019F0813021F0089586E791E002C081E788
:1018F00091E00C943D1680916504882319F08130A5
:1019000021F0089587E691E002C081E691E00C9411
:101910003D1680916504882319F0813021F00895E7
:1019200084ED91E002C08FEC91E00C943D16809123
:101930006504882319F0813021F0089581EE91E04B
:1019400002C085EE91E00C943D16809165048823D9
:1019500019F0813021F008958EED91E002C089EDFB
:1019600091E00C943D1680E00E940A1660910704F5
:10197000709108048091090490910A044BE00E9440
:10198000833685E694E00E94311680E20E941716A5
:1019900080912004809365040E94A50C809120040E
:1019A000811107C080E20E94171680910D040C94EB
:1019B000261680E20C94171680916504813049F058
:1019C00028F0823049F0833051F0089585E092E0AC
:1019D00008C08CEF91E005C083EF91E002C089EE72
:1019E00091E00C943D1680E40E940A16E091650493
:1019F0008E2F90E089309105C0F4FC01EC5CFF4F24
:101A00000C94783D80E50FC08CE30DC088E20BC0DC
:101A10008EE109C084E107C081E105C08FE003C009
:101A20008CE001C08AE00E9426168DE60C94171601
:101A300080916504813051F038F0823051F48DEBA3
:101A400091E00E943D1605C081E401C082E40E943D
:101A500017160E9407160C944C16E09165048E2F01
:101A600090E08930910508F5FC01E35CFF4F0C9490
:101A7000783D85EB91E017C08DEA91E014C085EACE
:101A800091E011C08DE991E00EC085E991E00BC0B5
:101A90008EE891E008C087E891E005C080E891E019
:101AA00002C089E791E00C943D1608958091650489
:101AB000811105C084E591E00E943D1603C060E0FD
:101AC0000E949C160E9407160C944C160F931F93AD
:101AD000CF93DF9380E40E940A168091BB038111AB
:101AE0004CC080911101823061F48091C203811158
:101AF00003C00E94180D39C0863089F40E946D0C15
:101B000034C08330C1F48091C203853019F40E943F
:101B1000890C2BC0811129C00E94DC0C26C08330A7
:101B200019F40E942D0D21C08530D9F38830E9F4D5
:101B30000E94F30C1AC0813039F48091C2038D30B9
:101B4000A1F40E94560D11C0853039F48091C20372
:101B5000813059F40E94A50C08C0863031F4809180
:101B6000C203843011F40E947B0C0E940716DF919F
:101B7000CF911F910F910C944C16833031F4DF916B
:101B8000CF911F910F910C94970CC0917F02D0912F
:101B90008002CB59DB4F00E110E08991882329F0C6
:101BA0000E94171601501109C1F7DF91CF911F91C3
:101BB0000F91089581E0809381020895CF92DF9282
:101BC000EF92FF92C0900401D0900501E0900601D1
:101BD000F0900701209108013091090140910A011C
:101BE00050910B01C701B6010E941B3C20910C01D2
:101BF00030910D0140910E0150910F010E94823AE7
:101C000020E030E040E05FE30E940C3A0E94F43AAA
:101C1000072E000C880B990B0E942C3B2AED3FE00D
:101C200049EC50E40E941B3CA70196010E94823AB5
:101C30006B017C010E94883C60934A0370934B03C4
:101C400080934C0390934D03C701B6010E947D3AE7
:101C500060934E0370934F0380935003909351030E
:101C60009B01AC010E940C3A6093460370934703BA
:101C70008093480390934903FF90EF90DF90CF90BB
:101C800008952F923F924F925F926F927F928F9220
:101C90009F92AF92BF92CF92DF92EF92FF920F93FB
:101CA0001F93CF93DF9300D000D01F92CDB7DEB744
:101CB000409004015090050160900601709007016A
:101CC000C0904603D0904703E0904803F09049034A
:101CD0001982812C912CA12CB12C212C312C00E0CB
:101CE00010E0282F30E03B832A833981232F30E016
:101CF0003D832C83B901330F880B990B0E942C3B39
:101D0000A30192010E94783A87FF2BC0A701960198
:101D1000B101C8010E941B3C9401A5010E940B3A2D
:101D20004B015C018C819D81EA81FB818E0F9F1F9D
:101D3000880F991F8A579D4FFC0160817181072E82
:101D4000000C880B990B0E942C3BA50194010E946A
:101D50000C3AF981FF5FF983410158011B018C01A5
:101D6000C4CF9401A501B101C8010E941B3CA70189
:101D700096010E941B3C6B017C019101A801B101FD
:101D8000C8010E941B3C2B013C019401A501B40138
:101D9000C5010E941B3C9B01AC01C301B2010E9422
:101DA0000C3AA70196010E940B3A0E94963C0E94B1
:101DB000FB3A70935403609353030F900F900F906E
:101DC0000F900F90DF91CF911F910F91FF90EF90A7
:101DD000DF90CF90BF90AF909F908F907F906F904B
:101DE0005F904F903F902F900895909169039F5F6F
:101DF000903119F09093690302C010926903E09149
:101E00006903F0E0E75AFC4F80830895FA01D90195
:101E1000118210821C92813049F56330B9F040F490
:101E2000613071F0623009F044C028E833E01AC034
:101E3000653091F070F06630E1F525E533E012C0D1
:101E40002FE733E03183208396E032C02EE633E083
:101E500005C026E833E006C02CE833E03183208358
:101E60009FE026C0318320838C9323C0823029F4E5
:101E70006230F9F421EA33E00DC0883029F467308C
:101E8000C1F42EE933E011C0843099F4623031F4AA
:101E90002AE833E03183208391E00AC0643048F0BF
:101EA0006370633031F42AE633E03183208392E0BB
:101EB0009C9320813181232B29F090917E03892BE3
:101EC00080937E0308950F931F93F9019081DB01A6
:101ED000A90FB11D2C91281309C09F5F90839330E7
:101EE00031F4D8014C93108281E002C0108280E06E
:101EF0001F910F91089580E40E940A1680917E033D
:101F000080FF05C088E893E00E94311603C08DE28F
:101F10000E94171680E20E94171680917E0381FFAF
:101F20000FC08091A103823319F482E591E00AC0C9
:101F3000833319F485E591E005C088E591E002C09E
:101F40008BE591E00E94311680E20E94171686E62A
:101F50000E94171680917E0383FF10C080919F031B
:101F6000811103C080E30E94171680919E030E9496
:101F7000171680919F03882339F004C08DE20E94D8
:101F800017168DE20E94171680E20E94171684E74A
:101F90000E94171680916D0390917E039823A9F0FB
:101FA0000E94261680E20E94171683E70E941716E9
:101FB00060916D0370E080915703909158030E94E7
:101FC000423D862F0E94261604C08EE591E00E94B5
:101FD00031160E940716803520F480E20E94171601
:101FE000F8CF10927E03089580939C030E94DB3407
:101FF0008091680081608093680010926B008091EE
:102000009C03813031F480916B00806180936B0080
:10201000089585EF9EE00C943C310E9434310E947B
:10202000B43410929C03E8E6F0E080818E7F8083D8
:1020300010926B000895CF93DF9300D000D01F92D1
:10204000CDB7DEB780918803813409F0A9C04091F3
:102050008D0350E04053510920918C0330E0205310
:1020600031096AE0629FC001639F900D1124840FC3
:10207000951F97FD01969595879560915503653459
:1020800011F4865B03C099E4981B892F89838091A2
:102090006E03E0918603EE3411F4865E03C099E787
:1020A000981B892F8A8380918E0390E0C0977AE0F5
:1020B000749F9001759F300D1124820F931F97FD1F
:1020C000019695958795653431F46AE00E94363D16
:1020D000905D9B8306C06AE00E94363D89E3891BC0
:1020E0008B8390916F03EE3411F49C8303C089E6D7
:1020F000891B8C831D82CE0101960E94A937811114
:1021000024C045E050E06FEE73E085E694E00E9465
:10211000A73D99818091650498130FC09A818091A1
:10212000660498130AC09B8180916704981305C0C8
:102130009C8180916804981741F045E050E06FEE73
:1021400073E0CE0101960E94C53D40918303440F88
:102150004056842F880F880F480F80918403805346
:10216000480F60918103660F6056862F880F880F95
:10217000680F809182038053680F80917F03880FDE
:102180008056982F990F990F890F90918003905343
:10219000890F0E9454298091250281110E94BF2835
:1021A00080919C03823019F40E947B0F09C0833018
:1021B00039F40E940D108AE08093C2030E947A03D2
:1021C0000F900F900F900F900F90DF91CF91089587
:1021D0000F931F93CF93C82F8091060281113DC0AA
:1021E000809105028C278093050206E012E024E02E
:1021F00032E041E063E671E08C2F0E94630F882398
:1022000059F01092040210920302109202021092EE
:10221000010210920002DAC006E012E023E032E090
:1022200042E067E671E08C2F0E94630F8111E9CFD5
:1022300022E032E048E06BE671E08C2F0E94630FF1
:102240008111DFCF21E032E044E06FE671E08C2FB6
:102250000E94630F8111D5CFB9C0C43249F41092E6
:102260000602109204021092000210920502AEC003
:1022700020910002CC3219F0CA3209F059C0809185
:10228000FE019091FF01009769F0409104023091A6
:10229000FD01FC01431718F4E40FF11D02C0E30F28
:1022A000F11D108280910602843061F5243050F1D6
:1022B000822F8370833031F5273051F480918A0367
:1022C000813331F4109258031092570310926D032A
:1022D000E091FE01F091FF018081882399F08AE668
:1022E00093E00E944D372091570330915803620FBD
:1022F000731F709358036093570380916D038F5F32
:1023000080936D03609100026F5F609300021092F2
:1023100004022DEF31E04EEF51E0809106020E9461
:10232000060FCA3211F48EEF11C0809105024BC026
:102330002E3F79F48C2F0E9445379091050220E1C1
:10234000829F90191124909305028FEF80930002D1
:102350003DC02F3FE1F48C2F0E944537909105023C
:10236000981B909305021092000280910602992317
:1023700039F0809590917E03892380937E0326C057
:10238000813021F5CF911F910F910C941B1020915A
:10239000FE013091FF01809105022115310599F070
:1023A000909104024091FD01941768F48C2780936A
:1023B0000502F901E90FF11DC083809104028F5FCE
:1023C0008093040203C0C827C0930502CF911F91D8
:1023D0000F91089580919D0390916903891789F069
:1023E0008F5F803119F080939D0302C010929D038E
:1023F000E0919D03F0E0E75AFC4F80810E94E810D5
:10240000E9CF08951F920F920FB60F9211242F93C8
:102410003F934F935F936F937F938F939F93AF936C
:10242000BF93EF93FF9380919C03813069F4809177
:1024300084009091850090935F0480935E0483B143
:1024400080718093600402C00E94CE30FF91EF91B2
:10245000BF91AF919F918F917F916F915F914F91BC
:102460003F912F910F900FBE0F901F901895909154
:10247000C2039F3F71F59091B303992351F18111EC
:1024800015C040913204509133046091340470912E
:1024900035048091090290910A02A0910B02B0913B
:1024A0000C0284179507A607B70798F480E00E94EE
:1024B000583180E00E94843180E00E94DB2F81E06F
:1024C0000E947E311092B30380916F008B7F8093C6
:1024D0006F000895CF92DF92EF92FF922091DD037B
:1024E000609128047091290480912A0490912B0412
:1024F000C0903204D0903304E0903404F09035045E
:10250000222381F020910D0430E040E050E00E9451
:10251000563DA0E6B0E00E94943D2AE030E040E065
:1025200050E004C024E630E040E050E00E94563D18
:10253000C20ED31EE41EF51EC0920902D0920A02FA
:10254000E0920B02F0920C02FF90EF90DF90CF90A0
:102550000895CF93C82F0E9458318091C2038F3FB6
:10256000A1F080911101883081F0C093B303CC2396
:1025700011F080E001C081E00E947E3180E00E9485
:10258000843180E00E94DB2F39C0CC2379F180E0D8
:102590000E947E318091DF03811103C081E00E949F
:1025A00084318091B30381110AC08091DF038111CE
:1025B00003C081E00E94DB2F81E08093B303809110
:1025C000CA03811104C080911204882361F08FEF47
:1025D0009FEFDC018093090290930A02A0930B0203
:1025E000B0930C020BC00E946A1208C080910802CE
:1025F00081110E946A1280E00E9484318091B603AA
:102600008093A703C093B603C0930802CF910895A7
:10261000CF92DF92EF92FF920F931F93282F30E01B
:1026200040E050E0609128047091290480912A04D0
:1026300090912B040E94563DACE0B0E00E94943D86
:102640002AE030E040E050E00E94563DCA01B90166
:102650002093A9033093AA034093AB035093AC0398
:1026600020910F04309110046901E12CF12C243FDA
:10267000314068F41092AE0304EF11E020E030E046
:10268000A90198012C193D094E095F0909C021E0F3
:102690002093AE03A7019601245F314041095109FF
:1026A0000E94263D28EE33E040E050E00E94563D77
:1026B0002093AF033093B0034093B1035093B20320
:1026C0001F910F91FF90EF90DF90CF9008950F939F
:1026D0001F939091AE034091A3035091A403609186
:1026E000A5037091A6030091AF031091B003209150
:1026F000B1033091B203882339F0992339F0400FA8
:10270000511F621F731F06C09923C9F3401B510B51
:10271000620B730B4093A3035093A4036093A50330
:102720007093A6031F910F91089580910D040E944C
:1027300008138091320490913304A0913404B09135
:1027400035048093A3039093A403A093A503B093AF
:10275000A60380910204811103C082E08093A80344
:1027600008954F925F926F927F928F929F92AF9255
:10277000BF92CF92DF92EF92FF920F931F93CF936E
:10278000509102048091A9039091AA03A091AB03F8
:10279000B091AC030091A3031091A4032091A50371
:1027A0003091A6035523F9F04091A8034423D9F0B2
:1027B0001092A8034091B5034770A9F4AC01BD0184
:1027C000440F551F661F771FD901C801840F951F3D
:1027D000A61FB71F8093A3039093A403A093A50300
:1027E000B093A603AFC0C0903204D0903304E09001
:1027F0003404F090350426013701401A510A620A68
:10280000730A4C015D01880C991CAA1CBB1C841422
:102810009504A604B70428F48C0D9D1DAE1DBF1DA4
:1028200004C0800F911FA21FB31F8093A303909336
:10283000A403A093A503B093A60351110EC08091E9
:10284000A803813051F48091B503877019F010927C
:10285000A80303C082E08093A80380910702882325
:10286000A1F081508093070281116CC00E94A912CF
:102870008091B5038C7F8093B503809107020E94FD
:10288000671381E08093A8035DC08091B50382FF48
:102890001AC02091AD039091CA03213051F49330B6
:1028A00019F092E09093AD0393E0909307028B7D33
:1028B0002FC0933019F091E09093AD0391E0909385
:1028C00007028B7B19C080FD11C081FF07C093E018
:1028D0009093070292E09093AD0319C09091CA03C0
:1028E0009230C1F4282F2874283441F491E0909359
:1028F000AD03909307028F7B80620DC0282F207359
:10290000203341F49093AD0393E0909307028F7DC1
:10291000806401C08F798093B5038091B503877E71
:102920008093B503809107020E94A912C09107020B
:10293000CC2319F08C2F0E94671381E0C11180E035
:102940008093B403CF911F910F91FF90EF90DF9090
:10295000CF90BF90AF909F908F907F906F905F903F
:102960004F900895CF92DF92EF92FF92CF93809194
:10297000DB038111BBC0809112048111B7C080912B
:102980001E028111B3C08091C20380588F3708F4B2
:10299000ADC00E94ED32C82F0E94FC322091CA03C4
:1029A000211110C0C11106C091E0811101C090E059
:1029B000892F01C081E0CF91FF90EF90DF90CF9001
:1029C0000C94A912C0903204D0903304E0903404E7
:1029D000F09035044091A3035091A4036091A503A6
:1029E0007091A6034C155D056E057F0510F030E073
:1029F00008C09091A803992319F091E09093B40333
:102A000031E0C1110CC081111EC0223051F1809102
:102A1000B503887F8093B5031092AD033FC09091BA
:102A2000B503882319F09C7F946024C091FF19C0DE
:102A30009C7F94609093B503233009F451C092E0D9
:102A40009093AD034DC09091B50390FF0AC09C7F59
:102A500094609093B5032330E1F081E08093AD035F
:102A600018C09091B403992381F0CC2331F0909158
:102A7000B50391609093B50333C0882379F08091BA
:102A8000B50382608093B50304C0C11129C08823B7
:102A900029F08091B50380618093B50331110E94C4
:102AA000B11380910204811121C08091A80382306A
:102AB000E9F48091B5038770C9F01092A803809162
:102AC000320490913304A0913404B0913504809382
:102AD000A3039093A403A093A503B093A60306C0F9
:102AE0009091B50398609093B503D1CFCF91FF90AB
:102AF000EF90DF90CF9008955C9A00C05C980895A5
:102B00000F931F9381E000913204109133042091C0
:102B100034043091350440910D0250910E026091C1
:102B20000F0270911002401751076207730708F0F7
:102B300080E01F910F910895CF93C82F0E945C29C8
:102B40008091320490913304A0913404B091350403
:102B50008C0F911DA11DB11D80930D0290930E024B
:102B6000A0930F02B0931002CF9108951F93CF93BB
:102B7000DF93D82F162F4091320450913304609187
:102B800034047091350480910D0290910E02A09151
:102B90000F02B091100284179507A607B70718F027
:102BA0000E945C29E8CFCBB1C07F8C2FD7FD886015
:102BB000D6FD8460D5FD8260D4FD8160D3FDC86000
:102BC000D2FDC460D1FDC260D0FDC1608BB91123BC
:102BD00011F0449A01C044980E947C15CBB9DF9152
:102BE000CF911F910C947C15CF93C82F60E00E9469
:102BF000B615C43010F487E201C082E0CF910C9486
:102C00009C1561E00E94B61582E00C949C158091A1
:102C1000B7030895CF93C82F80E88C0F0E94F41556
:102C2000C093B703CF91089581E00C94F41561E04F
:102C30000E94B61582E00E949C158091B7038F5FB9
:102C40008093B7030895805D0C941716CF936AE0C4
:102C50000E94363DC92F0E9423168C2FCF910C94D1
:102C60002316CF93DF93EC018991882319F00E94FA
:102C70001716FACFDF91CF910895CF93DF93FC0120
:102C80008491EF012196882321F00E941716FE01FE
:102C9000F7CFDF91CF910895CF93C82F8091B703DD
:102CA000C81719F08C2F0E940A16C03140F4809189
:102CB000B703803160F480E20E941716F8CF80914C
:102CC000B703803520F480E20E941716F8CFCF9129
:102CD000089580E70E94F41580E00E94011682E0CA
:102CE0000E94011686E00E9401168EE00E940116E5
:102CF0008EE10E9401168EE00E94011686E00E947D
:102D0000011682E00E94011680E00E94011681E017
:102D10000E94011681E00E94011685E00E940116C2
:102D200089E00E9401168FE10E94011688E00E944E
:102D3000011684E00C9401160F931F93CF93DF9339
:102D4000D62F082F10E0843640F0CCE9C80FC436E7
:102D500038F0C8E3C80F82E004C0C82F80E001C08B
:102D600081E00436110510F00E94231680E090E007
:102D7000CA3018F0CA500196FBCF0A30110508F48A
:102D8000D1110E9423168C2FDF91CF911F910F91AB
:102D90000C942316CF93DF93D82F80E70E94F4156D
:102DA0008EE00E940116C6E0DC1710F08FE101C032
:102DB00081E10E940116C150B9F78FE1DF91CF91F7
:102DC0000C940116CF93DF933C9A549A509A519ADF
:102DD000529A539A80E49CE90197F1F7599A589ACC
:102DE0000E947C1580E891E60197F1F70E947C151E
:102DF000C0E4D1E0CE010197F1F70E947C15CE012D
:102E00000197F1F758980E947C152197F1F788E215
:102E10000E94F41588E00E94F4150E94141686E0C2
:102E20000E94F4158CE00E94F41580E0DF91CF91B0
:102E30000C94CA16CF9380E40E94F415C8E080E198
:102E40000E940116C150D9F7C23010F084E101C0D0
:102E500080E10E940116CF5FC830B1F7C0E0C230F8
:102E600010F085E101C080E10E940116CF5FC830FB
:102E7000B1F780E00E9401168AE00E9401168FE1FE
:102E80000E9401168FE10E9401168FE10E94011637
:102E90008EE00E94011684E00E94011680E00E94EC
:102EA00001168CE00E94011682E10E9401168EE15B
:102EB0000E94011682E10E94011682E10E94011621
:102EC00080E00E94011680E00E94011680E00E94CE
:102ED00001168CE10E94011682E10E9401168CE12C
:102EE0000E94011682E10E9401168CE10E940116E7
:102EF00080E00E94011680E00E94011680E0CF91E0
:102F00000C940116611103C08BE00C940A1670E05A
:102F100061507109962F990F690F262F30E0F90142
:102F20003296482F50E0E417F50714F482E00FC002
:102F3000681710F080E20BC02F5F3F4F4217530716
:102F400011F480E004C0E417F50719F481E00C9453
:102F500017160895FF920F931F93CF93DF93F82EC8
:102F600080E40E940A16C2E0D0E00F2D10E0C017E6
:102F7000D10714F482E011C08C2F82508F1510F00D
:102F800080E20BC0CE0101970817190711F480E009
:102F900004C00C171D0719F481E00E941716239630
:102FA000C233D10521F7DF91CF911F910F91FF908F
:102FB000089585E085BD0E94BB340E94E2160E9400
:102FC00014160E94661A0E94DE0D0E946F0780E0B0
:102FD0000E94DB2F789480E480937C008FEE8093B6
:102FE0007A0083E292E00E943D168EE092E00E9419
:102FF0003D1680E40E940A1684E192E00E943D168C
:1030000084E18093620480916204882359F080E017
:103010000E949237809160008111FCCF8091620400
:103020008150EFCF0E9414160E941A1780E00E9470
:10303000711C86EC90E00E94B73D893018F00E9428
:10304000731B03C082E08093D304D0E0812CC0E0E6
:10305000C12CD12C760100E0B12CA12C99249A949A
:103060008091D304882309F440C00E9414169092E2
:10307000C2038091D304813021F08091D304823047
:1030800019F580E00E947E319091D30481E0923066
:1030900009F080E00E94711C0E94FF280E94951395
:1030A00081E08093460480934F048091120488232A
:1030B00021F00E946105B82E11C080E00E9402300C
:1030C0000E94DA0DB12C0AC080911204882319F0F5
:1030D0000E94B30C02C00E94DA0D04E10E94430872
:1030E00081E00E947E311092D304809125028111EB
:1030F00029C080911204882329F18091C2038F3F57
:1031000009F5409132045091330460913404709178
:1031100035048091A3039091A403A091A503B091DD
:10312000A60384179507A607B70760F48091DB0311
:10313000882321F08091E603811104C0B11002C000
:103140000E94FB058091C2038F3F49F480911204D5
:10315000882329F08091DB03882309F4C2C0809181
:103160005203803321F080915203811176C0809107
:1031700052030E94410E80911101873059F48091D1
:103180001E02882339F00E947203882319F00E94DE
:10319000E90402C00E944608909111018091C20387
:1031A000983091F59EEF980F923070F5809153030F
:1031B00090915403C80ED91EE11CF11CCF5FC0349E
:1031C00011F0C11111C0C701B60136E0969587957F
:1031D000779567953A95D1F747E00E948336C0E02E
:1031E000C12CD12C760139C0C13021F480E40E9479
:1031F0000A1633C0C83088F5EC2FF0E0ED59FB4FCC
:1032000080810E94171629C08F3F39F58091DE0317
:10321000882319F18091530390915403C80ED91E4D
:10322000E11CF11CCF5FC03111F0C11116C0C70104
:10323000B60124E096958795779567952A95D1F7FD
:103240002091D9033091DA0340E050E00E94563DCE
:1032500069017A01822ED0E0C0E08091C2038F3FE5
:1032600009F03FC0011111C0D63078F40E948015DA
:103270008823B9F1D53029F06D2F882D0E9482174F
:1032800002C00E94C00ADF5F2CC08091CF03811171
:1032900004C08091C303882321F10E9480158823F4
:1032A00099F0002389F0003158F411E0100FE02F5D
:1032B000F0E0ED5CFD4F80810E941716012F11C0D8
:1032C0000E94C00A00E00DC00E948015882349F0CA
:1032D000011107C00E948F07882319F00E942F0751
:1032E000082F0E945C2980911704811103C08091EE
:1032F000700080FF0E94B7320E94A131809160046B
:103300008F3F11F00E94F3030E94EA118091610443
:1033100081110CC00E949131182FA81641F08091A4
:103320006404811104C00E940B3301C01A2D0E9455
:10333000903480913F04882341F08091D30481111F
:1033400004C010923F040E94023080918402909148
:10335000850297FD0E944C0B8091DB03882359F076
:103360000E94ED32882319F00E94560504C00E9485
:10337000FC328111F9CF80911204882359F0809199
:10338000DB03811107C08091800086FF03C080E0CD
:103390000E9458310E94B21480E00E94371280913E
:1033A000D404882349F180FF0FC08091C2038F3F6E
:1033B00059F480911204882339F0B11005C080912E
:1033C000250281110E94D4288091D40481FF12C06B
:1033D000109225028091320490913304A09134041C
:1033E000B09135048093A3039093A403A093A50305
:1033F000B093A6031092D4048091E70381110E9438
:10340000D52080918102811106C0809158048111DC
:1034100002C0A12E25CE80918102882319F00E943E
:10342000DF0B02C00E94C00A109258048091C203B0
:103430008F3F11F0D6E0EDCF0023E1F38091CF0371
:10344000811104C08091C3038823A1F30E942F0738
:10345000082FF0CF883080F490E0FC01EE0FFF1FC2
:103460008E0F9F1FFC01E258FE4F80819181A28147
:10347000BC018A2F90E0089561E070E080E090E068
:103480000895CF93882389F0C82F0E94753684321F
:1034900069F4EFE2F2E080E09491C91721F08F5FC8
:1034A00031968B30C9F78C5D01C080E0CF910895D3
:1034B0008A3010F4805D0895843210F4895C089598
:1034C000E82FF0E0E55FFD4F8491089584E090E0FF
:1034D0000E94BF3DDC01CB01BF7781329D4CAB45E3
:1034E000B74071F080E790E00E94BF3D67367241BF
:1034F0008B4E9C4D29F08AE392E00E943D16FFCF4F
:10350000089590E00296880F991F880F991F0C94D8
:10351000BF3D4091130450911404609115047091C3
:10352000160488E590E00C94DD3D4091E103509154
:10353000E2036091E3037091E40384E590E00C946E
:10354000DD3D6091110483E090E00E94CF3D409109
:10355000E8035091E9036091EA037091EB038CE773
:1035600090E00E94DD3D4091C4035091C5036091FD
:10357000C6037091C70380E890E00E94DD3D609132
:10358000100184E890E00E94CF3D60910B0485E833
:1035900090E00E94CF3D4091D0035091D10360E074
:1035A00070E088E490E00E94DD3D40910D0450E021
:1035B00060E070E08CE590E00E94DD3D4091FB030F
:1035C0005091FC036091FD037091FE0380EC90E04C
:1035D0000C94DD3D83E090E00E94B73D80931104A0
:1035E0008CE790E00E94BF3D6093E8037093E9038D
:1035F0008093EA039093EB0380E890E00E94BF3D44
:103600006093C4037093C5038093C6039093C7036C
:1036100084E890E00E94BF3D6093100188E490E050
:103620000E94BF3D7093D1036093D00385E890E082
:103630000E94BF3D60930B048CE590E00E94BF3D6B
:1036400060930D0480EC90E00E94BF3D6093FB030B
:103650007093FC038093FD039093FE030895CF9233
:10366000DF92EF92FF92CF93DF93E091BC03F0E003
:10367000EE0FFF1FEB58FD4F25913491A8EEB3E0FC
:103680000E947E3D6B017C01C8E0D0E0B701A6013D
:10369000CE010E94DD3D2496C834D105B9F7B701AB
:1036A000A6018CE790E00E94DD3DB701A60180E80D
:1036B00090E00E94DD3DB701A60184E790E00E9402
:1036C000DD3DB701A60184EA90E00E94DD3DB7012F
:1036D000A60180EC90E0DF91CF91FF90EF90DF901A
:1036E000CF900C94DD3D8BEF8093C2030E941416A3
:1036F0008AE592E00E943D16109265040E94F30C48
:103700001092D3040895CF93DF93EC010E94141616
:10371000CE010E943D16C0E0D0E060E0CE010E94E4
:10372000CF3D2196C11584E0D807B9F747E652E1AD
:103730006BEE7CED80E790E00E94DD3D4CEB52E0CB
:1037400060E070E080E590E00E94DD3D40E65CE0F6
:103750006CE971E084E590E00E94DD3D40E05DE2CF
:1037600061E371E088E590E00E94DD3D4CE050E0CF
:1037700060E070E08CE590E00E94DD3D44EF51E0B8
:1037800060E070E08CE690E00E94DD3D4CEB52E0A2
:1037900060E070E084EB90E00E94DD3D43E650E0A5
:1037A00060E070E088E790E00E94DD3D45E250E097
:1037B00060E070E088E690E00E94DD3D40E050E887
:1037C00060E070E088E490E00E94DD3D66E084E81F
:1037D00090E00E94CF3D67E085E890E00E94CF3DF9
:1037E00061E08CE990E00E94CF3D61E08DE990E0DE
:1037F0000E94CF3D61E08EE990E00E94CF3D4CEB0E
:1038000052E060E070E088EA90E00E94DD3D48E52B
:1038100052E060E070E08CEA90E00E94DD3D40E222
:1038200053E060E070E080EB90E00E94DD3D40EE10
:103830005EE260E070E088EB90E00E94DD3D48EEE3
:1038400053E060E070E08CEB90E00E94DD3D4CE2E4
:1038500051E060E070E080EA90E00E94DD3D4AE0E7
:1038600050E060E070E080E990E00E94DD3D47E0DC
:1038700050E060E070E084E990E00E94DD3D4CE3C0
:1038800050E060E070E088E990E00E94DD3D44E6B1
:1038900050E060E070E08CE890E00E94DD3D6FEF6A
:1038A00086EC90E00E94CF3D43E25DEC6BE577E073
:1038B00084E090E0DF91CF910C94DD3D84E090E0D6
:1038C0000E94BF3DDC01CB01BF7783329D4CAB45ED
:1038D000B74031F087E692E00E94831B0C941416E7
:1038E0000895CF93DF93C82F0E945E1CC1110E94E0
:1038F000EA1A84E590E00E94BF3D6093E103709373
:10390000E2038093E3039093E40388E590E00E9450
:10391000BF3D609313047093140480931504909337
:1039200016048FE490E00E94B73D8093DD0380E5AC
:1039300090E00E94BF3D6093030470930404809361
:1039400005049093060481E090E00E94B73D8093C7
:10395000F40382E090E00E94B73D8093CA038EE4B6
:1039600090E00E94B73D8093B8038CE690E00E94FF
:10397000BF3DEB017093100460930F048CE490E062
:103980000E94B73D809312048DE490E00E94B73D01
:103990008093200480E690E00E94BF3D6093FA038C
:1039A00084E690E00E94BF3D6093D20388E690E0F9
:1039B0000E94BF3D6093D80384E790E00E94BF3D22
:1039C00060930704709308048093090490930A0499
:1039D00086E890E00E94B73D8093B90387E890E0C5
:1039E0000E94B73D8093DF038FE990E00E94B73DCE
:1039F00080930C0488EB90E00E94BF3D709300041C
:103A00006093FF038CEB90E00E94BF3D70931D0418
:103A100060931C0480EA90E00E94BF3D7093F8031D
:103A20006093F70380E990E00E94BF3D6093E0035C
:103A300084E990E00E94BF3D6093CC0388E990E068
:103A40000E94BF3D609319048CE990E00E94B73D4D
:103A50008093CF038DE990E00E94B73D8093C3032C
:103A60008EE990E00E94B73D8093BA0384EC90E029
:103A70000E94B73D8093DC0385EC90E00E94B73D47
:103A80008093DE038CE890E00E94BF3D7093DA03E0
:103A90006093D90387EC90E00E94B73D80930204C5
:103AA00086EC90E00E94B73D8093BC03E29730F42F
:103AB00082E390E09093100480930F0480910F04B0
:103AC00090911004873B934030F086EB93E0909305
:103AD000100480930F0489E08093810084EB90E0D0
:103AE0000E94BF3D6E3581E0780710F46EE571E00D
:103AF0009B0140E050E060911304709114048091A8
:103B00001504909116040E94563D3093890020932D
:103B10008800809188009091890096958795909370
:103B20008B0080938A0088E790E00E94BF3D83E687
:103B3000861B8823A9F020918A0030918B00409148
:103B40008A0050918B0094E0569547959A95E1F73D
:103B5000241B350B30938B0020938A008150E9CFD2
:103B600080910C04811110923604DF91CF91089559
:103B7000E0911101EB3028F4F0E0ED58FE4F808128
:103B8000089580E00895E091C2038E2F90E08A307E
:103B9000910520F5FC01EA5BFF4F0C94783D89EC20
:103BA00095E01AC080EC95E017C08CEB95E014C04E
:103BB00086EB95E011C08EEA95E00EC087EA95E0AD
:103BC0000BC081EA95E008C087E995E005C088E868
:103BD00095E002C089E795E00C943D160895809128
:103BE0001101853029F481E09091C203983009F0E9
:103BF00080E00895CF92DF92EF92FF920F931F9390
:103C00008091C8039091C9030E94BF3D209111018A
:103C1000223059F52091C203243039F5611520E88E
:103C200072078105910588F400E010E820E030E09B
:103C300068017901C61AD70AE80AF90AC701B6016C
:103C400047E00E9483368DE207C0705881099109D0
:103C500047E00E9483368BE2809365041F910F91A9
:103C6000FF90EF90DF90CF9008954091E5031F9172
:103C70000F91FF90EF90DF90CF900C948336EF92EE
:103C8000FF920F931F93CF93DF938C01EB017A0187
:103C90000E94EF1D882311F180912D042AE0622FEC
:103CA0000E94363D805D80936504905D909366042C
:103CB0008AE380936704809137040E94363D805DDB
:103CC00080936804905D9093690410926A0486E082
:103CD0008093E50382E08093BB032DC08091C203F3
:103CE00090E0F701E80FF91F24912093BB03FE0138
:103CF000E80FF91FC491C093E503880F991FD801FD
:103D0000A80FB91F8D919C919093C9038093C8030C
:103D1000223019F40E94FA1D0EC0213041F44C2FBC
:103D200050E0BC0185E694E00E94A73D04C00E94DB
:103D3000B73D80936504DF91CF911F910F91FF9064
:103D4000EF900C94660D81E795E00E943D168091FE
:103D5000C20360E08F5F0E949C1682E08093BB03E9
:103D60008BE08093E5038091C20390E00296880F78
:103D7000991F880F991F9093C9038093C8030E94CD
:103D8000BF3D4BE00E9483360C94660D843010F0EA
:103D900082E3089584E60895843010F042E301C080
:103DA00044E64093E503843038F424E6829FC00162
:103DB000112488539F4F0BC090E0049752E3589F03
:103DC0009001599F300D1124C901885A9D4F90933D
:103DD000C9038093C80350E06091C8037091C90380
:103DE00085E694E00C94A73D8091C2038C3099F451
:103DF0008FE595E00E943D1682E08093BB0383E04F
:103E00008093E50388E890E09093C9038093C8030A
:103E10000E94FA1D27C08D30A1F487E595E00E942D
:103E20003D161092BB0381E08093E50386E890E0A5
:103E30009093C9038093C8030E94B73D80936504A3
:103E400011C088E695E00E943D168091C20360E0B3
:103E50008F5F0E949C1681E08093BB038091C20318
:103E60000E94CC1E0C94660DE091C2038E2F90E050
:103E70008930910508F5FC01E05BFF4F0C94783D1B
:103E80008EE495E017C088E495E014C082E495E0E4
:103E900011C088E395E00EC084E395E00BC08BE28F
:103EA00095E008C083E295E005C089E195E002C095
:103EB00084E195E00E943D1641ED52E06AED72E02A
:103EC00080EE91E00C943F1EE091C2038E2F90E0B3
:103ED0008930910508F5FC01E75AFF4F0C94783DB5
:103EE00089E095E017C08DEF94E014C082EF94E074
:103EF00011C086ED94E00EC085EE94E00BC08AED13
:103F000094E008C08DEC94E005C080EC94E002C021
:103F100083EB94E00E943D164FEB52E068EC72E0B8
:103F20008EEC91E00C943F1E8091C203823099F098
:103F300038F4882369F08130C1F48CE994E013C02F
:103F4000843079F058F0853081F481E794E00BC03B
:103F500087EA94E008C081E994E005C087E894E02E
:103F600002C08DE794E00E943D1643EB52E069EBFE
:103F700072E082EC91E00C943F1E90E08930910554
:103F800008F5FC01EE59FF4F0C94783D8AE694E069
:103F900017C085E694E014C08BE594E011C085E578
:103FA00094E00EC08FE494E00BC085E494E008C078
:103FB0008AE394E005C08DE294E002C084E294E0DC
:103FC0000C943D1608958091C2030E94BD1F43EAE0
:103FD00052E06BEA72E082EB91E00C943F1EE091BC
:103FE000C2038E2F90E088309105F0F4FC01E55972
:103FF000FF4F0C94783D89E194E014C08EE094E08A
:1040000011C083E094E00EC088EF93E00BC08BEE0C
:1040100093E008C08EED93E005C081ED93E002C00F
:1040200084EC93E00E943D168091C203873099F49E
:1040300080E40E940A1685EB93E00E943D1682E020
:104040008093BB0383E08093E50343E060E070E08E
:10405000CB010C94833643E952E06BE972E082EACB
:1040600091E00C943F1EE091C2038E2F90E08D30C2
:10407000910568F5FC01ED58FF4F0C94783D8BEAF3
:1040800093E023C08FE993E020C082E993E01DC054
:1040900085E893E01AC08DE793E017C082E793E0CC
:1040A00014C089E693E011C081E693E00EC088E574
:1040B00093E00BC08FE493E008C083E493E005C075
:1040C00087E393E002C08EE293E00E943D16809168
:1040D0001E02882349F08091C203863018F40E94A2
:1040E000DB0302C00E947A038091C203863040F451
:1040F00047E852E06DE872E086E991E00C943F1EDB
:1041000080911E02811107C080E40E940A1680E29D
:1041100093E00C943D160895CF92DF92EF92FF92B8
:10412000CF93C1E0C0931704C0901304D09014043F
:10413000E0901504F0901604C701B60120E03AE0C3
:1041400040E050E00E94563D3093CE032093CD03D3
:10415000C701B6012AE030E040E050E00E94563D41
:1041600020931F042093B3001092EC03109285005B
:10417000109284001092E703EAE7F0E08081877FE5
:104180008083C0936F0010928100C093B1001092A1
:10419000B2008FEF9FEF90931B0480931A04CF918E
:1041A000FF90EF90DF90CF90089580E40E940A1670
:1041B0002091D4033091D5034091D6035091D70379
:1041C000AAE0B0E00E94943D4AE00E948336E5E612
:1041D000F4E08EE2818386818583878186831782DE
:1041E000CF010E94311685E592E00E943D160C94A5
:1041F0008C2010926F00EAE7F0E080818860808375
:104200001092170408958FEF0E9440358091C203E9
:104210008230B1F028F4882349F0813051F00895BC
:104220008430A9F080F08530C1F0089588E193E0F2
:1042300002C08FE093E00E943D161092360408956C
:1042400084E093E002C089EF92E00C943D168FEE7B
:1042500092E00E943D160C948C2083EE92E00E9426
:104260003D1682E08093BB0380EC90E09093C903FD
:104270008093C8038CE08093E5030E94FA1D0C94A0
:10428000660D0E941416809111018A3031F08F5F03
:104290000E9423168EE20E941716909111018091C0
:1042A000C2039A3011F4893039F060E08F5F0E94C8
:1042B0009C1680E20E941716E09111018E2F90E06B
:1042C0008B309105C8F4FC01E058FF4F0C94783D09
:1042D0000C94C31D0C94A31E0C94F41E0C94341F58
:1042E0000C94641F0C94941F0C94E31F0C94EF1F08
:1042F0000C9433200C9403210895E0918202F091F4
:104300008302EB59FB4F80818B3211F48DE201C0A7
:104310008BE2808308958091BB038330E1F080912C
:104320001101823029F49091C203963059F413C0E0
:104330008330A9F49091C203992349F181E095302B
:10434000A9F425C0992319F1933039F0953029F05B
:10435000983061F402C081E0089588E008958530C6
:1043600039F481E09091C203913089F080E00895A2
:10437000813031F48091C2038D30C1F783E6089516
:104380008630A1F781E09091C203943079F70895C7
:1043900080911101883059F48091C203833019F45F
:1043A0008FEF0C944035843011F40C94F92008956B
:1043B00085E694E00E944D376093FB037093FC0305
:1043C0008093FD039093FE0382E00C940230CF9221
:1043D000DF92EF92FF920F931F93CF93DF93E82E1C
:1043E000082F10E0E801CB59DB4F8881893341F574
:1043F0000E94EF1D811122C0E11002C0F12C24C0E7
:10440000FF24FA94FE0CCF2CD12CFF2051F0F601A2
:10441000EB59FB4F80810E943E37811102C0FA9414
:10442000F2CFF601EB59FB4F80810E943E37882383
:1044300029F38F2D0E94E721882301F380E301C037
:104440008F5F8883FF24F39480918202909183028E
:104450000817190779F00E94071690E0005C1F4FBB
:104460008017910721F080E48E0D0E940A16888142
:104470000E9417168F2DDF91CF911F910F91FF9002
:10448000EF90DF90CF900895CF92DF92EF92FF925E
:104490000F931F93CF93DF93E82E082F10E0E801CE
:1044A000CB59DB4F8881803341F50E94EF1D81118C
:1044B00022C0E11002C0F12C24C0FF24FA94FE0CAB
:1044C000CF2CD12CFF2051F0F601EB59FB4F80810E
:1044D0000E943E37811102C0FA94F2CFF601EB59E7
:1044E000FB4F80810E943E37882329F38F2D0E9445
:1044F0004422882301F389E301C081508883FF248B
:10450000F39480918202909183020817190779F041
:104510000E94071690E0005C1F4F8017910721F062
:1045200080E48E0D0E940A1688810E9417168F2D36
:10453000DF91CF911F910F91FF90EF90DF90CF907F
:10454000089580916504811102C084E007C09091B4
:10455000C203843040F4933021F487E080936504F3
:10456000089588E0FBCF933011F4883071F30895FB
:10457000CF93DF9380911804882309F4A3C080E0CF
:104580000E94A60A8091BB03813009F477C028F00D
:104590008230E1F0833009F090C080916504811190
:1045A00003C00E948B2101C08150809365048091DB
:1045B0001101823041F48091C203853011F08330C3
:1045C00011F40E94A1220E94660D77C08091110112
:1045D000823069F48091C203843049F48091820270
:1045E00090918302892B19F40E947D2104C080914F
:1045F00082020E9444220E94EF1D8823C9F080910C
:104600006504893319F482E380936504809165041D
:10461000823339F480916604843318F083E3809305
:10462000660480916804893319F485E380936804F3
:104630000E9407164091820250918302282F30E099
:10464000CA01805C9F4F2817390721F080E4840F4E
:104650000E940A16E0918202F0918302EB59FB4F0F
:1046600080810E94171680911101883031F5809168
:10467000C203853011F50E94D8211FC0E09182024B
:10468000F0918302EB59FB4F80810E94411A811106
:1046900001C08FE2C0918202D091830281500E94BA
:1046A000581ACB59DB4F8883E0918202F091830244
:1046B000EB59FB4F80810E94171681E0DF91CF916B
:1046C0000C94A60A0E94B81D9091C203981798F402
:1046D0000E94C8218091C203811104C00E94B81DAC
:1046E0008093C2038091C20381508093C203DF9103
:1046F000CF910C944121DF91CF910895CF93DF9317
:1047000080911804882309F4A4C080E00E94A60ABE
:104710008091BB03813009F478C028F08230E9F041
:10472000833009F091C0C0916504CF5FC0936504E8
:104730000E948B218C1710F4109265048091110156
:10474000823041F48091C203853011F0833011F43E
:104750000E94A1220E94660D77C0809111018230D3
:1047600069F48091C203843049F48091820290916F
:104770008302892B19F40E947D2104C0809182025A
:104780000E94E7210E94EF1D8823C9F080916504F3
:10479000833319F480E38093650480916504823348
:1047A00039F480916604843318F080E380936604C2
:1047B00080916804863319F480E3809368040E9432
:1047C00007164091820250918302282F30E0CA01DF
:1047D000805C9F4F2817390721F080E4840F0E94E6
:1047E0000A16E0918202F0918302EB59FB4F80811F
:1047F0000E94171680911101883031F58091C20313
:10480000853011F50E94D8211FC0E0918202F091FD
:104810008302EB59FB4F80810E94411A8F5F8F32D8
:1048200008F080E0C0918202D09183020E94581A61
:10483000CB59DB4F8883E0918202F0918302EB59E0
:10484000FB4F80810E94171681E0DF91CF910C947D
:10485000A60A80E00E94A60A0E94C821C091C20355
:10486000CF5FC093C2030E94B81DC81710F010920A
:10487000C203DF91CF910C944121CF93DF938091BC
:10488000BB03813009F07AC080918202909183024B
:10489000FC01EB59FB4F20812F3759F521E0280F00
:1048A0003091E503231748F4A22FB0E0AB59BB4F7A
:1048B0004C9111974C932F5FF5CF009799F0208181
:1048C000211110C0019790938302809382028091FE
:1048D0007F0290918002009729F0019790938002C7
:1048E00080937F02E0918202F0918302EB59FB4FAB
:1048F0001DC02E37F9F4209101042083A091E50317
:104900004FEF4A0F242F30E08217930748F42B59BA
:104910003B4FE90121975881E90158834150F2CF7B
:1049200080E28083B0E0AC59BB4F1C9280818093C1
:10493000010422C02630A1F4109283021092820258
:104940001092800210927F0210926504109201046E
:1049500080E40E940A160E9407160E944C160CC0A2
:10496000273061F48091010480838091E50390E019
:10497000909383028093820281E001C080E0DF9106
:10498000CF910895CF92DF92EF92FF920F931F93F2
:104990008091BB03813081F4E0918202F091830227
:1049A000EB59FB4F808192E8980F923018F08650B7
:1049B000823010F40E943D241092830210928202F1
:1049C0001092800210927F02109218040E941A170F
:1049D00080E00E94A60A0E94660D0E94EF1D8823B7
:1049E000E1F060916804660F6056862F880F880F8B
:1049F000680F809169048053680F80916504880F67
:104A00008056982F990F990F890F909166049053B3
:104A100040E0890F0E94542961C02091BB032230DD
:104A200009F049C0809111018230F9F48091C203EC
:104A30008430D9F486E694E00E944D3720916504D5
:104A40002D3269F400E010E820E030E068017901DF
:104A5000C61AD70AE80AF90AB701A6010CC0AB01C9
:104A6000BC0150586F4F7F4F06C085E694E00E940E
:104A70004D37AB01BC01209111012630A9F42091E2
:104A8000C203273089F44131510561057105D1F523
:104A90008BE492E00E94831B1F910F91FF90EF9097
:104AA000DF90CF900C94731B8091C8039091C90341
:104AB0000E94DD3D13C08091C8039091C90321304D
:104AC00049F44091E50350E0BC0185E694E00E9482
:104AD000C53D04C0609165040E94CF3D84E090E034
:104AE0000E94BF3D97FD0EC043E25DEC6BE577E8A9
:104AF00084E090E01F910F91FF90EF90DF90CF90B6
:104B00000C94DD3D1F910F91FF90EF90DF90CF90BF
:104B100008950E943D24811149C02091BB038091DA
:104B2000820290918302213041F4FC01EB59FB4F4A
:104B30002081211102C020E220830097E1F4E0915E
:104B40008202F0918302EB59FB4F80818093010434
:104B50002DC080918202909183020097A9F0FC0100
:104B6000EB59FB4F80810E943E3781110DC080912F
:104B70008202909183020197909383028093820234
:104B80008091BB03823029F320918202309183020D
:104B900080917F02909180022817390710F40197C5
:104BA000FBCF9093800280937F02C9CF0E94660D55
:104BB00081E00C94A60ACF93C82F0E943D24811156
:104BC00044C02091BB0380918202909183022130E6
:104BD000C1F4FC01EB59FB4F2081211112C020E2EE
:104BE00020830FC0E0918202F0918302EB59FB4FCA
:104BF00080810E943E3781110DC080918202909188
:104C00008302019690938302809382028091BB037A
:104C1000823041F3809182029091830220917F0241
:104C200030918002AC01421B530B4031510518F00A
:104C30002F5F3F4FF7CF3093800220937F02FC011C
:104C4000EB59FB4F8081809301048091E50390E054
:104C5000AC01415051092091820230918302241706
:104C6000350750F0CC2319F0CF910C94C224029751
:104C700090938302809382028091BB039FEF980FF1
:104C8000923080F4E0918202F0918302EB59FB4F65
:104C90009081911107C0823011F480E301C080E25D
:104CA00080830AC08091F903882339F0E091820261
:104CB000F0918302EB59FB4F11820E94660D81E057
:104CC000CF910C94A60A80E40E940A1683E50E9404
:104CD000171680E20E9417168091CB03893048F4A2
:104CE00080E20E9417168091CB038F5F0E942316EB
:104CF00005C08091CB038F5F0E94261680E20E9440
:104D000017168091CB030E94811A0E94220B80E229
:104D10000E9417168CE40C9417161F93CF93DF9301
:104D200080E40E940A1680911E0460E08F5F0E945A
:104D30009C168EE20E94171680E20E941716809140
:104D40001E040E94CC1EC5E6D4E01991111107C0C3
:104D50000E940716DF91CF911F910C944C160E9470
:104D600007168035A8F7812F0E941716EECF2091E5
:104D70000B04283078F430E0F901EE0FFF1F2E0FFE
:104D80003F1FF901E258FE4F208131814281642F9B
:104D9000A90104C041E050E060E070E02091D00340
:104DA0003091D103882339F0420F531F403187EAF5
:104DB000580768F408C0C901841B950BAC01413F3A
:104DC00098E5590720F05093D1034093D0030E94F7
:104DD000030B81E080933F04089590910D04882394
:104DE00021F0933638F49F5F03C0923018F0915051
:104DF00090930D040E94120B0C94951390916504EE
:104E0000882331F09F5F993050F01092650409C0FB
:104E1000911104C088E08093650403C09150909381
:104E200065040C94F30C882361F08091CB038F5FB1
:104E30008093CB038091CB03803171F41092CB032C
:104E40000BC08091CB03882321F08091CB0381504C
:104E500001C08FE08093CB030C946326882361F01C
:104E600080911E048F5F80931E0480911E048C30FD
:104E700071F410921E040BC080911E04882321F04F
:104E800080911E04815001C08BE080931E040C941D
:104E90008D2680911104813059F48091CB0340918B
:104EA000C4035091C5036091C6037091C7030AC043
:104EB0008091CB034091E8035091E9036091EA03AC
:104EC0007091EB0390E00296880F991F880F991F4D
:104ED0000C94DD3D80911104813069F48091CB0305
:104EE0000E94811A6093C4037093C5038093C60324
:104EF0009093C7030CC08091CB030E94811A6093EA
:104F0000E8037093E9038093EA039093EB0381E055
:104F10008093460480E00C9402300E94C821809166
:104F20001804882319F00E94C22414C08091110132
:104F30008A3051F08093C2038AE0809311010E946D
:104F400041210E94DB0306C081E08093D3048EE1FF
:104F50008093610480E00E94A91280E00C94843167
:104F600080911804882319F081E00C94DB2580914E
:104F700011018A3071F48091C203893021F40E94BA
:104F8000A11A0C948D27809311011092C2030C94E6
:104F90004121873051F48091C203863068F08091BE
:104FA0001E0281114CC00C947A03883029F4809140
:104FB000C203853009F043C08091BB03813039F4CE
:104FC00090916504911103C08093F90304C010927D
:104FD000F903813011F40E9469168091BB0382307D
:104FE00051F48091E503833031F481E090E09093B7
:104FF00083028093820281E08093180480E480938E
:10500000D30380911101883059F48091C203853017
:1050100099F480E00E947E3182E00E9402300CC050
:10502000863051F48091C203873031F40E94660DBE
:105030000E9407160E944C1681E00C94A60A08955F
:105040001F920F920FB60F9211248F938091EC0351
:105050008F5F8093EC038F910F900FBE0F901F9086
:1050600018951F920F920FB60F9211242F933F9312
:105070004F935F936F937F938F939F93AF93BF9360
:10508000EF93FF93809117048823F9F080911A041D
:1050900090911B04019690931B0480931A04892B12
:1050A00019F487E08093810020911A0430911B0449
:1050B0008091CD039091CE032817390741F4809158
:1050C000700082608093700002C00E94B732FF912E
:1050D000EF91BF91AF919F918F917F916F915F9170
:1050E0004F913F912F910F900FBE0F901F901895E9
:1050F0001F920F920FB60F9211242F933F938F930D
:105100009F93AF93BF9380911704882341F18091BF
:105110001A0490911B04019690931B0480931A0427
:10512000892B11F01092810020918400309185002C
:105130008091EC0390E0A0E0B0E0DC0199278827A3
:10514000820F931FA11DB11D8093D4039093D503AB
:10515000A093D603B093D70381E08093E7038091B7
:1051600070008D7F80937000BF91AF919F918F9160
:105170003F912F910F900FBE0F901F901895909117
:10518000D203209137043091FA03892F281710F0A9
:10519000830FFCCF809327048C3310F09093270467
:1051A00081E080932502089580E40E940A16809190
:1051B0002D040E9426168AE30E9417168091370458
:1051C0000E9426168AE30E94171680912C040E94E2
:1051D000261680E20E94171680E20E9417168CE3C2
:1051E0000E94171680E20E941716809127040E94E1
:1051F000261680E20E94171680E20C941716CF92B2
:10520000DF92EF92FF92CF93DF9316BC109232049D
:1052100010923304109234041092350460911304F8
:105220007091140480911504909116046B017C0117
:105230002AE0F694E794D794C7942A95D1F7C092C0
:105240002804D0922904E0922A04F0922B04EB0166
:10525000D370D0933904C0933804C0922E04D092F6
:105260002F04E0923004F092310420E038EC40E06A
:1052700050E00E94563DC20ED31EE41EF51EC092A1
:105280002104D0922204E0922304F0922404D093CB
:105290002604C093250487E2DF91CF91FF90EF9021
:1052A000DF90CF900C949C156093370480932D046D
:1052B00040932C040C94FF288F929F92AF92BF9240
:1052C000CF92DF92EF92FF92CF93DF9396B58091CA
:1052D000110281111EC097FF33C081E0809311023B
:1052E00080913604882369F080911101883049F457
:1052F0008091C203823028F48091360481508093DB
:105300003604809161048823D9F081508093610430
:1053100017C097FD15C010921102409132045091B0
:10532000330460913404709135045F5F6F4F7F4F99
:1053300040933204509333046093340470933504E3
:10534000C0903204D0903304E0903404F0903504DF
:10535000CC24C90ED11CE11CF11CC0923204D092A5
:105360003304E0923404F09235048091210490914A
:105370002204A0912304B09124040097A105B10553
:1053800009F4B4C08C159D05AE05BF0508F0AEC08C
:10539000609128047091290480912A0490912B0433
:1053A000C0912504D091260420913804309139040D
:1053B000C20FD31F80902E0490902F04A090300431
:1053C000B0903104860E971EA81EB91E9E01232F91
:1053D000332726952695820E931EA11CB11C809220
:1053E0002E0490922F04A0923004B092310422E354
:1053F00030E040E050E00E94563DDA01C901880DDE
:10540000991DAA1DBB1D8093210490932204A09393
:105410002304B0932404D370D0932604C0932504AE
:1054200081E088169104A1048FEFB806B0F0809156
:10543000A3039091A403A091A503B091A6038C1996
:105440009D09AE09BF098093A3039093A403A09381
:10545000A503B093A6030E94FF288091E60388234A
:1054600019F081508093E60380913604882329F057
:105470008091360481508093360480912C048F5F94
:105480008C3319F080932C0416C010922C04809158
:1054900037048F5F8C3319F0809337040CC010925F
:1054A000370480912D048F5F883119F080932D048B
:1054B00002C010922D048091D404982F9160909393
:1054C000D404209137049091270429130FC09091A0
:1054D0002502992359F090912004992321F090916D
:1054E0002C04992319F083608093D404DF91CF9129
:1054F000FF90EF90DF90CF90BF90AF909F908F90F4
:105500000895CF93DF93D82FC62F80EC0E942603F7
:105510008D2F0E943803811109C08C2F0E943803FF
:10552000811106C00E94300380E003C083E001C007
:1055300084E0DF91CF9108954F925F926F927F92B6
:105540008F929F92AF92BF92CF92DF92EF92FF9293
:105550000F931F93CF93C82F462E670178014901FF
:105560005A0187E0880C991CAA1CBB1C8A95D1F7AC
:10557000C501B401A70196010E94563DCA01B901B7
:10558000512C612C712C27E0440C551C661C771C97
:105590002A95D1F722E0521A61087108460E571E6B
:1055A000681E791EA70196010E94263D861A970A59
:1055B000A80AB90A6D2D8C2F0E94812A6C2D81E0DA
:1055C0008C0F0E94812AD301C20188279927A370DA
:1055D000BB27BD018827992782E08C0F0E94812A72
:1055E000652D83E08C0F0E94812A642D84E08C0F4E
:1055F0000E94812ACC24DD248FE0E822FF244CE0A5
:10560000F694E794D794C7944A95D1F7D501C4018D
:1056100088279927AF70BB276C2D6A2B85E08C0FEC
:105620000E94812A692D86E08C0F0E94812A682DB4
:1056300087E08C0FCF911F910F91FF90EF90DF903B
:10564000CF90BF90AF909F908F907F906F905F9022
:105650004F900C94812ACF92DF92EF92FF920F939A
:10566000CF93DF93C82FD22F4450510961097E4F49
:105670006A017B0187E0CC0CDD1CEE1CFF1C8A95C7
:10568000D1F760E08C2F0E94812A61E081E08C0FCD
:105690000E94812AD701C60188279927A370BB27BA
:1056A0006D2F602B6A2B82E08C0F0E94812A6D2D5A
:1056B00083E08C0F0E94812A6C2D84E08C0F0E9465
:1056C000812A60E085E08C0F0E94812A60E086E0FC
:1056D0008C0F0E94812A60E087E08C0FDF91CF91D0
:1056E0000F91FF90EF90DF90CF900C94812ACF9391
:1056F000C82F0E94110360E88C2F0E94812ACF914D
:105700000C941603CF93C82F0E941103CC2371F081
:1057100060E28CE30E94812A60E48BEB0E94812A84
:1057200063E482E10E94812A60E008C060E08BEBC4
:105730000E94812A82E10E94772B64E083E00E942C
:10574000812ACF910C941603EF92FF920F931F932F
:10575000CF93C82F0E941103809145048C17A8F5A0
:1057600040913E042C2F30E090E04423C9F08901A1
:10577000081B190BC801092E000CAA0BBB0B40918A
:105780004B0450914C0460914D0470914E048A0179
:105790009B01081B190B2A0B3B0BD901C80130C018
:1057A000A901481B590BCA01092E000CAA0BBB0BFF
:1057B000409141045091420460914304709144042B
:1057C000840F951FA61FB71F34C0C817D8F5409186
:1057D0003E042C2F30E090E0821B930B092E000C2E
:1057E000AA0BBB0B4423A9F040914B0450914C04ED
:1057F00060914D0470914E04840F951FA61FB71F32
:1058000080934B0490934C04A0934D04B0934E04AA
:1058100028C040914104509142046091430470912A
:1058200044048A019B01081B190B2A0B3B0BD9016D
:10583000C8018093410490934204A0934304B09321
:1058400044040FC08C130DC06FE682E10E94812AD0
:10585000C0934504CF911F910F91FF90EF900C944E
:105860001603E0904B04F0904C0400914D0410910D
:105870004E042091410430914204409143045091E0
:1058800044046091400482E20E949C2ADDCFCF92C2
:10589000DF92EF92FF929B01AC0160913A0470910C
:1058A0003B0480913C0490913D040E94263D60930E
:1058B0005004709351048093520490935304C09009
:1058C000E103D090E203E090E303F090E403A7014A
:1058D00096010E94563D20934004462F572FBC014D
:1058E0008FEF9FEFAFE0B0E080934B0490934C04B8
:1058F000A0934D04B0934E0424E180E090E0DC01DD
:10590000440F551F661F771F880F991FAA1FBB1FC3
:105910004C155D056E057F0528F04C195D096E0973
:105920007F098160215061F7809341049093420484
:10593000A0934304B0934404FF90EF90DF90CF9086
:1059400008954F925F926F927F928F929F92AF9243
:10595000BF92CF92DF92EF92FF920F931F93CF935C
:10596000DF93CDB7DEB728970FB6F894DEBF0FBE32
:10597000CDBF29013A01F50120913A0430913B0451
:1059800040913C0450913D04D6010E94943D4B014E
:105990005C01CF01A0E0B0E089839A83AB83BC8334
:1059A000C801B701A50194010E94563D2D833E8395
:1059B0004F8358879B01AC0169817A818B819C81DF
:1059C0000E94263DA50194010E94563D49015A01BD
:1059D0002D813E814F81588569817A818B819C819F
:1059E0000E94263D95018401060F171F281F391FAD
:1059F00000934B0410934C0420934D0430934E04B9
:105A000085E140E050E0BA01769567955795479556
:105A100040FE04C0400F511F621F731F76946794AD
:105A200057944794815081F7409341045093420426
:105A3000609343047093440441155105604171051E
:105A400038F481E0011511052041310508F080E0AE
:105A500028960FB6F894DEBF0FBECDBFDF91CF9171
:105A60001F910F91FF90EF90DF90CF90BF90AF907C
:105A70009F908F907F906F905F904F9008954F927E
:105A80005F926F927F92AF92BF92CF92DF92EF922E
:105A9000FF920F931F93CF93DF93CDB7DEB72D9770
:105AA0000FB6F894DEBF0FBECDBF2B013C010E94A4
:105AB000110360E079EE84EA95E3A30192010E946C
:105AC000563D29833A834B835C83DA01C901817097
:105AD0009927AA27BB2789879A87AB87BC8720FD90
